:10000000002000205D25000061AC000061AC000014
:1000100061AC000061AC000061AC000061AC0000AC
:1000200061AC000061AC000061AC000061AC00009C
:1000300061AC000061AC000061AC000061AC00008C
:1000400061AC000061AC000061AC000061AC00007C
:1000500061AC000061AC000061AC000061AC00006C
:1000600061AC000061AC000061AC000061AC00005C
:1000700061AC000061AC000061AC000061AC00004C
:1000800061AC000061AC000061AC000061AC00003C
:1000900061AC000061AC000061AC000061AC00002C
:1000A00061AC000061AC000061AC000061AC00001C
:1000B00061AC000061AC000061AC000061AC00000C
:1000C000010000000020004001000000002001406D
:1000D000010000000048004001000000004801400D
:1000E0000100000001000000080002230000087663
:1000F000080003230000107608000423000028767F
:10010000080005230000307605000623000020705B
:100110000500072300003070050008230000607010
:100120000500FF230000707010000A2200006051DB
:100130001000FF220000F05180010C220000000896
:1001400080000D220000800C80000E220000000EB6
:1001500080020F220000001480011022000000180D
:10016000000211220000001A800012220000004745
:100170008000132200000048000114220000004902
:100180000001FF220000004D400016230000006423
:1001900020001723000070642000FF23000070651A
:1001A000080019230000005180001A2300000000FD
:1001B00080001B230000800080001C230000000240
:1001C00080001D230000800280001E230000000428
:1001D00080001F2300008004800020230000000610
:1001E0008000212300008006800022230000000AF6
:1001F000800023230000800A800024230000000CDC
:10020000800025230000800E800026230000801639
:10021000800027230000004C800028230000804C31
:10022000800029230000804780002A230000004628
:1002300080002B230000804680002C230000004516
:1002400080002D230000804580002E230000004404
:1002500080002F230000804480003023000080199C
:100260008000312300000017800032230000801737
:100270008000332300008009800034230000000741
:100280008000352300008007800036230000000B2B
:10029000800037230000800B800038230000000519
:1002A000800039230000800580003A230000000D03
:1002B00080003B230000800D80003C2300000003F1
:1002C00080003D230000800380003E230000000FDB
:1002D00080003F230000800F8000402300000001C9
:1002E00080004123000080018000422300008048FC
:1002F000800043230000004380004423000080432B
:100300008000452300000042800046230000804218
:100310008000472300000041800048230000804106
:10032000800049230000004080004A2300008040F4
:1003300010004B23000010501000FF23000000505D
:1003400080B51448144B21E05C689968DD688C42E4
:100350000CD0002205E0A6180832D6E9008941E950
:1003600002898C460831AA42F5D101E004EB050C64
:100370001C696146002204E008320026002741E99A
:1003800002670831A242F7D1143301380028DBD1CB
:100390000AF02CFC010000003CB200004EF2386371
:1003A000C1F6FF731A780AB901201870704700BFB0
:1003B0004EF20010C1F6FF7008B503682BB140F291
:1003C0000003C0F2000303B1984708BD000000001D
:1003D000B0B586B000AF62B600F0CCFD4EF2B463AB
:1003E000C1F6FF734FF072021A704EF2B463C1F699
:1003F000FF734FF06D025A704EF2B463C1F6FF7393
:100400004FF074029A704EF2B460C1F6FF7001F0C2
:10041000CBFC01F0E1F904F0A1FB04F0A5F94AF6E8
:10042000C840C0F2000004F099FA40F60940C0F25A
:10043000000004F0FDFA4FF00003FB804FF00003D2
:10044000BB604FF00003BB734FF00003FB734FF032
:100450000A033B614FF000037B6100F0FFFB4FF4A8
:10046000FA7002F051F900F0E1FB4FF4FA7002F07B
:100470004BF94EF23C63C1F6FF731B68BB6001F0A1
:10048000A9FC00F0A1FF4FF0070002F00DF80346B1
:100490004FEA03239CB24FF0080002F005F8034630
:1004A000224642EA03039BB29AB24EF2B863C1F607
:1004B000FF731A8001F074F904460D464EF2B863DA
:1004C000C1F6FF731B88184605F046FA02460B4634
:1004D0002046294601F008FA00F0D8FB00F052FD52
:1004E000FB8803F10103FB80FB7B042B00F2A88255
:1004F00001A252F823F000BF0D0500001505000011
:10050000CF0500009F070000270900004FF00103FE
:10051000FB7395E2BB7B012B15D04AF6D440C0F2A9
:10052000000004F01BFA4EF24863C1F6FF731B781B
:100530001A4602F0FE024EF24863C1F6FF731A70CB
:100540004FF00103BB734FF000004FF002010FF2B8
:100550002853D3E9002300F017FC7A693B691A4459
:10056000BB689A4211D8FB7B4EF24060C1F6FF7027
:10057000194600F085FA01F07FFF4EF24060C1F6A7
:10058000FF7001F0A3FFBB687B6101F0B7FF01F0D2
:10059000CDFF0346002B00F0488201F079FF4FF0B9
:1005A000040001F081FF034603F00403002B00F078
:1005B0003E824FF00203FB734FF000004FF000014A
:1005C0004FF000024FF0000300F0DEFB38E2BB7B8F
:1005D000022B26D04AF6F440C0F2000004F0BEF927
:1005E0004FF000004FF001014FF000024FF0000308
:1005F00000F0CAFB4FF002004FF000014FF0000284
:100600004FF0000300F0C0FB4FF001004FF000017D
:100610004FF000024FF0000300F0B6FB4FF0020372
:10062000BB7301F06BFF0346002B03D04FF00103B7
:10063000FB7305E200F00AFD0346002B0DD04EF2DD
:100640004863C1F6FF731B7843F00103DAB24EF240
:100650004863C1F6FF731A7011E000F02BFD0346EA
:10066000002B0CD04EF24863C1F6FF731B7843F0A9
:100670000203DAB24EF24863C1F6FF731A7000F05B
:10068000FFFC0346002B0DD04EF24863C1F6FF730A
:100690001B7843F00803DAB24EF24863C1F6FF73E9
:1006A0001A700CE04EF24863C1F6FF731B781A46CD
:1006B00002F0F7024EF24863C1F6FF731A7000F0C1
:1006C00013FD0346002B0DD04EF24863C1F6FF73B5
:1006D0001B7843F01003DAB24EF24863C1F6FF73A1
:1006E0001A700CE04EF24863C1F6FF731B781A468D
:1006F00002F0EF024EF24863C1F6FF731A707A6996
:100700003B691A44BB689A4213D800F007FDFB7B93
:100710004EF24060C1F6FF70194600F0B1F901F0E9
:10072000ABFE4EF24060C1F6FF7001F0CFFEBB6839
:100730007B6101F0FBFE0346002B00F07A8101F0A3
:10074000A7FE4FF0040001F0AFFE034603F00103E3
:10075000DBB2002B11D04FF0000004F06BFA4FF029
:100760000303FB734FF000004FF000014FF0000255
:100770004FF0000300F008FB62E14FF0040001F0CD
:1007800093FE034603F00203002B00F054814FF068
:10079000000004F04FFA4FF00403FB7350E1BB7B01
:1007A000032B23D04AF61850C0F2000004F0D6F80C
:1007B0004EF24863C1F6FF731B7843F00103DAB2CF
:1007C0004EF24863C1F6FF731A704FF001004FF00C
:1007D00001014FF000024FF0000300F0D5FA4FF096
:1007E000010000F0CDFF4FF00303BB7301F086FE64
:1007F0000346002B11D04FF00103FB734FF00100B3
:100800004FF000014FF000024FF0000300F0BCFA7F
:100810004FF0000000F0B4FF12E100F017FC0346B7
:10082000002B0CD14EF24863C1F6FF731B781A46B9
:1008300002F0FE024EF24863C1F6FF731A7000F038
:100840001FFC0346002B0DD04EF24863C1F6FF7328
:100850001B7843F00803DAB24EF24863C1F6FF7327
:100860001A700CE04EF24863C1F6FF731B781A460B
:1008700002F0F7024EF24863C1F6FF731A7000F0FF
:1008800033FC0346002B0DD04EF24863C1F6FF73D4
:100890001B7843F01003DAB24EF24863C1F6FF73DF
:1008A0001A700CE04EF24863C1F6FF731B781A46CB
:1008B00002F0EF024EF24863C1F6FF731A707A69D4
:1008C0003B691A44BB689A4213D800F027FCFB7BB3
:1008D0004EF24060C1F6FF70194600F0D1F801F009
:1008E000CBFD4EF24060C1F6FF7001F0EFFDBB683A
:1008F0007B6101F01BFE0346002B00F09E8001F09F
:10090000C7FD4FF0040001F0CFFD034603F00103E3
:10091000002B40F094804FF00203FB734FF0000077
:1009200000F02EFF8CE0BB7B042B12D04AF638502F
:10093000C0F2000004F012F84FF002004FF0010185
:100940004FF000024FF0000300F01EFA4FF00403D6
:10095000BB7300F0AFFB0346002B0DD04EF2486393
:10096000C1F6FF731B7843F00203DAB24EF248631C
:10097000C1F6FF731A700CE04EF24863C1F6FF73C4
:100980001B781A4602F0FD024EF24863C1F6FF736F
:100990001A7000F075FB0346002B0DD04EF2486331
:1009A000C1F6FF731B7843F00803DAB24EF24863D6
:1009B000C1F6FF731A700CE04EF24863C1F6FF7384
:1009C0001B781A4602F0F7024EF24863C1F6FF7335
:1009D0001A707A693B691A44BB689A4211D8FB7B4A
:1009E0004EF24060C1F6FF70194600F049F801F080
:1009F00043FD4EF24060C1F6FF7001F067FDBB6839
:100A00007B6101F093FD0346002B19D001F040FDFE
:100A10004FF0040001F048FD034603F00203002BF1
:100A20000ED14FF00203FB730AE000BF08E000BFE5
:100A300006E000BF04E000BF02E000BF00E000BF2E
:100A40004FF0010004F018F94EF23C63C1F6FF7359
:100A50001B68BA689A4207D14EF23C63C1F6FF7335
:100A60001B68BA689A42F7D04FF0000004F004F90E
:100A7000FFE400BFAFF300800000000000407F40B3
:100A800090B589B000AF78600B46FB704EF2B06352
:100A9000C1F6FF731B6803F101024EF2B063C1F6A9
:100AA000FF731A607B684FF073021A707B6803F162
:100AB00001034FF06B021A707B6803F102034FF0E1
:100AC00074021A707B6803F103034FF003021A707B
:100AD0007B6803F104024EF24863C1F6FF731B7892
:100AE0001370FB78032B6AD100F068FE02460B46B8
:100AF000C7E90223D7E902013DA3D3E9002304F0AB
:100B0000EDFD02460B46104619463BA3D3E90023F0
:100B100004F098FF02460B461046194638A3D3E965
:100B2000002305F0B9F802460B46C7E904234FF04D
:100B300000031C46D7E904014FF000024FF0000308
:100B400005F0F2F90346002B02D04FF001031C46DA
:100B5000E3B2002B05D04FF000024FF00003C7E9CD
:100B600004234FF000031C46D7E9040122A3D3E974
:100B7000002305F0F7F90346002B02D04FF00103E4
:100B80001C46E3B2002B04D01BA3D3E90023C7E922
:100B90000423D7E9040105F0EFF90346FB837B68E2
:100BA00003F10503FA8B4FEA122292B2D2B21A7005
:100BB0007B6803F10603FA8BD2B21A700BE07B68F4
:100BC00003F105034FF000021A707B6803F106037E
:100BD0004FF000021A707B6803F107034FF0000228
:100BE0001A7007F12407BD4690BD00BFAFF3008027
:100BF000000000000088934000000000E0FFEF408C
:100C00000000000000288D4080B400AF4EF23C632D
:100C1000C1F6FF731B6803F101024EF23C63C1F69B
:100C2000FF731A60BD4680BC704700BF80B582B0BC
:100C300000AF4FF00003FB7109E0FB7918464FF05D
:100C4000000100F0C3F8FB7903F10103FB71FB79AC
:100C5000082BF2D907F10807BD4680BD80B582B0E8
:100C600000AF4FF00003FB7109E0FB7918464FF02D
:100C7000010100F0ABF8FB7903F10103FB71FB7993
:100C8000082BF2D907F10807BD4680BD80B582B0B8
:100C900000AF4FF00003FB7063E0FA784EF64803B4
:100CA000C1F6FF739B5C002B05D1FB7818464FF013
:100CB000000100F08BF8FA784EF64803C1F6FF7396
:100CC0009B5C012B05D1FB7818464FF0010100F029
:100CD0007DF8FA784EF64803C1F6FF739B5C022B51
:100CE0003BD1FA784EF65803C1F6FF734FEAC202C1
:100CF0001344D3E90023104619464FF000024FF089
:100D0000804303F5501304F0C7FF02460B4610461C
:100D1000194605F031F903467B60FA784EF2BC6360
:100D2000C1F6FF7353F822207B681A444EF2E06349
:100D3000C1F6FF731B689A420FD2FB78184600F089
:100D400095F8FA784EF2E063C1F6FF7319684EF237
:100D5000BC63C1F6FF7343F82210FB7803F1010373
:100D6000FB70FB78082B98D94EF2E063C1F6FF7355
:100D70001B6803F101024EF2E063C1F6FF731A60D3
:100D800007F10807BD4680BD80B485B000AFC7E954
:100D900000230346FB730B46BB73FA7B4EF64803F6
:100DA000C1F6FF73B97B9954FA7B4EF65803C1F62E
:100DB000FF734FEAC20202EB0301D7E90023C1E946
:100DC000002307F11407BD4680BC704780B582B090
:100DD00000AF02460B46FA71BB71FB79082B41D874
:100DE00001A252F823F000BF0D0E0000170E000004
:100DF000210E00002B0E0000350E00003F0E0000FB
:100E0000490E0000530E00005D0E0000BB7918462D
:100E100001F0B4FD26E0BB79184601F07BFD21E02E
:100E2000BB79184601F0FCFB1CE0BB79184601F0C9
:100E300071FE17E0BB79184601F0A0FE12E0BB7905
:100E4000184601F0CBFE0DE0BB79184601F0CAFD53
:100E500008E0BB79184601F0F9FD03E0BB791846BC
:100E600001F028FE07F10807BD4680BD80B582B0BD
:100E700000AF0346FB71FB79082B77D801A252F82B
:100E800023F000BFA90E0000BF0E0000D50E000029
:100E9000EB0E0000010F0000170F00002D0F0000E7
:100EA000430F0000590F000001F08AFD0346002B9C
:100EB00014BF00230123184601F060FD56E001F045
:100EC0004BFD0346002B14BF00230123184601F0FD
:100ED00021FD4BE001F0C4FB0346002B14BF0023AF
:100EE0000123184601F09CFB40E001F035FE03466B
:100EF000002B14BF00230123184601F00BFE35E040
:100F000001F05CFE0346002B14BF002301231846AA
:100F100001F034FE2AE001F083FE0346002B14BFEB
:100F200000230123184601F059FE1FE001F07CFD6B
:100F30000346002B14BF00230123184601F052FD85
:100F400014E001F0A5FD0346002B14BF002301238C
:100F5000184601F07BFD09E001F0CCFD0346002BB3
:100F600014BF00230123184601F0A4FD07F1080770
:100F7000BD4680BD80B500AF01F08CFF02F022FBC2
:100F800080BD00BF80B582B000AF02F017F802F05C
:100F900055F80346002BFAD14FF000033B714FF098
:100FA00000037B714FF00003BB714FF00003FB7136
:100FB0004FF0000002F0F6FC03463B713B79002B3A
:100FC00004D04FF0010000F0B5F803E04FF000004E
:100FD00000F0B0F84FF0010002F0E4FC03467B7132
:100FE0007B79002B04D04FF0010000F0F5F803E00E
:100FF0004FF0000000F0F0F84FF0020002F0D2FCD9
:101000000346BB71BB79002B04D04FF0010000F008
:1010100035F903E04FF0000000F030F94FF0030025
:1010200002F0C0FC0346FB71FB79002B04D04FF0AB
:10103000010000F075F903E04FF0000000F070F9D6
:1010400002F0C8FB07F10807BD4680BD80B400AFC1
:101050004EF2E463C1F6FF731B78022B06D04EF20A
:10106000E463C1F6FF731B78032B02D14FF0010339
:1010700001E04FF000031846BD4680BC704700BF3A
:1010800080B400AF4EF2E563C1F6FF731B78022B0C
:1010900006D04EF2E563C1F6FF731B78032B02D135
:1010A0004FF0010301E04FF000031846BD4680BC3D
:1010B000704700BF80B400AF4EF2E663C1F6FF7325
:1010C0001B78022B06D04EF2E663C1F6FF731B7845
:1010D000032B02D14FF0010301E04FF0000318464B
:1010E000BD4680BC704700BF80B400AF4EF2E763DE
:1010F000C1F6FF731B78022B06D04EF2E763C1F6F0
:10110000FF731B78032B02D14FF0010301E04FF076
:1011100000031846BD4680BC704700BF80B400AFD6
:101120004EF2E763C1F6FF734FF000021A70BD463E
:1011300080BC704780B483B000AF0346FB71FB797D
:10114000002B0ED04EF2E463C1F6FF731B78002B28
:1011500007D14EF2E463C1F6FF734FF001021A703B
:1011600034E0FB79002B0ED14EF2E463C1F6FF733D
:101170001B78012B07D14EF2E463C1F6FF734FF0E9
:1011800002021A7022E0FB79002B0ED04EF2E463CB
:10119000C1F6FF731B78022B07D14EF2E463C1F650
:1011A000FF734FF003021A7010E0FB79002B0DD192
:1011B0004EF2E463C1F6FF731B78032B06D14EF2A7
:1011C000E463C1F6FF734FF000021A7007F10C07D9
:1011D000BD4680BC704700BF80B483B000AF0346FB
:1011E000FB71FB79002B0ED04EF2E563C1F6FF7365
:1011F0001B78002B07D14EF2E563C1F6FF734FF069
:1012000001021A7034E0FB79002B0ED14EF2E56337
:10121000C1F6FF731B78012B07D14EF2E563C1F6CF
:10122000FF734FF002021A7022E0FB79002B0ED000
:101230004EF2E563C1F6FF731B78022B07D14EF225
:10124000E563C1F6FF734FF003021A7010E0FB79FB
:10125000002B0DD14EF2E563C1F6FF731B78032B13
:1012600006D14EF2E563C1F6FF734FF000021A702B
:1012700007F10C07BD4680BC704700BF80B483B047
:1012800000AF0346FB71FB79002B0ED04EF2E663F4
:10129000C1F6FF731B78002B07D14EF2E663C1F64F
:1012A000FF734FF001021A7034E0FB79002B0ED16E
:1012B0004EF2E663C1F6FF731B78012B07D14EF2A5
:1012C000E663C1F6FF734FF002021A7022E0FB7969
:1012D000002B0ED04EF2E663C1F6FF731B78022B93
:1012E00007D14EF2E663C1F6FF734FF003021A70A6
:1012F00010E0FB79002B0DD14EF2E663C1F6FF73CF
:101300001B78032B06D14EF2E663C1F6FF734FF054
:1013100000021A7007F10C07BD4680BC704700BF81
:1013200080B483B000AF0346FB71FB79002B0ED075
:101330004EF2E763C1F6FF731B78002B07D14EF224
:10134000E763C1F6FF734FF001021A7034E0FB79D6
:10135000002B0ED14EF2E763C1F6FF731B78012B11
:1013600007D14EF2E763C1F6FF734FF002021A7025
:1013700022E0FB79002B0ED04EF2E763C1F6FF733B
:101380001B78022B07D14EF2E763C1F6FF734FF0D3
:1013900003021A7010E0FB79002B0DD14EF2E763C7
:1013A000C1F6FF731B78032B06D14EF2E763C1F63B
:1013B000FF734FF000021A7007F10C07BD4680BCA6
:1013C000704700BF0000000080B5A2B002AF4EF22F
:1013D000F963C1F6FF731B78032B00F2BC8101A2F5
:1013E00052F823F0F51300000D140000E91400007A
:1013F0003516000002F048FF03F068F94EF2F96379
:10140000C1F6FF734FF001021A70A4E14EF2FA63C5
:10141000C1F6FF731A784EF2F963C1F6FF731B78B9
:101420009A420FD04AF65850C0F2000003F096FAE4
:101430004EF2F963C1F6FF731A784EF2FA63C1F601
:10144000FF731A704EF2FC63C1F6FF731A684EF216
:101450000413C1F6FF731B681A444EF20073C1F601
:10146000FF731B689A4207D84EF2F963C1F6FF7307
:101470004FF002021A706EE14EF2F863C1F6FF738C
:101480001B78002B19D04EF20473C1F6FF731A6853
:101490004EF20813C1F6FF731B681A444EF2007334
:1014A000C1F6FF731B689A4207D84EF2F963C1F682
:1014B000FF734FF003021A704DE14EF20C13C1F6A8
:1014C000FF731B78002B00F043814EF2F963C1F6E5
:1014D000FF734FF002021A704EF20C13C1F6FF7345
:1014E0004FF000021A7036E14EF2FA63C1F6FF7354
:1014F0001A784EF2F963C1F6FF731B789A421FD037
:101500004AF67450C0F2000003F028FA4FF00000D1
:1015100003F0E2F802F0FEFF4EF20073C1F6FF7333
:101520001A684EF2FC63C1F6FF731A604EF2F9635B
:10153000C1F6FF731A784EF2FA63C1F6FF731A70A0
:101540004FF0010002F0FAFF0346002B00F0028189
:1015500003F01AF803469BB2A7F866304FF000007C
:1015600002F0ECFF03F010F803469BB2A7F86630D8
:10157000B7F866301BB2184603F078F803469BB202
:10158000A7F86630B7F866303A4610464FF0320199
:101590004AF69C52C0F2000204F040FE3B46184658
:1015A00003F0DCF9B7F86630184604F0D5F90246C6
:1015B0000B46C7E91A23D7E91A016FA3D3E9002321
:1015C00004F040FA02460B46104619464FF000025E
:1015D0004FF0804303F5781304F080F802460B4681
:1015E000C7E91A234EF2E863C1F6FF73D7E91A017F
:1015F000C3E900014EF2E863C1F6FF73D3E90023AB
:1016000007F13401CDE9002308464FF032014AF6D4
:10161000B452C0F2000204F001FE07F13403184690
:1016200003F09CF94EF2F963C1F6FF734FF001022B
:101630001A7090E04EF2FA63C1F6FF731A784EF218
:10164000F963C1F6FF731B789A421FD04AF6D05057
:10165000C0F2000003F082F94FF0010003F03CF803
:1016600002F058FF4EF20073C1F6FF731A684EF293
:101670000473C1F6FF731A604EF2F963C1F6FF738B
:101680001A784EF2FA63C1F6FF731A704FF0010038
:1016900002F054FF0346002B5DD002F075FF0346B5
:1016A0009BB2A7F876304FF0000002F047FF02F03F
:1016B0006BFF03469BB2A7F87630B7F876301BB2C3
:1016C000184602F0D3FF03469BB2A7F87630B7F86E
:1016D000763007F1340210464FF032014AF69C5240
:1016E000C0F2000204F09AFD07F13403184603F03B
:1016F00035F9B7F87630184604F02EF902460B4655
:10170000C7E91E234EF2F063C1F6FF73D7E91E014D
:10171000C3E900014EF2F063C1F6FF73D3E9002381
:101720003946CDE9002308464FF032014AF6FC5213
:10173000C0F2000204F072FD3B46184603F00EF9B9
:101740004EF2F963C1F6FF734FF001021A7002E026
:1017500000BF00E000BF4EF20073C1F6FF731B68CC
:1017600003F101024EF20073C1F6FF731A6007F134
:101770008007BD4680BD00BFB588E6AC41F118408A
:1017800080B483B000AF0346FB714EF2F863C1F63C
:10179000FF73FA791A7007F10C07BD4680BC7047D9
:1017A00080B400AF4EF2E863C1F6FF73D3E90023C3
:1017B00010461946BD4680BC704700BF80B400AFDC
:1017C0004EF2F063C1F6FF73D3E9002310461946C9
:1017D000BD4680BC704700BF80B400AF4EF20873B6
:1017E000C1F6FF732CA1D1E90001C3E900014EF25B
:1017F0001873C1F6FF732AA1D1E90001C3E9000102
:101800004EF22073C1F6FF7327A1D1E90001C3E9AD
:1018100000014EF21073C1F6FF7325A1D1E900015A
:10182000C3E900014EF22873C1F6FF7322A1D1E98A
:101830000001C3E900014EF23073C1F6FF7320A12D
:10184000D1E90001C3E900014EF24073C1F6FF7314
:101850001DA1D1E90001C3E900014EF24873C1F6B0
:10186000FF731BA1D1E90001C3E900014EF23873F7
:10187000C1F6FF7318A1D1E90001C3E900014EF2DE
:101880005073C1F6FF7316A1D1E90001C3E900014D
:10189000BD4680BC704700BF000000000070B7402C
:1018A000AAAAAAAAAAFEBB40AAAAAAAAAA46C04055
:1018B00000000000008EC240ABAAAAAAAA3A924039
:1018C000000000000017E1405555555555D5E4403E
:1018D000AAAAAAAAAA93E840000000000052EC407D
:1018E000ABAAAAAAAAF2BD4090B591B000AFC7E9D1
:1018F0000201C7E900234EF21873C1F6FF73D3E962
:1019000000234FF000010C46D7E9020104F00CFB64
:101910000346002B02D04FF001031C46E3B2002B1C
:1019200035D04EF20873C1F6FF73D3E90023D7E92F
:10193000020103F0D3FE02460B46104619464EF252
:101940002873C1F6FF73D3E9002300F0D9F90246EA
:101950000B46C7E904234FF008004FF00201D7E916
:101960000423FFF711FA4FF007004FF000014FF08A
:1019700000024FF00003FFF707FA4FF006004FF0A8
:1019800000014FF000024FF00003FFF7FDF94EF2A7
:101990001873C1F6FF73D3E900234FF000010C4622
:1019A000D7E9020104F0D4FA0346002B02D04FF02D
:1019B00001031C46E3B2002B4BD04EF22073C1F65C
:1019C000FF73D3E900234FF000010C46D7E9020171
:1019D00004F0AAFA0346002B02D04FF001031C4684
:1019E000E3B2002B35D04EF21873C1F6FF73D3E982
:1019F0000023D7E9020103F071FE02460B461046B0
:101A000019464EF22873C1F6FF73D3E9002300F0A4
:101A100077F902460B46C7E906234FF008004FF05E
:101A200001014FF000024FF00003FFF7ADF94FF056
:101A300007004FF00201D7E90623FFF7A5F94FF0A1
:101A400006004FF000014FF000024FF00003FFF7D7
:101A50009BF94EF22073C1F6FF73D3E900234FF0D8
:101A600000010C46D7E9020104F072FA0346002B8C
:101A700002D04FF001031C46E3B2002B35D04EF2EA
:101A80002073C1F6FF73D3E90023D7E9020103F005
:101A900025FE02460B46104619464EF22873C1F643
:101AA000FF73D3E9002300F02BF902460B46C7E988
:101AB00008234FF008004FF001014FF000024FF0F3
:101AC0000003FFF761F94FF007004FF001014FF0FD
:101AD00000024FF00003FFF757F94FF006004FF0F8
:101AE0000201D7E90823FFF74FF94EF24073C1F620
:101AF000FF73D3E900234FF000010C46D7E9000142
:101B000004F012FA0346002B02D04FF001031C46EA
:101B1000E3B2002B35D04EF23073C1F6FF73D3E938
:101B20000023D7E9000103F0D9FD02460B46104619
:101B300019464EF25073C1F6FF73D3E9002300F04B
:101B4000DFF802460B46C7E90A234FF005004FF0C5
:101B50000201D7E90A23FFF717F94FF004004FF00D
:101B600000014FF000024FF00003FFF70DF94FF0B6
:101B700003004FF000014FF000024FF00003FFF7A9
:101B800003F94EF24073C1F6FF73D3E900234FF01F
:101B900000010C46D7E9000104F0DAF90346002BF6
:101BA00002D04FF001031C46E3B2002B4BD04EF2A3
:101BB0004873C1F6FF73D3E900234FF000010C46D0
:101BC000D7E9000104F0B0F90346002B02D04FF032
:101BD00001031C46E3B2002B35D04EF24073C1F630
:101BE000FF73D3E90023D7E9000103F077FD024634
:101BF0000B46104619464EF25073C1F6FF73D3E9F7
:101C0000002300F07DF802460B46C7E90C234FF095
:101C100005004FF001014FF000024FF00003FFF705
:101C2000B3F84FF004004FF00201D7E90C23FFF79F
:101C3000ABF84FF003004FF000014FF000024FF0FF
:101C40000003FFF7A1F84EF24873C1F6FF73D3E922
:101C500000234FF000010C46D7E9000104F078F9A9
:101C60000346002B02D04FF001031C46E3B2002BC9
:101C700035D04EF24873C1F6FF73D3E90023D7E99C
:101C8000000103F02BFD02460B46104619464EF2AA
:101C90005073C1F6FF73D3E9002300F031F8024618
:101CA0000B46C7E90E234FF005004FF001014FF03E
:101CB00000024FF00003FFF767F84FF004004FF009
:101CC00001014FF000024FF00003FFF75DF84FF005
:101CD00003004FF00201D7E90E23FFF755F84EF24B
:101CE0005873C1F6FF731B6803F101024EF258737B
:101CF000C1F6FF731A6007F14407BD4690BD00BFEF
:101D000090B58BB000AFC7E90201C7E900234FF0DF
:101D100000031C46D7E902014FF000024FF0000318
:101D200004F002F90346002B02D04FF001031C46D9
:101D3000E3B2002B05D04FF000024FF00003C7E9DB
:101D40000223D7E90201D7E9002303F0A5FF0246E9
:101D50000B46C7E9042312A3D3E90023C7E90623EE
:101D6000D7E90601D7E9042303F06CFE02460B46CF
:101D7000104619464FF000024FF0804303F59203DE
:101D800003F0AEFC02460B46C7E90823D7E9082357
:101D90001046194607F12C07BD4690BDAFF30080F1
:101DA0000000000000B08D4080B483B000AF7860C8
:101DB0004EF26873C1F6FF737A681A604EF263736D
:101DC000C1F6FF734FF001021A7007F10C07BD4610
:101DD00080BC7047F0B59DB002AF4EF2AD73C1F656
:101DE000FF731B78052B00F2B98101A252F823F092
:101DF000091E0000251E0000931E00003D1F00006C
:101E0000B11F00000720000001F04EFF4FF001005D
:101E100002F010FF4EF2AD73C1F6FF734FF00102F6
:101E20001A709BE14EF2AE73C1F6FF731B78012B63
:101E30000AD04FF0010002F0FDFE4EF2AE73C1F683
:101E4000FF734FF001021A704EF2A673C1F6FF73D2
:101E50001B78012B06D14EF2A673C1F6FF734FF02B
:101E600000021A704EF2A773C1F6FF731B78012BA4
:101E700040F06D814EF2AD73C1F6FF734FF0020278
:101E80001A704EF2A773C1F6FF734FF000021A707A
:101E900064E14EF2AE73C1F6FF731B78022B14D0CF
:101EA0004FF0000002F0C6FE4EF2B073C1F6FF73B1
:101EB0001A684EF2B473C1F6FF731A604EF2AE7335
:101EC000C1F6FF734FF002021A704EF2B073C1F602
:101ED000FF731B68184603F03FFD04460D464EF2A3
:101EE000B473C1F6FF731B68184603F035FD024654
:101EF0000B46104619464FF000024FF07E5303F593
:101F0000E00303F0EDFB02460B464FF000010E46E6
:101F10002046294604F01CF80346002B02D04FF05F
:101F200001031E46F3B2002B00F013814EF2AD7395
:101F3000C1F6FF734FF003021A700FE14EF2AE7359
:101F4000C1F6FF731B78032B06D04EF2AE73C1F6B9
:101F5000FF734FF003021A704EF2A773C1F6FF73BE
:101F60001B78012B06D14EF2A773C1F6FF734FF019
:101F700000021A704EF2A873C1F6FF731B78012B92
:101F800006D14EF2AD73C1F6FF734FF004021A7022
:101F90004EF2A673C1F6FF731B78012B40F0DB8075
:101FA0004EF2A673C1F6FF734FF000021A70D5E02F
:101FB0004EF2AE73C1F6FF731B78042B0ED04EF2B7
:101FC0006C70C1F6FF704FF0080102F079F84EF224
:101FD000AE73C1F6FF734FF004021A7002F040FCBA
:101FE0000346002B00F0B9804EF2A873C1F6FF73D0
:101FF0004FF000021A704EF2AD73C1F6FF734FF04E
:1020000005021A70AAE04EF2AE73C1F6FF731B7898
:10201000052B10D04EF2B073C1F6FF731A684EF262
:10202000B873C1F6FF731A604EF2AE73C1F6FF7358
:102030004FF005021A7000F0A1F84EF26073C1F67D
:10204000FF731B78002B14D04EF26073C1F6FF7340
:102050004FF000021A704EF26173C1F6FF734FF039
:1020600001021A704EF2AD73C1F6FF734FF0030216
:102070001A704EF2B073C1F6FF731B68184603F076
:102080006BFC04460D464EF2B873C1F6FF731B6835
:10209000184603F061FC02460B46104619464FF005
:1020A00000024FF0804303F5101303F019FB0246C2
:1020B0000B464FF000010E462046294603F048FF2C
:1020C0000346002B02D04FF001031E46F3B2002B53
:1020D00044D04EF2B073C1F6FF731A684EF2B87373
:1020E000C1F6FF731B68C3EB0203184603F034FC10
:1020F00002460B46104619464FF000024FF080434F
:1021000003F5101303F09EFC02460B4607F1040191
:10211000CDE9002308464FF064014AF61C62C0F284
:10212000000204F07BF807F10403184602F016FCE5
:102130004EF26473C1F6FF734FF001021A704EF253
:10214000AD73C1F6FF734FF003021A7006E000BFD3
:1021500004E000BF02E000BF00E000BF4EF2B07339
:10216000C1F6FF731B6803F101024EF2B073C1F6B2
:10217000FF731A6007F16C07BD46F0BD80B500AF74
:1021800073E101F043FE03461A464EF2A973C1F60D
:10219000FF731A704EF2AA73C1F6FF731B78062BF9
:1021A00000F23D8101A252F823F000BFC9210000D6
:1021B0004B220000C32200003B23000099230000B3
:1021C000F1230000012400004EF2AB73C1F6FF734F
:1021D0004FF000021A704EF2AC73C1F6FF734FF06D
:1021E00000021A704EF26873C1F6FF731B681A780A
:1021F0004EF2A973C1F6FF731B789A4240F0178123
:102200004EF2AB73C1F6FF731B781A464EF2A973F8
:10221000C1F6FF7319784EF27473C1F6FF739954C7
:102220004EF2AB73C1F6FF731B7803F10103DAB210
:102230004EF2AB73C1F6FF731A704EF2AA73C1F679
:10224000FF734FF001021A70F4E04EF26873C1F6AA
:10225000FF731B6803F101031A784EF2A973C1F6EC
:10226000FF731B789A4224D14EF2AB73C1F6FF7311
:102270001B781A464EF2A973C1F6FF7319784EF215
:102280007473C1F6FF7399544EF2AB73C1F6FF73CA
:102290001B7803F10103DAB24EF2AB73C1F6FF73A0
:1022A0001A704EF2AA73C1F6FF734FF002021A7051
:1022B000C0E04EF2AA73C1F6FF734FF000021A702D
:1022C000B8E04EF26873C1F6FF731B6803F10203B6
:1022D0001A784EF2A973C1F6FF731B789A4224D183
:1022E0004EF2AB73C1F6FF731B781A464EF2A97318
:1022F000C1F6FF7319784EF27473C1F6FF739954E7
:102300004EF2AB73C1F6FF731B7803F10103DAB22F
:102310004EF2AB73C1F6FF731A704EF2AA73C1F698
:10232000FF734FF003021A7084E04EF2AA73C1F6F5
:10233000FF734FF000021A707CE04EF2AA73C1F6F0
:10234000FF734FF004021A704EF2AB73C1F6FF73C5
:102350001B781A464EF2A973C1F6FF7319784EF234
:102360007473C1F6FF7399544EF2A973C1F6FF73EB
:102370001A784EF2AC73C1F6FF731A704EF2AB735B
:10238000C1F6FF731B7803F10103DAB24EF2AB73AF
:10239000C1F6FF731A704DE04EF2AB73C1F6FF73D6
:1023A0001B781A464EF2A973C1F6FF7319784EF2E4
:1023B0007473C1F6FF7399544EF2AB73C1F6FF7399
:1023C0001B7803F10103DAB24EF2AB73C1F6FF736F
:1023D0001A704EF2AB73C1F6FF731B78082B28D925
:1023E0004EF2AA73C1F6FF734FF006021A7021E095
:1023F0004EF2AA73C1F6FF734FF006021A7019E08D
:102400004EF26073C1F6FF734FF001021A704EF284
:10241000AA73C1F6FF734FF000021A700AE04EF281
:10242000AA73C1F6FF734FF000021A7002E000BFFA
:1024300000E000BF4EF2AB73C1F6FF731B78322B86
:1024400013D94AF64C60C0F2000002F087FA4EF24F
:10245000AB73C1F6FF734FF000021A704EF2627355
:10246000C1F6FF734FF001021A7001F04BFD0346F5
:10247000002B7FF486AE80BD80B400AF4EF2A77310
:10248000C1F6FF734FF001021A70BD4680BC704761
:1024900080B400AF4EF2A673C1F6FF734FF0010295
:1024A0001A70BD4680BC704780B483B000AF03464D
:1024B000FB71FA794EF27473C1F6FF739B5C184698
:1024C00007F10C07BD4680BC704700BF80B582B0E5
:1024D00000AF78604EF26C70C1F6FF7079684FF013
:1024E000080203F069FD4EF2A873C1F6FF734FF0C6
:1024F00001021A7007F10807BD4680BD80B483B0A1
:1025000000AF4EF26473C1F6FF731B78FB714EF29D
:102510006473C1F6FF734FF000021A70FB7918461E
:1025200007F10C07BD4680BC704700BF80B483B084
:1025300000AF4EF26173C1F6FF731B78FB714EF270
:102540006173C1F6FF734FF000021A70FB791846F1
:1025500007F10C07BD4680BC704700BF054B1C78D7
:1025600044F001041C70044B1A78D2B2034B1A7069
:10257000FDF7E6FEE8460040F8460040BC76004025
:1025800080B582B000AF4EF60C53CEF2000340F29D
:102590000042C0F2FA521A604EF61453CEF2000313
:1025A0004EF61452CEF20002126842F400721A6023
:1025B0004FF000037B6014E07A687B684FEA830188
:1025C00040F20003C0F200030B441B6819464EF2B0
:1025D0000003C1F6FF7343F822107B6803F1010387
:1025E0007B607B682F2BE7D947F2BC63C4F2000302
:1025F0001B78DAB24EF6A003C1F6FF731A704EF6DE
:102600000853CEF200034EF20002C1F6FF721A60C8
:1026100002F0D2FE00F034F807F10807BD4680BD95
:1026200080B485B000AF0346FB7145F22013C4F2BD
:1026300000031B78DBB203F07F03FB7345F220132A
:10264000C4F20003FA794FEAC212D1B2FA7B41EA2E
:102650000202D2B21A7007F11407BD4680BC70475F
:1026600080B400AF45F22113C4F200031B78DBB243
:102670004FEAD313DBB21846BD4680BC704700BF9B
:1026800080B483B000AF4EF2BD73C1F6FF734FF05C
:102690007F021A704EF2BC73C1F6FF736FF07F02B7
:1026A0001A704FF07F03FB710FE0FB794FEAC30311
:1026B00003F1804303F5F043FA7902F1FF32D2B21D
:1026C0001A70FB7903F1FF33FB71FB79002BECD11E
:1026D000FB794FEAC30303F1804303F5F0434FF066
:1026E00000021A7007F10C07BD4680BC704700BF9E
:1026F00080B483B000AF0346FB7101BE07F10C0745
:10270000BD4680BC704700BF80B582B000AF786026
:102710000BE04EF21C13C1F6FF731B68184602F063
:10272000A3FF7B68A3F500437B607B68B3F5004F94
:10273000EFD84EF21413C1F6FF731B687A6802FBE0
:1027400003F3184602F090FF07F10807BD4680BD6D
:1027500080B582B000AF0346FB80FA884EF21813B2
:10276000C1F6FF731B7803FB02F3184602F07CFFEF
:1027700007F10807BD4680BD80B584B000AF0346B1
:102780003960FB714EF60853CEF200031B68FB6004
:10279000FB791F2B07D9FB791F2B8CBF002301234B
:1027A0001846FFF7A5FFFB7903F01F0303F11003A1
:1027B0004FEA8302FB6813441B68BB60FB7903F09C
:1027C0001F0303F110034FEA8302FB6813443A68C6
:1027D0001A60BB68184607F11007BD4680BD00BFF0
:1027E00080B582B000AF02460B46FA71BB71BB796F
:1027F000072B07D9BB79072B8CBF00230123184671
:10280000FFF776FFFB791F2B07D9FB791F2B8CBFB6
:10281000002301231846FFF76BFFFB7903F01F032A
:1028200003F1604303F56443BA794FEA4212D2B22E
:102830001A7007F10807BD4680BD00BF80B584B09F
:1028400000AF0346FB71FB791F2B07D9FB791F2BC8
:102850008CBF002301231846FFF74AFF4EF20013F6
:10286000CEF20003FB60FB7903F01F034FF001027F
:1028700002FA03F31A46FB681A6007F11007BD4617
:1028800080BD00BF80B584B000AF0346FB71FB790B
:102890001F2B07D9FB791F2B8CBF00230123184660
:1028A000FFF726FF4EF28013CEF20003FB60FB79A8
:1028B00003F01F034FF0010202FA03F31A46FB680C
:1028C0001A6007F11007BD4680BD00BF80B584B017
:1028D00000AF0346FB71FB791F2B07D9FB791F2B38
:1028E0008CBF002301231846FFF702FF4EF280231E
:1028F000CEF20003FB60FB7903F01F034FF00102EF
:1029000002FA03F31A46FB681A6007F11007BD4686
:1029100080BD00BF80B485B000AF0346FB7145F2B7
:10292000C013C4F200031B78DBB223F01003FB7367
:1029300045F2C013C4F20003FA794FEA0212D2B290
:1029400002F01002F97B42EA0102D2B21A7007F1DA
:102950001407BD4680BC704780B400AF45F2C11378
:10296000C4F200031B78DBB203F010034FEA131329
:10297000DBB21846BD4680BC704700BF80B485B04E
:1029800000AF0346FB7145F2C013C4F200031B788D
:10299000DBB223F02003FB7345F2C013C4F2000343
:1029A000FA794FEA4212D2B202F02002F97B42EAEF
:1029B0000102D2B21A7007F11407BD4680BC7047FD
:1029C00080B400AF45F2C113C4F200031B78DBB240
:1029D00003F020034FEA5313DBB21846BD4680BC18
:1029E000704700BF80B485B000AF0346FB7145F26D
:1029F0005013C4F200031B78DBB223F02003FB73F7
:102A000045F25013C4F20003FA794FEA4212D2B2EF
:102A100002F02002F97B42EA0102D2B21A7007F1F9
:102A20001407BD4680BC704780B400AF45F2511317
:102A3000C4F200031B78DBB203F020034FEA531308
:102A4000DBB21846BD4680BC704700BF80B485B07D
:102A500000AF0346FB7145F25013C4F200031B782C
:102A6000DBB223F04003FB7345F25013C4F20003C2
:102A7000FA794FEA8212D2B202F04002F97B42EABE
:102A80000102D2B21A7007F11407BD4680BC70472C
:102A900080B400AF45F25113C4F200031B78DBB2DF
:102AA00003F040034FEA9313DBB21846BD4680BCE7
:102AB000704700BF80B485B000AF0346FB7145F29C
:102AC0005013C4F200031B78DBB203F07F03FB73E7
:102AD00045F25013C4F20003FA794FEAC212D1B2A0
:102AE000FA7B41EA0202D2B21A7007F11407BD461E
:102AF00080BC704780B400AF45F25113C4F20003AC
:102B00001B78DBB24FEAD313DBB21846BD4680BC5C
:102B1000704700BF80B485B000AF0346FB7145F23B
:102B20005013C4F200031B78DBB223F01003FB73D5
:102B300045F25013C4F20003FA794FEA0212D2B2FE
:102B400002F01002F97B42EA0102D2B21A7007F1D8
:102B50001407BD4680BC704780B400AF45F25113E6
:102B6000C4F200031B78DBB203F010034FEA131327
:102B7000DBB21846BD4680BC704700BF80B485B04C
:102B800000AF0346FB7145F2C013C4F200031B788B
:102B9000DBB203F07F03FB7345F2C013C4F2000302
:102BA000FA794FEAC212D1B2FA7B41EA0202D2B2FA
:102BB0001A7007F11407BD4680BC704780B400AF9F
:102BC00045F2C113C4F200031B78DBB24FEAD31302
:102BD000DBB21846BD4680BC704700BF80B485B0EC
:102BE00000AF0346FB7145F2C013C4F200031B782B
:102BF000DBB223F04003FB7345F2C013C4F20003C1
:102C0000FA794FEA8212D2B202F04002F97B42EA2C
:102C10000102D2B21A7007F11407BD4680BC70479A
:102C200080B400AF45F2C113C4F200031B78DBB2DD
:102C300003F040034FEA9313DBB21846BD4680BC55
:102C4000704700BF80B582B000AF00F00DFA4FF0C2
:102C5000020000F02DFC02F00FFD0346FB7146F26E
:102C60009A43C4F2000346F29A42C4F20002127878
:102C7000D2B242F00302D2B21A7046F29B43C4F2BF
:102C8000000346F29B42C4F200021278D2B242F034
:102C90000302D2B21A70FB79184602F0F1FC46F238
:102CA0002A43C4F200034FF434421A8046F24A43E6
:102CB000C4F200034FF6FF721A8046F28C43C4F24E
:102CC00000034FF007021A7002F0D6FC0346FB71B6
:102CD00046F29543C4F2000346F29542C4F2000264
:102CE0001278D2B242F00302D2B21A7046F2934383
:102CF000C4F2000346F29342C4F200021278D2B248
:102D000042F00302D2B21A70FB79184602F0B8FC06
:102D100046F22543C4F200034FF0FF321A7046F228
:102D20004543C4F200034FF0FF321A7046F20543E8
:102D3000C4F200034FF0FF321A7046F22343C4F28C
:102D400000034FF0FF321A7046F25343C4F20003FF
:102D50004FF0FF321A7046F24343C4F200034FF0C3
:102D6000FF321A704FF00D00FFF78CFD4FF00D0091
:102D700043F64121C0F20001FFF7FEFC4FF00D00C9
:102D80004FF00701FFF72CFD00F05EFF4FF004004D
:102D900002F0BCFA4FF0050002F0B8FA4FF006005E
:102DA00002F0B4FA46F27B43C4F2000346F27B42DF
:102DB000C4F200021278D2B242F00402D2B21A7007
:102DC00000F092FE00F088FA07F10807BD4680BDCA
:102DD00080B582B000AF02F04FFC0346FB7146F2B3
:102DE0009C43C4F2000346F29C42C4F200021278F3
:102DF000D2B242F02002D2B21A7000F041FF00F0CD
:102E0000B1FE00F083FA44F2BB33C4F2000344F293
:102E1000BB32C4F200021278D2B242F01002D2B237
:102E20001A7044F2AB33C4F2000344F2AB32C4F282
:102E300000021278D2B242F01002D2B21A7045F6F5
:102E40007003C4F2000345F67002C4F20002127867
:102E5000D2B242F00102D2B21A70FB79184602F0E7
:102E60000FFC4FF00D00FFF7E9FC46F27B43C4F284
:102E7000000346F27B42C4F200021278D2B26FEA3B
:102E800042626FEA5262D2B21A7007F10807BD4679
:102E900080BD00BF80B500AF4EF2C473C1F6FF73B2
:102EA0001B78002B08D1FFF7CDFE4EF2C473C1F69C
:102EB000FF734FF001021A70FFF78AFF80BD00BF59
:102EC00080B485B000AF0346FB71FB7903F10103C9
:102ED000FB71FB79042B18D0FB794FEAD303BB734A
:102EE000FB7903F007034FF0010202FA03F3FB73CF
:102EF000BA7B4EF22013C1F6FF739A5CFB7B02EAA9
:102F00000303DBB2002BE0D000E000BFFB791846E2
:102F100007F11407BD4680BC704700BF80B584B080
:102F200000AF0346FB71FA794AF6B463C0F20003BE
:102F30009B5CFB73FA794AF6AC63C0F200039B5CBE
:102F4000184600F025FA46F25543C4F20003F97B17
:102F50004AF6B062C0F20002525C1A70FA794EF280
:102F60002413C1F6FF739B5C184600F087FA07F143
:102F70001007BD4680BD00BF80B582B000AF0346DC
:102F8000FB714EF2C573C1F6FF734FF000021A7069
:102F90004EF2C673C1F6FF73FA791A704EF2C5731A
:102FA000C1F6FF736FF07E021A70FB79184600F0CD
:102FB000F5F807F10807BD4680BD00BF80B500AF3A
:102FC0004EF2C573C1F6FF734FF000021A704EF255
:102FD000C673C1F6FF734FF0FF321A704EF2C6731C
:102FE000C1F6FF731B78DBB21846FFF769FF034693
:102FF0001A464EF2C673C1F6FF731A704EF2C673CC
:10300000C1F6FF731B78DBB2032B16D84EF2C573E3
:10301000C1F6FF731B78DBB243F00103DAB24EF264
:10302000C573C1F6FF731A704EF2C673C1F6FF7313
:103030001B78DBB2184600F0B1F880BD80B400AF59
:103040004EF2C573C1F6FF731B78DBB203F00103C8
:10305000DBB2002B02D04FF0010301E04FF0000380
:103060001846BD4680BC704780B582B000AF4FF0B7
:103070000003FB7107E0FB79184600F04BF8FB7981
:1030800003F10103FB71FB79032BF4D907F1080766
:10309000BD4680BD80B584B000AF0346FB71FA79B0
:1030A0004AF68463C0F200039B5CBB73FA794AF66C
:1030B0008863C0F200039B5CFB73FA794AF6746381
:1030C000C0F2000353F822304FF009021A70BB7BA4
:1030D0000F2B02D14FF00703BB73BA7B4AF68C6308
:1030E000C0F2000353F82220B97B4AF68C63C0F289
:1030F000000353F821301978FB7B41EA0303DBB26C
:103100001370FB79184602F001F907F11007BD466C
:1031100080BD00BF80B584B000AF0346FB71FA7973
:103120004AF68463C0F200039B5CBB73FA794AF6EB
:103130008863C0F200039B5CFB73FB79184602F0C6
:103140000DF9BB7B0F2B02D14FF00703BB73BA7B8A
:103150004AF68C63C0F2000353F82220B97B4AF68A
:103160008C63C0F2000353F821301B781946FB7BB7
:103170006FEA0303DBB201EA0303DBB2DBB21370D5
:10318000FA794AF67463C0F2000353F822304FF024
:1031900008021A7007F11007BD4680BD80B582B0E5
:1031A00000AF0346FB71FB791846FFF7B7FE46F206
:1031B0007B43C4F2000346F27B42C4F20002127861
:1031C000D2B242F00102D2B21A7045F67003C4F2D4
:1031D000000345F67002C4F200021278D2B202F087
:1031E000FE021A70FB791846FFF754FF46F27B4344
:1031F000C4F2000346F27B42C4F200021278D2B25B
:1032000042F00202D2B21A7007F10807BD4680BD33
:1032100080B582B000AF0346FB7146F27B43C4F237
:10322000000346F27B42C4F200021278D2B202F0EE
:10323000FC021A70FA7946F21343C4F200031B78B9
:10324000DBB24FEA032399B24EF2CC73C1F6FF739F
:1032500023F81210FA79F9794EF2CC73C1F6FF73A4
:1032600033F8111046F20343C4F200031B78DBB2BB
:1032700041EA030399B24EF2CC73C1F6FF7323F80F
:103280001210FA79F9794EF2CC73C1F6FF7333F864
:1032900011306FEA030399B24EF2CC73C1F6FF739B
:1032A00023F81210FB791846FFF734FF4FF00000A7
:1032B00000F06EF845F67003C4F2000345F67002A4
:1032C000C4F200021278D2B242F00102D2B21A70F5
:1032D00007F10807BD4680BD80B500AF45F6200365
:1032E000C4F200034FF010021A7045F62103C4F235
:1032F00000034FF002021A704FF0040000F094F83F
:103300004FF0000000F044F880BD00BF80B400AF73
:103310004EF2C773C1F6FF731B7803F00103DBB2F3
:10332000002B16D04EF2C773C1F6FF731B781A46F6
:1033300002F0FE024EF2C773C1F6FF731A7045F633
:103340002003C4F200034EF2C872C1F6FF72127875
:103350001A7044F2A833C4F2000344F2A832C4F253
:1033600000021278D2B242F00102D2B21A7044F2D4
:10337000B833C4F2000344F2B832C4F20002127847
:10338000D2B242F00102D2B21A70BD4680BC704780
:1033900080B584B000AF0346FB7102F06DF90346BF
:1033A000FB7345F68033C4F20003FA791A7045F6D0
:1033B0008033C4F20003FA791A70FB7B184602F0DE
:1033C0005FF907F11007BD4680BD00BF80B483B030
:1033D00000AF45F62003C4F200031B78DBB203F014
:1033E0000C034FEA5303FB7145F62103C4F20003BB
:1033F0001B78DBB203F00403002B03D0FB7903F14D
:103400000103FB7144F20863C4F20003FA7902F18C
:10341000924202F58E721278D2B21A7007F10C073E
:10342000BD4680BC704700BF80B582B000AF034688
:10343000FB7145F62003C4F2000345F62002C4F2F6
:1034400000021278D2B202F0F3021A7045F620039D
:10345000C4F2000345F62002C4F200021278D1B291
:10346000FA7902F00C0241EA0202D2B21A70FFF7B6
:10347000ADFF07F10807BD4680BD00BF80B483B033
:1034800000AF0346FB7146F22C43C4F20003FA7905
:103490001A7046F23C43C4F20003FA794FEA520232
:1034A000D2B21A7007F10C07BD4680BC704700BF4E
:1034B00080B483B000AF0346FB71FB79012B0DD1C3
:1034C00046F27B43C4F2000346F27B42C4F20002A0
:1034D0001278D2B202F0EF021A700DE046F27B438E
:1034E000C4F2000346F27B42C4F200021278D2B268
:1034F00042F01002D2B21A7007F10C07BD4680BC30
:10350000704700BF80B485B000AF0346FB71FA7905
:103510004AF6B463C0F200039B5CFB73FA79F97955
:103520004EF2CC73C1F6FF7333F811104EF2D47320
:10353000C1F6FF7323F81210FA794EF2DC73C1F66C
:10354000FF734FF000019954FA794EF2E073C1F61F
:10355000FF734FF000019954FA7BF97B4AF6C4637C
:10356000C0F20003595C4EF2E873C1F6FF73995440
:10357000FA79F9794EF2CC73C1F6FF7333F8111072
:103580004EF6A803C1F6FF7323F8121007F11407D3
:10359000BD4680BC704700BF80B582B000AF034617
:1035A000FB71FB791846FFF7E7FCFFF747FD034681
:1035B000002BFAD1FB791846FFF7A4FF07F10807A3
:1035C000BD4680BD80B582B000AF4FF00003FB71F7
:1035D00007E0FB791846FFF7DFFFFB7903F10103F2
:1035E000FB71FB79032BF4D907F10807BD4680BDB9
:1035F00080B586B000AF0346FB71FA794AF6B46332
:10360000C0F200039B5CBB75BA7D4AF6BC63C0F296
:1036100000039B5CFB75FA794EF2CC73C1F6FF7325
:1036200033F81230BB82FA794EF6A803C1F6FF7365
:1036300033F81230BA8A1046194600F0E3F903460F
:10364000BB82FA794EF6A803C1F6FF73B98A23F854
:103650001210FA794EF2D473C1F6FF7333F81230B8
:10366000BA8A9A420ED3FA794EF2D473C1F6FF7336
:1036700033F81230BA8AC3EB02037B824FF00103A6
:10368000BB750DE0FA794EF2D473C1F6FF7333F8CF
:103690001220BB8AC3EB02037B824FF00003BB7591
:1036A000BB7D002B26D17B8A142B23D9FA794EF6C9
:1036B000A403C1F6FF739B5C042B0CD9FB7918465D
:1036C000FFF720FFFA794EF6A403C1F6FF734FF01F
:1036D0000001995456E0FA794EF6A403C1F6FF733F
:1036E0009B5C03F10103D9B24EF6A403C1F6FF734C
:1036F000995447E0FB7D7A8A9A4205D97B8A132B3D
:1037000040D8BB7D002B3DD1FA794EF2D473C1F67F
:10371000FF7333F812304FEA0323FB60FA794EF25D
:10372000DC73C1F6FF739B5CFA6842EA0303FB603B
:10373000BB8AFA681344FB60FA794EF2D473C1F67F
:10374000FF7333F81230FA68C3EB0203FB60FA79B7
:10375000FB684FEA132399B24EF2D473C1F6FF739C
:1037600023F81210FA79FB68D9B24EF2DC73C1F675
:10377000FF739954FA794EF6A403C1F6FF734FF024
:1037800000019954FB7D7A8A9A4217D9BB7D002BA0
:1037900014D07B8AFF2B08D9FA794EF2E073C1F678
:1037A000FF734FF0FF31995410E0FA797B8AD9B258
:1037B0004EF2E073C1F6FF73995407E0FA794EF2C6
:1037C000E073C1F6FF734FF00001995407F1180739
:1037D000BD4680BD80B582B000AF4FF000037B7165
:1037E0001FE07B794FEAD303BB717B7903F00703BA
:1037F0004FF0010202FA03F3FB71BA794EF2201383
:10380000C1F6FF739A5CFB7902EA0303DBB2002B7B
:1038100003D07B791846FFF7EBFE7B7903F10103B8
:103820007B717B79032BDCD907F10807BD4680BD8E
:1038300080B485B000AF0346FB71FB794FEAD30338
:10384000BB72FB7903F007034FF0010202FA03F3A6
:10385000FB72FA794AF6B463C0F200039B5C3B73D7
:103860003A7B4AF6B863C0F200039B5C7B733A7BF9
:103870004AF6C063C0F200039B5CBB733A7B4AF616
:10388000C463C0F200039B5CFB733B7B7B72BA7A20
:103890004EF2E473C1F6FF739A5CFB7A02EA03030B
:1038A000DBB2002B29D0FA794EF2E073C1F6FF7338
:1038B0009B5C1A46797BBB7BC3EB01039A4256DAC9
:1038C000BA7AB97A4EF2E473C1F6FF735B5C1946BB
:1038D000FB7A6FEA0303DBB201EA0303DBB2D9B27E
:1038E0004EF2E473C1F6FF7399547A7A4EF2E8739C
:1038F000C1F6FF73F97B99543CE0FA794EF2E0731C
:10390000C1F6FF739B5C1A46797BBB7B0B449A42E2
:1039100025DD7A7A4EF2E873C1F6FF739B5C012BCA
:103920008CBF00210121C9B203F1FF33D8B24EF29E
:10393000E873C1F6FF73985400291AD0BA7AB97A9D
:103940004EF2E473C1F6FF73595CFB7A41EA03035C
:10395000D9B24EF2E473C1F6FF7399540AE07A7A51
:103960004EF2E873C1F6FF73F97B995402E000BF91
:1039700000E000BFBA7A4EF2E473C1F6FF739A5CBE
:10398000FB7A02EA0303DBB2002B02D04FF0010303
:1039900001E04FF00003184607F11407BD4680BC54
:1039A000704700BF80B584B000AF0346FB71FA7961
:1039B0004AF6C863C0F200039B5C7B73FA794AF64F
:1039C000CC63C0F200039A5C7B7B1344BB734FF063
:1039D0000003FB737B7B1846FFF72AFF0346002B8F
:1039E00002D04FF00103FB737B7B03F101037B7378
:1039F0007A7BBB7B9A42EDD3FB7B184607F110071D
:103A0000BD4680BD80B485B000AF02460B46FA804B
:103A1000BB80FA88BB881344FB60BB884FEA430332
:103A2000FA681344FB60FB684FEA9303FB60FB6892
:103A30009BB2184607F11407BD4680BC704700BF13
:103A400080B500AF4EF2C673C1F6FF731B78DBB2D0
:103A50001846FFF7DDFB4EF2C573C1F6FF731B7806
:103A6000DBB25BB2002B0EDA4EF2C573C1F6FF7308
:103A70001B78DBB21A4602F0FE024EF2C573C1F6A5
:103A8000FF731A702FE04EF2C673C1F6FF731B78F6
:103A9000DBB21846FFF714FA03461A464EF2C67315
:103AA000C1F6FF731A704EF2C673C1F6FF731B782E
:103AB000DBB2032B09D84EF2C673C1F6FF731B7835
:103AC000DBB21846FFF76AFB0DE04EF2C573C1F694
:103AD000FF731B78DBB21A4602F0FE024EF2C5738A
:103AE000C1F6FF731A7080BD80B500AF4FF00000C3
:103AF00000F072F845F64003C4F2000345F64002B8
:103B0000C4F200021278D2B242F02002D2B21A708D
:103B100045F64003C4F2000345F64002C4F2000239
:103B20001278D2B242F00802D2B21A7045F6C72318
:103B3000C4F2000345F6C722C4F200021278D2B2E2
:103B400002F0E7021A7045F6C723C4F2000345F6F7
:103B5000C722C4F200021278D2B242F01002D2B2EE
:103B60001A7080BD80B400AF44F2A733C4F20003E2
:103B700044F2A732C4F200021278D2B242F001023B
:103B8000D2B21A7044F2B733C4F2000344F2B7322F
:103B9000C4F200021278D2B242F00102D2B21A701C
:103BA0004EF2F673C1F6FF731B78012B10D145F668
:103BB0004003C4F200034EF2F472C1F6FF72527871
:103BC0001A704EF2F673C1F6FF734FF000021A70CE
:103BD000BD4680BC704700BF80B483B000AF0346D1
:103BE000FB7145F64003C4F2000345F64002C4F2FF
:103BF00000021278D2B2114601F0FC01FA7902F00B
:103C0000030241EA0202D2B21A70FB79012B0BD1F6
:103C100044F20063C4F2000340F21012C4F6001232
:103C20001278D2B21A700AE044F20063C4F20003C0
:103C300040F2A912C4F600121278D2B21A7007F13B
:103C40000C07BD4680BC704780B500AF00F002F89D
:103C500080BD00BF80B582B000AF4FF00003FB71A4
:103C600007E0FB79184601F079FBFB7903F10103CA
:103C7000FB71FB79062BF4D907F10807BD4680BD1F
:103C800080B400AF44F2A233C4F2000344F2A23283
:103C9000C4F200021278D2B242F00102D2B21A701B
:103CA000BD4680BC704700BF80B500AF4EF2FE73CA
:103CB000C1F6FF731B78002B08D100F00BF84EF211
:103CC000FE73C1F6FF734FF001021A7000F03EF868
:103CD00080BD00BF80B500AF4FF0140044F2051165
:103CE000C0F20001FEF748FD4FF014004FF007014D
:103CF000FEF776FD46F28643C4F200034FF0200241
:103D00001A704FF0070044F2F111C0F20001FEF703
:103D100033FD4FF007004FF00701FEF761FD46F25B
:103D20002143C4F200034FF007021A7046F23143F8
:103D3000C4F200034FF048021A7046F28243C4F204
:103D400000034FF002021A7080BD00BF80B582B040
:103D500000AF01F091FC0346FB7146F29543C4F2BB
:103D6000000346F29542C4F200021278D2B242F049
:103D70002002D2B21A7046F29643C4F2000346F211
:103D80009642C4F200021278D2B242F01002D2B2CD
:103D90001A704FF01400FEF751FD46F29243C4F240
:103DA000000346F29242C4F200021278D2B242F00C
:103DB0001002D2B21A704FF00700FEF73FFD44F236
:103DC000A233C4F2000344F2A232C4F20002127819
:103DD000D2B242F00402D2B21A70FB79184601F056
:103DE0004FFC07F10807BD4680BD00BF80B500AF9E
:103DF0004FF01400FEF722FD80BD00BF80B500AF7C
:103E00004FF01400FEF73EFD80BD00BF80B582B0CC
:103E100000AF4FF00003BB71FFF7F0FF4EF2FA73F3
:103E2000C1F6FF731B78DAB24EF2FB73C1F6FF7373
:103E30001B78DBB29A4207D14EF2FC73C1F6FF73D6
:103E40001B78DBB2002B39D04EF2FA73C1F6FF7348
:103E50001B78DBB21A464EF6E403C1F6FF739B5C97
:103E6000BB714EF2FA73C1F6FF731B78DBB203F13C
:103E70000103DAB24EF2FA73C1F6FF731A704EF212
:103E8000FA73C1F6FF731B78DBB2312B06D94EF201
:103E9000FA73C1F6FF734FF000021A704EF2FC7312
:103EA000C1F6FF731B78DBB2002B21D04EF2FC73FE
:103EB000C1F6FF734FF000021A701AE046F2664333
:103EC000C4F200031B78FB71FB7903F02003002B85
:103ED0000FD046F24643C4F200031B78BB71FB7956
:103EE00003F01E03002B04D04FF00003BB7100E071
:103EF00000BFFFF77BFFBB79184607F10807BD46F7
:103F000080BD00BF80B582B000AFFFF777FF4EF2F3
:103F1000FA73C1F6FF731B78DAB24EF2FB73C1F687
:103F2000FF731B78DBB29A420FD14EF2FC73C1F6DD
:103F3000FF731B78DBB2002B03D04FF03203FB7111
:103F400033E04FF00003FB712FE04EF2FA73C1F63D
:103F5000FF731B78DAB24EF2FB73C1F6FF731B7866
:103F6000DBB29A420FD24EF2FB73C1F6FF731B789D
:103F7000DAB24EF2FA73C1F6FF731B78DBB2C3EB11
:103F80000203FB7111E04EF2FB73C1F6FF731B7865
:103F9000DAB24EF2FA73C1F6FF731B78DBB2C3EBF1
:103FA0000203DBB203F13203FB71FFF71FFFFB7962
:103FB000184607F10807BD4680BD00BF80B500AFB9
:103FC0004FF00700FEF73AFC80BD00BF80B500AFA0
:103FD0004FF00700FEF756FC80BD00BF80B582B0F1
:103FE00000AF0346FB714EF2F973C1F6FF731B7805
:103FF0001A464EF2F873C1F6FF731B78DBB203F179
:10400000FF339A42EFD04EF2F973C1F6FF731A787C
:104010004EF2F873C1F6FF731B78DBB2C3EB0203F9
:10402000DBB2312BDFD0FFF7D1FF4EF2F873C1F6D0
:10403000FF731B78DAB24EF2F973C1F6FF731B7887
:104040009A4210D146F26243C4F200031B78DBB2FD
:1040500003F00403002B06D146F24243C4F20003EE
:10406000FA791A7026E04EF2F973C1F6FF731B78E5
:10407000312B06D94EF2F973C1F6FF734FF00002EF
:104080001A704EF2F973C1F6FF731B781A464EF69A
:10409000B003C1F6FF73F97999544EF2F973C1F682
:1040A000FF731B7803F10103DAB24EF2F973C1F624
:1040B000FF731A70FFF782FF07F10807BD4680BD46
:1040C00080B582B000AF78600B46FB704EF2FE7395
:1040D000C1F6FF731B78002B10D00CE07B681B78B7
:1040E0007A6802F101027A601846FFF777FFFB78E1
:1040F00003F1FF33FB70FB78002BEFD107F10807CA
:10410000BD4680BD80B483B000AF4FF00003FB71AB
:1041100046F26643C4F200031B78BB715EE04EF2C8
:10412000FB73C1F6FF731B78DBB21A4646F24643B7
:10413000C4F200031B78D9B24EF6E403C1F6FF7354
:1041400099544FF00103FB71FB79002B40D04EF2E4
:10415000FC73C1F6FF731B78DBB2002B06D04EF266
:10416000FD73C1F6FF734FF001021A704EF2FB733C
:10417000C1F6FF731B78DBB203F10103DAB24EF232
:10418000FB73C1F6FF731A704EF2FB73C1F6FF7337
:104190001B78DBB2312B06D94EF2FB73C1F6FF73ED
:1041A0004FF000021A704EF2FB73C1F6FF731B78DA
:1041B000DAB24EF2FA73C1F6FF731B78DBB29A42A1
:1041C00006D14EF2FC73C1F6FF734FF001021A7074
:1041D00046F26643C4F200031B78BB71BB7903F05F
:1041E0002003002B9BD107F10C07BD4680BC704714
:1041F00080B400AF2EE04EF2F873C1F6FF731B7867
:10420000DBB2312B06D94EF2F873C1F6FF734FF0D3
:1042100000021A7046F24243C4F200034EF2F872F2
:10422000C1F6FF721278D2B211464EF6B002C1F654
:10423000FF72525CD2B21A704EF2F873C1F6FF737D
:104240001B78DBB203F10103DAB24EF2F873C1F668
:10425000FF731A704EF2F873C1F6FF731B78DAB26F
:104260004EF2F973C1F6FF731B789A4209D046F2F9
:104270006243C4F200031B78DBB203F00403002B9B
:10428000B9D0BD4680BC704780B500AF4EF6000384
:10429000C1F6FF731B78002B08D100F00BF84EF627
:1042A0000003C1F6FF734FF001021A7000F030F8FE
:1042B00080BD00BF80B500AF4FF0100000F038FAAD
:1042C0004FF00A004FF00701FEF78AFA4FF00A009C
:1042D00044F2C161C0F20001FEF74EFA45F6011347
:1042E000C4F2000345F60112C4F200021278D2B201
:1042F00042F00602D2B21A704FF00C0000F0D6F86D
:104300004EF61813C1F6FF734FF000021A8080BDFD
:1043100080B582B000AF01F0AFF90346FB7144F203
:10432000AB33C4F2000344F2AB32C4F200021278A1
:10433000D2B242F00102D2B21A7044F2BB33C4F2DC
:10434000000344F2BB32C4F200021278D2B242F04F
:104350000102D2B21A7044F2A133C4F2000344F253
:10436000A132C4F200021278D2B242F00102D2B2FB
:104370001A7044F2B133C4F2000344F2B132C4F211
:1043800000021278D2B242F00102D2B21A7045F69F
:104390000313C4F200034FF040021A704FF0010003
:1043A00000F046F86FF03F03BB71BB7943F00803A0
:1043B000BB7145F60013C4F20003BA791A7045F6D2
:1043C0002733C4F2000345F62732C4F20002127804
:1043D000D2B242F00802D2B21A7045F60013C4F20B
:1043E000000345F60012C4F200021278D2B242F085
:1043F0002002D2B21A704FF00200FEF7A9F945F67A
:104400000013C4F2000345F60012C4F20002127851
:10441000D2B202F0DF021A704FF00A00FEF756FA2D
:10442000FB79184601F02CF907F10807BD4680BD5D
:1044300080B485B000AF0346FB7197F90730012BBC
:1044400011D14FF01803FB7345F60313C4F20003B8
:1044500045F60312C4F200021278D2B242F0010211
:10446000D2B21A7010E04FF01803FB7345F6031335
:10447000C4F2000345F60312C4F200021278D2B26D
:1044800042F00102D2B21A7045F60613C4F20003DC
:10449000FA7B1A7045F60713C4F200034FF00002CE
:1044A0001A7007F11407BD4680BC704780B584B010
:1044B00000AF0346FB714EF61A13C1F6FF73FA798B
:1044C0001A70FB790A2B08D00C2B02D0082B08D0CD
:1044D0000BE06FF03F03FB730AE06FF03F03FB73E9
:1044E00006E06FF03F03FB7302E06FF03F03FB73E6
:1044F000FB7B43F00503FB7345F60213C4F2000394
:10450000FA7B1A70FB79184600F074F807F110076F
:10451000BD4680BD80B400AF45F60013C4F2000371
:1045200045F60012C4F200021278D2B242F0010243
:10453000D2B21A70BD4680BC704700BF80B584B04F
:1045400000AF0346FB7145F60113C4F200031B786C
:10455000DBB203F00103FB73FB7B012B02D0FB7981
:10456000002BF0D0FB7B012B08D14FF00100FEF7B0
:10457000EFF845F60113C4F200031B78FB7B1846E5
:1045800007F11007BD4680BD80B483B000AF45F68B
:10459000A033C4F200031B889AB24EF61C13C1F676
:1045A000FF731B889BB29BB2C3EB02039BB2FB80E1
:1045B0004EF61A13C1F6FF731B780A2B05D1B7F913
:1045C00006304FEAA303FB800BE04EF61A13C1F648
:1045D000FF731B78082B04D1B7F906304FEA231379
:1045E000FB80FB881BB2184607F10C07BD4680BC58
:1045F000704700BF80B485B000AF0346FB7140F642
:10460000FF73BB604FF40063FB81FB790A2B03D17E
:10461000BB684FEA9303BB60FB79082B03D1BB68EF
:104620004FEA1313BB60BB684FF47A7202FB03F3CB
:10463000BB60BB684FEA930240F29F03C0F6EE13E3
:10464000A3FB02134FEA53139AB24EF61613C1F6A8
:10465000FF731A804EF61C13C1F6FF734FF0000271
:104660001A8007F11407BD4680BC704780B485B03E
:1046700000AF0346FB80FA884EF61813C1F6FF73AD
:104680001B889BB29BB2C3EB02039BB2FB80B7F9C2
:1046900006304FF47A7202FB03F24EF61613C1F69F
:1046A000FF731B889BB21BB292FBF3F3FB81FB8968
:1046B0001BB2184607F11407BD4680BC704700BF07
:1046C00080B400AFBD4680BC704700BF80B500AF6E
:1046D00000F018F880BD00BF80B582B000AF03467F
:1046E000FB7100F00FF8FB79184600F071FD4EF2F7
:1046F0002813C1F6FF73FA791A7007F10807BD464F
:1047000080BD00BF80B582B000AF4FF00003FB71E9
:1047100007E0FB79184600F0A5FDFB7903F10103E2
:10472000FB71FB79012BF4D907F10807BD4680BD69
:1047300080B483B000AF0346FB7144F20213C4F2AD
:10474000000344F20212C4F200021278D1B2FA79E4
:1047500002F0F80241EA0202D2B21A7007F10C0725
:10476000BD4680BC704700BF80B500AF4EF6030366
:10477000C1F6FF731B78002B08D100F00BF84EF642
:104780000303C1F6FF734FF001021A7000F028F81E
:1047900080BD00BF80B500AF4FF00C0044F699110A
:1047A000C0F20001FDF7E8FF4FF00C004FF00701E9
:1047B000FEF716F846F22043C4F200034FF007025A
:1047C0001A7046F23043C4F200034FF048021A70E8
:1047D00046F28443C4F200034FF002021A7080BD17
:1047E00080B582B000AF00F047FF0346FB7146F290
:1047F0009443C4F2000346F29442C4F200021278D9
:10480000D2B242F01002D2B21A704FF00C00FEF792
:1048100015F844F2A233C4F2000344F2A232C4F207
:1048200000021278D2B242F00202D2B21A70FB79C0
:10483000184600F025FF07F10807BD4680BD00BF00
:1048400080B500AF4FF00C00FDF7F8FF80BD00BF52
:1048500080B500AF4FF00C00FEF714F880BD00BF2C
:1048600080B400AF46F26443C4F200031B78DBB2AD
:104870001846BD4680BC704780B582B000AF034685
:10488000FB714EF60203C1F6FF731B781A464EF613
:104890000103C1F6FF731B78DBB203F1FF339A42C9
:1048A000EFD04EF60203C1F6FF731A784EF60103FD
:1048B000C1F6FF731B78DBB2C3EB0203DBB2312B13
:1048C000DFD0FFF7C5FF4EF60103C1F6FF731B787B
:1048D000DAB24EF60203C1F6FF731B789A4210D18A
:1048E00046F26443C4F200031B78DBB203F0040316
:1048F000002B06D146F24443C4F20003FA791A7041
:1049000026E04EF60203C1F6FF731B78312B06D961
:104910004EF60203C1F6FF734FF000021A704EF616
:104920000203C1F6FF731B781A464EF62013C1F638
:10493000FF73F97999544EF60203C1F6FF731B78A1
:1049400003F10103DAB24EF60203C1F6FF731A70E7
:10495000FFF776FF07F10807BD4680BD80B582B03E
:1049600000AF78604EF60303C1F6FF731B78002B8F
:104970000DD008E07B681B787A6802F101027A604A
:104980001846FFF779FF7B681B78002BF2D107F1FF
:104990000807BD4680BD00BF80B400AF2EE04EF6D4
:1049A0000103C1F6FF731B78DBB2312B06D94EF63B
:1049B0000103C1F6FF734FF000021A7046F2444340
:1049C000C4F200034EF60102C1F6FF721278D2B2B1
:1049D00011464EF62012C1F6FF72525CD2B21A7026
:1049E0004EF60103C1F6FF731B78DBB203F101033E
:1049F000DAB24EF60103C1F6FF731A704EF60103E8
:104A0000C1F6FF731B78DAB24EF60203C1F6FF73EC
:104A10001B789A4209D046F26443C4F200031B7823
:104A2000DBB203F00403002BB9D0BD4680BC704755
:104A300080B582B000AF786000F042F8786800F08E
:104A40000BF84FF0070000F01BF800F02DF807F10D
:104A50000807BD4680BD00BF80B485B000AF786058
:104A60004EF60853CEF200031B68FB60FB6803F1AF
:104A700080037A681A6007F11407BD4680BC70474E
:104A800080B483B000AF0346FB714EF21043CEF208
:104A90000003FA794FEA4212D2B21A7007F10C07FA
:104AA000BD4680BC704700BF80B400AF4EF200131B
:104AB000CEF200034FF480321A60BD4680BC7047CE
:104AC00080B400AF4EF28013CEF200034FF4803278
:104AD0001A60BD4680BC704780B582B000AF4FF011
:104AE000090000F06DF84FF0090000F085F800F0C3
:104AF000C3FD0346FB7146F29753C4F2000346F22E
:104B00009752C4F200021278D2B242F01002D2B22E
:104B10001A70FB79184600F0B3FD00F07DF84FF0F5
:104B2000010000F031F807F10807BD4680BD00BF65
:104B300080B400AF46F27743C4F2000346F27742F6
:104B4000C4F200021278D2B26FEA42626FEA526295
:104B5000D2B21A70BD4680BC704700BF80B500AFAE
:104B60004EF60503C1F6FF731B78002B08D1FFF743
:104B7000B3FF4EF60503C1F6FF734FF001021A7042
:104B8000FFF7D6FF80BD00BF80B483B000AF0346FF
:104B9000FB7146F28753C4F20003FA791A7007F1E9
:104BA0000C07BD4680BC704780B400AF46F2675327
:104BB000C4F200031B78DBB21846BD4680BC7047C8
:104BC00080B483B000AF0346FB7146F22743C4F2C2
:104BD0000003FA791A7007F10C07BD4680BC7047D4
:104BE00080B400AF46F24743C4F200031B78DBB247
:104BF0001846BD4680BC704780B483B000AF034602
:104C0000FB7146F20743C4F20003FA791A7007F108
:104C10000C07BD4680BC704780B500AF01E0FFF7D0
:104C2000DFFFFFF7C1FF034603F00803002BF6D1B7
:104C300080BD00BF80B485B000AF0346FB7145F274
:104C40004013C4F200031B78DBB223F01003FB73A4
:104C500045F24013C4F20003FA794FEA0212D2B2CD
:104C600002F01002F97B42EA0102D2B21A7007F197
:104C70001407BD4680BC704780B485B000AF0346C2
:104C8000FB7145F24013C4F200031B78DBB223F042
:104C90000803FB7345F24013C4F20003FA794FEAAC
:104CA000C202D2B202F00802F97B42EA0102D2B299
:104CB0001A7007F11407BD4680BC704780B485B0F8
:104CC00000AF786039607B68FB6007E0FB684FF0FD
:104CD00000021A70FB6803F10103FB603B68002BC4
:104CE0000CBF00230123DBB23A6802F1FF323A60C5
:104CF000002BEBD107F11407BD4680BC704700BF05
:104D000080B487B000AFF860B9607A60FB683B613F
:104D1000BB687B610BE07B691A783B691A703B6961
:104D200003F101033B617B6903F101037B617B6854
:104D3000002B0CBF00230123DBB27A6802F1FF32A3
:104D40007A60002BE7D107F11C07BD4680BC704795
:104D500080B483B000AF4EF60803C1F6FF734FF086
:104D600000021A6047F20063C4F200034FF0100221
:104D70001A7047F21003C4F200034FF001021A70D8
:104D800047F21003C4F200034FF000025A7247F6D4
:104D90000003C4F200034FF001029A7047F60003CB
:104DA000C4F200034FF00302DA7047F60003C4F2C6
:104DB00000034FF416721A8047F60403C4F200038E
:104DC00040F2E802C0F2000292B21A8047F60603EF
:104DD000C4F2000347F608021A8047F20463C4F2E3
:104DE00000034FF000021A8047F20663C4F200038A
:104DF0004FF480421A8047F22003C4F200034FF0C0
:104E000009025A7247F23003C4F200034FF00B025A
:104E10005A7247F26003C4F200034FF015025A724F
:104E200047F27003C4F200034FF018025A7247F2BF
:104E30001003C4F200034FF001021A7147F6000399
:104E4000C4F200031B889BB2002BF7D14FF0000384
:104E50003B6018E03B684FEAC30247F60803C4F220
:104E60000003134403F104037B607A6839684AF64F
:104E7000D063C0F2000353F821309BB213803B682B
:104E800003F101033B603B684A2BE3DD47F210036B
:104E9000C4F200034FF001021A7147F21803C4F282
:104EA00000031B78DBB203F00103DBB2002BF4D16B
:104EB00047F22803C4F200031B78DBB203F00103BE
:104EC000DBB2002BF4D147F23803C4F200031B78A5
:104ED000DBB203F00103DBB2002BF4D147F268032D
:104EE000C4F200031B78DBB203F00103DBB2002B3A
:104EF000F4D147F27803C4F200031B78DBB203F06D
:104F00000103DBB2002BF4D147F21003C4F200031B
:104F10004FF000021A7047F22003C4F200034FF072
:104F200000021A7047F23003C4F200034FF000028F
:104F30001A7047F26003C4F200034FF000021A70C7
:104F400047F27003C4F200034FF000021A7007F139
:104F50000C07BD4680BC704780B582B000AF3B46B1
:104F60007B6044F28000C4F2000040F20101C0F214
:104F7000190100F089FB44F28400C4F2000040F201
:104F80003301C0F2190100F07FFB44F28800C4F243
:104F9000000040F23811C0F2190100F075FB44F234
:104FA0000010C4F2000041F69011C4F600014FF069
:104FB000040201F001F844F20033C4F200034FF0A0
:104FC00002021A7044F20003C4F200034FF0080218
:104FD0001A7044F21223C4F200034FF019021A703F
:104FE00044F21023C4F200034FF007021A704CF68B
:104FF000C050C0F2170000F037FB44F20403C4F2C3
:10500000000340F203221A8044F20403C4F20003B6
:105010004FF000021A7044F20003C4F200034FF094
:1050200048021A7044F20023C4F200034FF0200239
:105030001A7044F20403C4F200034FF007021A701E
:1050400044F20603C4F200034FF000021A7044F267
:105050000803C4F200034FF048021A7044F204033C
:10506000C4F200034FF000021A7044F20103C4F2CC
:1050700000034FF002021A7044F20B03C4F2000363
:105080004FF004021A7044F2A233C4F2000344F257
:10509000A232C4F200021278D2B242F00702D2B2B7
:1050A0001A7044F2A133C4F2000344F2A132C4F2F4
:1050B00000021278D2B242F00102D2B21A7007F1A5
:1050C0000807BD4680BD00BF80B400AF44F2AA33DC
:1050D000C4F200034FF444721A8045F24D13C4F237
:1050E00000034FF020021A7045F62003C4F20003BB
:1050F0004FF01E021A7045F62403C4F200034FF06D
:105100001E021A7045F62803C4F200034FF01E0277
:105110001A7045F62C03C4F200034FF01E021A70F9
:1051200045F66C03C4F200034FF008021A7045F60E
:105130007003C4F200034FF000021A7045F600132A
:10514000C4F2000344F2C0021A8045F60313C4F20D
:1051500000034FF00C021A7045F60813C4F2000366
:105160006FF03F021A7045F60B13C4F200034FF0C4
:105170000C021A7045F6C323C4F200034FF020025C
:105180001A7045F60033C4F200034FF021021A7082
:1051900045F62333C4F200034FF020021A7045F69F
:1051A0004433C4F200034FF020021A7045F65B331B
:1051B000C4F200034FF001021A7045F67603C4F200
:1051C00000034FF066021A70BD4680BC704700BFF6
:1051D00080B483B000AF0346FB71FB79012B3AD852
:1051E000FA79FB791344FB71FA794AF6FC73C0F241
:1051F000000353F82220F9794AF6FC73C0F2000349
:1052000053F821301978F8794BF20C03C0F20003FF
:105210001B5C41EA0303DBB21370FB7903F101036A
:10522000FB71FA794AF6FC73C0F2000353F82220AE
:10523000F9794AF6FC73C0F2000353F8213019786B
:10524000F8794BF20C03C0F200031B5C41EA030344
:10525000DBB2137000E000BF07F10C07BD4680BC55
:10526000704700BF80B483B000AF0346FB71FB7989
:10527000012B44D8FA79FB791344FB71FA794AF689
:10528000FC73C0F2000353F82220F9794AF6FC734C
:10529000C0F2000353F821301B781946F8794BF21D
:1052A0000C03C0F200031B5C6FEA0303DBB201EAEC
:1052B0000303DBB2DBB21370FB7903F10103FB7173
:1052C000FA794AF6FC73C0F2000353F82220F97908
:1052D0004AF6FC73C0F2000353F821301B781946DC
:1052E000F8794BF20C03C0F200031B5C6FEA030376
:1052F000DBB201EA0303DBB2DBB2137000E000BFF4
:1053000007F10C07BD4680BC704700BF80B483B076
:1053100000AF0346FB71FB79062B19D8FA794BF2E3
:105320001003C0F2000353F82220F9794BF2100366
:10533000C0F2000353F821301978F8794BF22C03AE
:10534000C0F200031B5C41EA0303DBB2137000E010
:1053500000BF07F10C07BD4680BC704780B483B026
:1053600000AF0346FB71FB79062B1ED8FA794BF28E
:105370001003C0F2000353F82220F9794BF2100316
:10538000C0F2000353F821301B781946F8794BF22C
:105390002C03C0F200031B5C6FEA0303DBB201EADB
:1053A0000303DBB2DBB2137000E000BF07F10C07B0
:1053B000BD4680BC704700BF80B500AF72B644F6F2
:1053C0000003C4F200034FF040021A7047F21003CA
:1053D000C4F200034FF000021A7047F22003C4F237
:1053E00000034FF000021A7045F67C03C4F200037C
:1053F0004FF001021A7044F2E863C4F2000344F271
:10540000E862C4F200021278D2B242F00102D2B2D3
:105410001A70FFF79DFC45F20020C4F2000041F62F
:105420006811C4F600014FF00702FFF769FC45F26E
:105430000820C4F200004FF00701FFF73FFC45F2DF
:105440001020C4F2000041F67011C4F600014FF0C4
:105450000702FFF755FC45F21820C4F2000041F6A0
:105460007811C4F600014FF00702FFF749FC45F23E
:105470002020C4F2000041F68011C4F600014FF074
:105480000702FFF73DFC45F22820C4F2000041F678
:105490008811C4F600014FF00702FFF731FC45F216
:1054A0003020C4F200004FF00701FFF707FC45F27F
:1054B0006020C4F200004FF00601FFF7FFFB45F249
:1054C0007820C4F200004FF00701FFF7F7FB45F624
:1054D0007003C4F200034FF440721A8045F6720361
:1054E000C4F200034FF440721A8045F64803C4F238
:1054F00000034FF003021A8045F20303C4F20103D4
:1055000045F20302C4F201021278D2B242F0020262
:10551000D2B21A7045F21303C4F2010345F213022A
:10552000C4F201021278D2B242F00202D2B21A7070
:1055300044F2A033C4F2000344F2A032C4F20002E9
:105540001278D2B242F04002D2B21A7044F2C233A0
:10555000C4F2000344F2C232C4F200021278D2B2A2
:1055600042F01002D2B21A7045F20210C4F20000EA
:1055700041F62811C4F600014FF0080200F01CFDAE
:1055800045F21210C4F2000041F63011C4F60001D9
:105590004FF0080200F010FD45F2C210C4F2000006
:1055A00041F63811C4F600014FF00802FFF7A8FBDE
:1055B00045F22210C4F2000041F64011C4F6000189
:1055C0004FF0080200F0F8FC45F23010C4F2000081
:1055D00041F64811C4F600014FF00A0200F0ECFC5D
:1055E00045F24010C4F2000041F65411C4F6000127
:1055F0004FF00A0200F0E0FC45F25210C4F2000045
:1056000041F66011C4F600014FF0080200F0D4FC2E
:1056100044F60003C4F200034FF000021A70FFF7D3
:105620009BFC44F60003C4F200036FF07F021A7083
:10563000FFF74AFD44F2B030C4F2000044F2A0315A
:10564000C4F200014FF00C0200F0B6FC44F2B0339B
:10565000C4F2000344F2B032C4F200021278D2B2B3
:1056600002F0FD021A7080BD0230800803D000BF36
:1056700001380046FCD17047EFF3108072B67047D6
:1056800080F31088704700BF80B483B000AF7860AB
:1056900039603B68DAB27B681A707B6803F10103FA
:1056A0007B603B684FEA13233B603B68DAB27B6860
:1056B0001A707B6803F101037B603B684FEA132398
:1056C0003B603B68DAB27B681A7007F10C07BD4695
:1056D00080BC704781F0004102E000BF83F00043CE
:1056E00030B54FEA41044FEA430594EA050F08BF7D
:1056F00090EA020F1FBF54EA000C55EA020C7FEA41
:10570000645C7FEA655C00F0E2804FEA5454D4EBBD
:105710005555B8BF6D420CDD2C4480EA020281EA87
:10572000030382EA000083EA010180EA020281EABF
:105730000303362D88BF30BD11F0004F4FEA013111
:105740004FF4801C4CEA113102D0404261EB410120
:1057500013F0004F4FEA03334CEA133302D05242A6
:1057600063EB430394EA050F00F0A780A4F1010462
:10577000D5F1200E0DDB02FA0EFC22FA05F280189C
:1057800041F1000103FA0EF2801843FA05F3594182
:105790000EE0A5F120050EF1200E012A03FA0EFC01
:1057A00028BF4CF0020C43FA05F3C01851EBE3712B
:1057B00001F0004507D54FF0000EDCF1000C7EEB48
:1057C00000006EEB0101B1F5801F1BD3B1F5001F86
:1057D0000CD349085FEA30004FEA3C0C04F10104A5
:1057E0004FEA445212F5800F80F09A80BCF1004FCE
:1057F00008BF5FEA500C50F1000041EB045141EA50
:10580000050130BD5FEA4C0C404141EB010111F450
:10581000801FA4F10104E9D191F0000F04BF0146FB
:105820000020B1FA81F308BF2033A3F10B03B3F1D9
:1058300020020CDA0C3208DD02F1140CC2F10C0269
:1058400001FA0CF021FA02F10CE002F11402D8BFC7
:10585000C2F1200C01FA02F120FA0CFCDCBF41EA93
:105860000C019040E41AA2BF01EB0451294330BD62
:105870006FEA04041F3C1CDA0C340EDC04F114043F
:10588000C4F1200220FA04F001FA02F340EA030016
:1058900021FA04F345EA030130BDC4F10C04C4F15C
:1058A000200220FA02F001FA04F340EA030029463C
:1058B00030BD21FA04F0294630BD94F0000F83F486
:1058C000801306BF81F480110134013D4EE77FEA69
:1058D000645C18BF7FEA655C29D094EA050F08BFB5
:1058E00090EA020F05D054EA000C04BF1946104696
:1058F00030BD91EA030F1EBF0021002030BD5FEADA
:10590000545C05D14000494128BF41F0004130BD01
:1059100014F580043CBF01F5801130BD01F0004555
:1059200045F0FE4141F470014FF0000030BD7FEAC8
:10593000645C1ABF194610467FEA655C1CBF0B46C3
:10594000024650EA013406BF52EA033591EA030FDA
:1059500041F4002130BD00BF90F0000F04BF0021D2
:10596000704730B54FF4806404F132044FF0000505
:105970004FF0000150E700BF90F0000F04BF00217E
:10598000704730B54FF4806404F1320410F00045E4
:1059900048BF40424FF000013EE700BF42004FEADF
:1059A000E2014FEA31014FEA02701FBF12F07F435C
:1059B00093F07F4F81F06051704792F0000F14BF59
:1059C00093F07F4F704730B54FF4607401F000459D
:1059D00021F0004120E700BF50EA010208BF7047F4
:1059E00030B54FF000050AE050EA010208BF7047E9
:1059F00030B511F0004502D5404261EB41014FF452
:105A0000806404F132045FEA915C3FF4DCAE4FF055
:105A100003025FEADC0C18BF03325FEADC0C18BF3C
:105A2000033202EBDC02C2F1200300FA03FC20FA8D
:105A300002F001FA03FE40EA0E0021FA02F11444DA
:105A4000C1E600BF70B54FF0FF0C4CF4E06C1CEAEF
:105A500011541DBF1CEA135594EA0C0F95EA0C0F64
:105A600000F0DEF82C4481EA030621EA4C5123EAD7
:105A70004C5350EA013518BF52EA033541F4801106
:105A800043F4801338D0A0FB02CE4FF00005E1FBB9
:105A900002E506F00042E0FB03E54FF00006E1FB03
:105AA00003569CF0000F18BF4EF0010EA4F1FF0446
:105AB000B6F5007F64F5407404D25FEA4E0E6D4186
:105AC00046EB060642EAC62141EA55514FEAC52097
:105AD00040EA5E504FEACE2EB4F1FD0C88BFBCF513
