:1000000012C02CC02BC02AC029C028C027C026C0BF
:1000100025C025C023C0FFC13AC220C01FC01EC0DA
:100020001DC01CC01BC011241FBECFE5D4E0DEBF25
:10003000CDBF10E0A0E6B0E0E2E1F8E002C005903C
:100040000D92A236B107D9F711E0A2E6B0E001C0E7
:100050001D92A033B107E1F74FD0D9C3D1CF1F9282
:100060000F920FB60F9211248F939F93809172007D
:1000700090917300019690937300809372004E9755
:1000800020F010927300109272009F918F910F9048
:100090000FBE0F901F90189583E7809362008BE648
:1000A0008093630084E78093640082E690E04DD300
:1000B000089582E390E090936A008093690025E0C0
:1000C0002093650090936C0080936B0026E0209352
:1000D000660090936E0080936D0087E080936700C8
:1000E0001092700010926F001092680089E690E004
:1000F00065E670E0E2D00895CF92DF92EF92FF9232
:100100000F931F93D6DFC8DF80D195D05DD32DD359
:10011000789432E7D32E2DE6E22E94E7F92E03E011
:1001200082E0C82E11E0F0D232D351D359D38823C4
:1001300011F021D352D3809171008130D9F08130F8
:1001400018F0823081F73BC080916000813051F41B
:1001500080917C008A7F80937C0097D080E018D1CA
:100160001092600033D28823F1F210937100109343
:100170006000D9CF80916000813029F480917C00AB
:10018000846080937C0022D2882369F284E013D2B9
:1001900080FF04C0C092710010936000D092740080
:1001A000E0927500F09276000093770080917C00D9
:1001B000809378001092790010927A0035C0809177
:1001C0006000813059F480917C00816080937C00D4
:1001D00058D080E0BFD0CFD21092600080917C00D8
:1001E000816080937C00F2D1882309F49CCF53D0A6
:1001F00084E0E1D180FD04C0109271001093600092
:10020000D0927400E0927500F0927600009377002F
:1002100080917C008093780085E0CDD18093790037
:1002200086E0C9D180937A0010927B0084E790E049
:1002300068E0CFD178CF80EA8FBD82E18EBD1DBC52
:100240001CBC8CE893E297BD86BD1BBC1ABC19BCD4
:1002500018BC82E087BB17B886EE86B908959C016A
:1002600080917D00813061F4C901880F991F880F4A
:10027000991F6AE070E0B7D26E537E4F7BBD6ABDB6
:10028000089581E080937D00089580E090E0E7DFAD
:1002900010927D0008951F9385E08DD1182F86E080
:1002A0008AD1312F20E090E0822B932B90937F0016
:1002B00080937E00D4DF1F910895CF93DF93EC01EC
:1002C00090938100809380007093830060938200FC
:1002D00030E041E050E02FC0E833F10569F427B386
:1002E000A60FB71FCA010C9002C0880F991F0A946D
:1002F000E2F7282B27BB1EC0E533F10569F424B3D0
:10030000A60FB71FCA010C9002C0880F991F0A944C
:10031000E2F7282B24BB0EC0F29761F421B3A60F9D
:10032000B71FCA010C9002C0880F991F0A94E2F708
:10033000282B21BB3F5FA32FB0E0FD01EE0FFF1F75
:10034000EC0FFD1F0190F081E02D309729F6DF9131
:10035000CF91089590E09C01220F331FE09180001F
:10036000F0918100E20FF31FA081B181E091820042
:10037000F0918300E80FF91F81E090E0008002C057
:10038000880F991F0A94E2F72C91282B2C9308953B
:1003900090E09C01220F331FE0918000F0918100DA
:1003A000E20FF31FA081B181E0918200F091830000
:1003B000E80FF91F81E090E0008002C0880F991FCC
:1003C0000A94E2F780952C9128232C93089590E0CD
:1003D0009C01220F331FE0918000F0918100E20F19
:1003E000F31FA081B181E0918200F0918300E80FBA
:1003F000F91F81E090E0008002C0880F991F0A94E5
:10040000E2F72C9128272C93089585E083BF89B7C4
:10041000816089BF08951F920F920FB60F92112429
:100420002F933F934F935F938F939F93EF93FF93FC
:100430004091860050918500842F90E00196252FF1
:1004400030E08217930721F0413351F4552329F40A
:100450008CB181E08093840006C01092860003C0B6
:100460004F5F409386008CB1E0918600F0E0E75743
:10047000FF4F8083FF91EF919F918F915F914F91FB
:100480003F912F910F900FBE0F901F9018951F92C4
:100490000F920FB60F9211248F939F93EF93FF93B8
:1004A0009091880080918700981711F455980FC09B
:1004B000913319F41092880003C09F5F90938800D5
:1004C000E0918800F0E0E554FF4F80818CB9FF9106
:1004D000EF919F918F910F900FBE0F901F901895E5
:1004E00010BC81E389B988E98AB987E880BD1BB867
:1004F000089590918700292F30E02F5F3F4F609142
:100500008800462F50E024173507A9F0923319F4DC
:100510006623C9F305C0913319F41092870003C014
:100520009F5F90938700E0918700F0E0E554FF4FD4
:100530008083559A0895FFCF40E02091870030E0F6
:100540002F5F3F4F8091880090E02817390709F00E
:1005500041E0842F08950F931F93CF93DF93062FCD
:10056000EC0110E003C08991C4DF1F5F1017D9F7B9
:10057000DF91CF911F910F910895DC01909185003B
:1005800080918600981711F480E00895913319F452
:100590001092850003C09F5F90938500E0918500D5
:1005A000F0E0E757FF4F80818C9381E008958091C0
:1005B0008400089508951092ED00E7EFF0E0E80F51
:1005C000F11D808108958091610008958091ED0072
:1005D0000895C1DF0895EF92FF920F931F9394E067
:1005E000E92E06E011E083E0F82E83C08091F3004D
:1005F000833009F44EC0843058F4813011F1909169
:10060000F000E0912901F0912A01823090F50AC0B2
:10061000853009F45DC0853008F44CC0863009F09F
:100620005EC059C01092F2001092F10080819817BC
:1006300009F057C09093F7001093F2001093F30065
:1006400050C09091F000E0912901F0912A01818140
:10065000981709F044C08091F200E82FF0E0E950CB
:10066000FF4F90838F5F8093F20082E08093F300CE
:1006700038C08281981799F58091F200E82FF0E058
:10068000E950FF4F90838F5F8093F200F092F30068
:1006900028C0E092F3008091F2009091F000E82FE2
:1006A000F0E0E950FF4F90839093F1008F5F8093CB
:1006B000F20017C08091F200E82FF0E0E950FF4F00
:1006C0009091F00090838F5F8093F200873048F024
:1006D0000093F30006C01093EE0082E078DE1092E3
:1006E000F3008091F200833320F01092F200109317
:1006F000EF0080EF90E041DF882309F077CF1F9172
:100700000F91FF90EF90089566DF8091EE008823AF
:1007100061F01092F5001092F400109261001092B6
:10072000EE0081E08093ED0008958091F4009091B7
:10073000F50001969093F5008093F4008055934C5A
:1007400019F481E08093610008950F931F938C0149
:1007500080E000DE10932A0100932901C1DE81E0D0
:100760008093F6001F910F910895B89A0895C09A4A
:100770000895C098089510922E0110922D0180E5E1
:1007800093EC90932C0180932B01C09A08952091B3
:100790002B0130912C0121153105A9F080912D01FB
:1007A00090912E01019690932E0180932D01821736
:1007B000930749F4C09810922E0110922D011092C7
:1007C0002C0110922B01089581B381BB0895849967
:1007D00003C081E080932F01089510922F010895A6
:1007E00080912F010895AA1BBB1B51E107C0AA1FCE
:1007F000BB1FA617B70710F0A61BB70B881F991FC2
:100800005A95A9F780959095BC01CD010895F8946B
:02081000FFCF18
:020812000101E2
:00000001FF
