:1000000012C02CC02BC02AC029C028C027C026C0BF
:1000100025C0E1C623C07AC3CDC320C01FC01EC007
:100020001DC01CC01BC011241FBECFE5D4E0DEBF25
:10003000CDBF10E0A0E6B0E0EAEEF2E102C005902C
:100040000D92A236B107D9F711E0A2E6B0E001C0E7
:100050001D92A734B107E1F7DBD645C9D1CFDF93B5
:10006000CF9300D0CDB7DEB79A83898389819A81F7
:1000700090939B0080939A00E1D381E08093650088
:100080000F900F90CF91DF910895DF93CF9300D021
:1000900000D00F92CDB7DEB79A8389837C836B83C0
:1000A0004D830F900F900F900F900F90CF91DF9195
:1000B0000895DF93CF93CDB7DEB725D0809162004E
:1000C000882351F010929D0010929C0010926200C3
:1000D00081E08093630014C080919C0090919D000A
:1000E000019690939D0080939C0080919C0090913C
:1000F0009D0023E18838920719F481E08093600025
:10010000CF91DF910895DF93CF93CDB7DEB7CDC008
:1001100080919E00882F90E08330910509F47EC085
:100120008430910554F481309105B1F1823091050C
:100130000CF053C0009771F0A9C08530910509F407
:100140009BC0853091050CF480C08630910509F480
:1001500097C09CC010929F001092A00080919A00BE
:1001600090919B00FC0190818091A100981709F06B
:1001700090C080919F00882F90E02091A100885925
:100180009F4FFC01208380919F008F5F80939F0091
:1001900081E080939E0080C080919A0090919B00A6
:1001A0000196FC0190818091A100981799F48091AB
:1001B0009F00882F90E02091A10088599F4FFC015B
:1001C000208380919F008F5F80939F0082E08093C7
:1001D0009E0062C010929E005FC080919A00909134
:1001E0009B000296FC0190818091A100981799F4E0
:1001F00080919F00882F90E02091A10088599F4F07
:10020000FC01208380919F008F5F80939F0083E09B
:1002100080939E0041C010929E003EC084E0809377
:100220009E0080919F00882F90E02091A100885926
:100230009F4FFC0120838091A1008093A0008091BA
:100240009F008F5F80939F0027C080919F00882F21
:1002500090E02091A10088599F4FFC01208380915C
:100260009F008F5F80939F0080919F00873098F060
:1002700086E080939E0010C086E080939E000CC0B4
:1002800081E08093620010929E0006C010929E0052
:1002900003C0000001C0000080919F00833328F05C
:1002A00010929F0081E08093640081EA90E05ED329
:1002B000882309F02DCFCF91DF910895DF93CF935D
:1002C0000F92CDB7DEB78983109263008981882FA2
:1002D00090E088599F4FFC0180810F90CF91DF9172
:1002E0000895DF93CF9300D00F92CDB7DEB79A83F6
:1002F00089836B8389819A816B8115D30F900F90CD
:100300000F90CF91DF910895DF93CF930F92CDB7E8
:10031000DEB78091600089831092600089810F9020
:10032000CF91DF910895DF93CF93CDB7DEB7809162
:100330006300CF91DF910895DF93CF9300D000D079
:100340000F92CDB7DEB79B838A837D836C838A81CE
:100350009B819093A3008093A2008C819D819093B8
:10036000A5008093A400198295C02091A20030912D
:10037000A3008981882F90E0880F991F820F931F17
:10038000FC01808191818833910501F587E390E03C
:1003900027E330E0F9012081622F4091A4005091C1
:1003A000A5002981222F30E0240F351FF90120817B
:1003B000422F50E021E030E0042E02C0220F331F14
:1003C0000A94E2F7262BFC01208361C02091A20051
:1003D0003091A3008981882F90E0880F991F820FA8
:1003E000931FFC01808191818533910501F584E3A0
:1003F00090E024E330E0F9012081622F4091A400D5
:100400005091A5002981222F30E0240F351FF901DA
:100410002081422F50E021E030E0042E02C0220F64
:10042000331F0A94E2F7262BFC01208330C0209171
:10043000A2003091A3008981882F90E0880F991F36
:10044000820F931FFC018081918182339105F9F421
:1004500081E390E021E330E0F9012081622F4091B7
:10046000A4005091A5002981222F30E0240F351FD0
:10047000F9012081422F50E021E030E0042E02C03B
:10048000220F331F0A94E2F7262BFC012083898177
:100490008F5F89832091A2003091A3008981882FEA
:1004A00090E0880F991F820F931FFC01808191813A
:1004B000009709F05ACF0F900F900F900F900F9068
:1004C000CF91DF910895DF93CF930F92CDB7DEB731
:1004D00089832091A2003091A3008981882F90E028
:1004E000880F991F820F931FFC0180819181409199
:1004F000A2005091A3002981222F30E0220F331F48
:10050000240F351FF90120813181F9012081622FEB
:100510004091A4005091A5002981222F30E0240FA2
:10052000351FF9012081422F50E021E030E0042EF8
:1005300002C0220F331F0A94E2F7262BFC0120830E
:100540000F90CF91DF910895DF93CF930F92CDB7A6
:10055000DEB789832091A2003091A3008981882F82
:1005600090E0880F991F820F931FFC018081918179
:100570004091A2005091A3002981222F30E0220F48
:10058000331F240F351FF90120813181F9012081AA
:10059000622F4091A4005091A5002981222F30E0C4
:1005A000240F351FF9012081422F50E021E030E077
:1005B000042E02C0220F331F0A94E2F7209526234F
:1005C000FC0120830F90CF91DF910895DF93CF93AB
:1005D0000F92CDB7DEB789832091A2003091A3009E
:1005E0008981882F90E0880F991F820F931FFC014B
:1005F000808191814091A2005091A3002981222FF6
:1006000030E0220F331F240F351FF9012081318183
:10061000F9012081622F4091A4005091A500298109
:10062000222F30E0240F351FF9012081422F50E0A6
:1006300021E030E0042E02C0220F331F0A94E2F7BB
:100640002627FC0120830F90CF91DF910895DF933F
:10065000CF93CDB7DEB783E590E025E0FC012083A2
:1006600089E590E029E530E0F90120812160FC0175
:100670002083CF91DF910895DF93CF93CDB7DEB77D
:1006800087E390E027E330E0F90120812860FC0156
:10069000208382E490E0FC01108283E490E024E671
:1006A000FC01208385E490E02EE1FC01208383E4BB
:1006B00090E024E6FC012083CF91DF910895DF9341
:1006C000CF930F92CDB7DEB7898383E490E0298181
:1006D000FC0120830F90CF91DF910895DF93CF939A
:1006E000CDB7DEB785E490E02EE1FC012083CF9109
:1006F000DF910895DF93CF93CDB7DEB785E490E027
:1007000028E1FC012083CF91DF9108951F920F9281
:100710000FB60F9211242F933F938F939F93EF93D4
:10072000FF93DF93CF93CDB7DEB78091D900882FA9
:1007300090E09C012F5F3F4F8091D800882F90E080
:100740002817390741F08091D900813371F48091E5
:10075000D800882351F48CE290E0FC0180818093E2
:100760000E0181E080930E010CC08091D90081338D
:1007700019F41092D90005C08091D9008F5F809341
:10078000D9008091D900882F90E02CE230E0F90167
:1007900020818A559F4FFC012083CF91DF91FF91EB
:1007A000EF919F918F913F912F910F900FBE0F90DE
:1007B0001F9018951F920F920FB60F9211242F932E
:1007C0003F938F939F93EF93FF93DF93CF93CDB797
:1007D000DEB790910C0180910D01981751F48AE2D7
:1007E00090E02AE230E0F90120812F7DFC01208396
:1007F00018C080910C01813319F410920C0105C0CE
:1008000080910C018F5F80930C018CE290E020912D
:100810000C01222F30E026523F4FF9012081FC01CC
:100820002083CF91DF91FF91EF919F918F913F9125
:100830002F910F900FBE0F901F901895DF93CF93BD
:10084000CDB7DEB780E490E0FC01108289E290E051
:1008500020E3FC0120838AE290E028E9FC01208368
:1008600080E490E027E8FC0120838BE290E0FC012B
:100870001082CF91DF910895DF93CF930F92CDB780
:10088000DEB78983000080910D01882F90E09C01E4
:100890002F5F3F4F80910C01882F90E02817390778
:1008A00091F380910D01823321F480910C01882312
:1008B00051F380910D01813319F410920D0105C09F
:1008C00080910D018F5F80930D0180910D01882F24
:1008D00090E086529F4F2981FC0120838AE290E0BC
:1008E0002AE230E0F90120812062FC0120830F9090
:1008F000CF91DF910895DF93CF93CDB7DEB780918D
:100900000D01882F90E09C012F5F3F4F80910C01DB
:10091000882F90E02817390711F081E001C080E0AE
:10092000CF91DF910895DF93CF9300D000D0CDB762
:10093000DEB79B838A836C8319820DC08981882FDF
:1009400090E02A813B81820F931FFC01808194DF1C
:1009500089818F5F898399818C81981779F70F90AE
:100960000F900F900F90CF91DF910895DF93CF9369
:1009700000D0CDB7DEB79A8389839091D80080915B
:10098000D9009817D1F08091D800813319F41092D2
:10099000D80005C08091D8008F5F8093D8008091E7
:1009A000D800882F90E08A559F4FFC0120818981D3
:1009B0009A81FC01208381E001C080E00F900F90BC
:1009C000CF91DF910895DF93CF93CDB7DEB78091BC
:1009D0000E01CF91DF910895DF93CF93CDB7DEB7AE
:1009E00087E290E021E0FC01208386E290E026EEA1
:1009F000FC012083CF91DF910895DF93CF9300D046
:100A0000CDB7DEB784E290E0FC018081898385E286
:100A100090E0FC0180818A838A81882F90E0382FC2
:100A200022278981882F90E0822B932B0F900F90A3
:100A3000CF91DF910895DF93CF9300D000D00F9234
:100A4000CDB7DEB79B838A837D836C838A819B814C
:100A50009093100180930F018C819D8190931201DE
:100A600080931101198250C020910F013091100123
:100A70008981882F90E0880F991F820F931FFC01B6
:100A8000808191818633910549F487E390E027E3E3
:100A900030E0F9012081FC01208333C020910F0157
:100AA000309110018981882F90E0880F991F820F63
:100AB000931FFC01808191818333910549F484E384
:100AC00090E024E330E0F9012081FC01208319C08B
:100AD00020910F01309110018981882F90E0880FBB
:100AE000991F820F931FFC018081918180339105B2
:100AF00041F481E390E021E330E0F9012081FC0141
:100B0000208389818F5F898320910F0130911001AB
:100B10008981882F90E0880F991F820F931FFC0115
:100B200080819181009709F09FCF0F900F900F90D7
:100B30000F900F90CF91DF910895DF93CF930F9295
:100B4000CDB7DEB7198215C18981882F90E08D5EFF
:100B50009E4FFC018081882F90E08130910509F43F
:100B600046C0823091051CF4009751F0FFC08230DE
:100B7000910509F46CC08330910509F49FC0F6C05B
:100B800020910F01309110018981882F90E0880F0A
:100B9000991F820F931FFC0180819181FC0180814C
:100BA000882F90E040911101509112012981222F4C
:100BB00030E0240F351FF9012081222F30E0022E72
:100BC00002C0959587950A94E2F78170907000971E
:100BD00009F0C3C010922801109227018981882F43
:100BE00090E08D5E9E4F21E0FC012083BFC0898193
:100BF000882F90E08D5E9E4FFC018081813009F04E
:100C0000AEC0809127019091280101969093280110
:100C10008093270180912701909128018A309105C6
:100C200009F09FC08981882F90E08D5E9E4F22E061
:100C3000FC0120838981882F90E0835E9E4F21E014
:100C4000FC01208310922801109227018FC020916F
:100C50000F01309110018981882F90E0880F991F32
:100C6000820F931FFC0180819181FC018081882F7C
:100C700090E040911101509112012981222F30E022
:100C8000240F351FF9012081222F30E0022E02C0EF
:100C9000959587950A94E2F781709070882309F4FE
:100CA00062C010922801109227018981882F90E05C
:100CB0008D5E9E4F23E0FC01208358C08091270168
:100CC00090912801019690932801809327018091AB
:100CD0002701909128018A30910509F046C02091A2
:100CE0000F01309110018981882F90E0880F991FA2
:100CF000820F931FFC0180819181FC018081882FEC
:100D000090E040911101509112012981222F30E091
:100D1000240F351FF9012081222F30E0022E02C05E
:100D2000959587950A94E2F781709070882341F039
:100D30008981882F90E08D5E9E4FFC01108208C053
:100D40008981882F90E08D5E9E4F22E0FC012083F8
:100D5000109228011092270109C0000007C000006E
:100D600005C0000003C0000001C0000089818F5F42
:100D7000898320910F01309110018981882F90E0A3
:100D8000880F991F820F931FFC018081918100972A
:100D900009F0DACE0F90CF91DF910895DF93CF93D2
:100DA0000F92CDB7DEB789838981882F90E0835E6B
:100DB0009E4FFC018081813049F48981882F90E029
:100DC000835E9E4FFC01108281E001C080E00F90A5
:100DD000CF91DF9108951F920F920FB60F921124B9
:100DE0008F93DF93CF93CDB7DEB7809129018F5FCB
:100DF00080932901809129018E3110F010922901F0
:100E0000CF91DF918F910F900FBE0F901F9018958B
:100E1000DF93CF93CDB7DEB72D970FB6F894DEBF33
:100E20000FBECDBF81E590E02FE9FC01208380E378
:100E300090E09E838D8383E08B8780E390E09887AA
:100E40008F8384E08C871A8619861D86ECD1CE01AB
:100E500005969E01255F3F4FB901EDDDBDDDF7DB56
:100E6000CFD181E071DB80E06FDB82E06DDB1C8243
:100E70001B821A82198283E780932A018BE6809372
:100E80002B0184E780932C018091320180932D0106
:100E900082E080932E018CE280932F01109230012A
:100EA000789401C0000005D980913301882F90E02B
:100EB0008130910509F473C08230910509F4EBC0CB
:100EC000009781F780916100813079F410923501AB
:100ED0001092340110923701109236018091320144
:100EE0008E7F809332011092610080913401909145
:100EF000350101969093350180933401809134013E
:100F000090913501F7E280319F0730F080E05EDBA1
:100F10001092350110923401809136019091370181
:100F200023E0883E9207F0F083E780932A018BE666
:100F300080932B0184E780932C0183E080932D0123
:100F40008091320180932E0110922F011092300176
:100F5000109231018AE291E068E0C3D91092370122
:100F6000109236018091360190913701019690934D
:100F7000370180933601D7D9882381F084E09ED948
:100F8000882F90E084709070009741F081E080930A
:100F9000330181E08093610080E0D6DA30C1809136
:100FA0006100813051F41092350110923401109299
:100FB00037011092360110926100BFDDA5D9882358
:100FC00039F01092330181E08093610081E0BCDA56
:100FD0008091340190913501019690933501809371
:100FE00034018091340190913501E7E280319E0710
:100FF00030F081E0EBDA109235011092340180E09C
:10100000CDDE882329F08091320181608093320106
:101010008091360190913701F3E0883E9F07F0F010
:1010200083E780932A018BE680932B0184E78093EA
:101030002C0183E080932D018091320180932E0159
:1010400010922F0110923001109231018AE291E04A
:1010500068E047D91092370110923601809136012D
:1010600090913701019690933701809336015BD9B7
:10107000882381F084E022D9882F90E081709070DD
:10108000882341F082E08093330181E08093610006
:1010900081E05ADAB4C080916100813039F48091E6
:1010A0003201816080933201109261002DD9882332
:1010B00081F080E008DA82E006DA80E197E2E1D0B0
:1010C00080E042DA82E040DA1092330181E08093DE
:1010D0006100809134019091350101969093350122
:1010E00080933401809134019091350127E2803161
:1010F000920730F082E06ADA1092350110923401E2
:101100007CDC9C838B838B819C819A8389838B81FC
:101110009C81E1E082379E0760F18B819C81F5E53F
:1011200085359F0730F529813A81C901880F991FBC
:10113000880F991FAC01440F551F440F551F440FD2
:10114000551F840F951F821B930B865992432AE0EB
:1011500030E0B901B4D09B013A83298389819A8117
:1011600024E08130920738F080E094E09A8389830C
:1011700002C01A821982E1DC80E010DE882351F07F
:10118000809132018E7F809332011092330181E091
:10119000809361008091360190913701E3E0883EB1
:1011A0009E0718F183E780932A018BE680932B0139
:1011B00084E780932C0183E080932D01809132019C
:1011C00080932E0189819A81892F992780932F01FD
:1011D000898180933001109231018AE291E068E0C8
:1011E00080D810923701109236018091360190918B
:1011F000370101969093370180933601000053CE5A
:10120000DF93CF93CDB7DEB782E7809344018DE6BD
:101210008093450184E78093460184E491E01FD7E1
:10122000CF91DF910895DF93CF93CDB7DEB782E3FF
:1012300090E0909339018093380185E080934001DC
:1012400082E390E090933B0180933A0186E08093A3
:10125000410182E390E090933D0180933C0187E05F
:101260008093420110923F0110923E01109243017F
:1012700088E391E020E431E0B9015ED8CF91DF91BD
:101280000895DF93CF9300D000D0CDB7DEB79C8315
:101290008B831A82198205C089819A8101969A836B
:1012A000898329813A818B819C8182179307A0F7DA
:1012B0000F900F900F900F90CF91DF910895AA1B80
:1012C000BB1B51E107C0AA1FBB1FA617B70710F031
:1012D000A61BB70B881F991F5A95A9F78095909563
:0A12E000BC01CD010895F894FFCF82
:0212EA00010100
:00000001FF
