:1000000012C02CC02BC02AC029C028C027C026C0BF
:1000100025C0E1C023C07DC2B8C220C01FC01EC021
:100020001DC01CC01BC011241FBECFE5D4E0DEBF25
:10003000CDBF10E0A0E6B0E0E8ECF9E002C005902A
:100040000D92A236B107D9F711E0A2E6B0E001C0E7
:100050001D92A534B107E1F703D1B4C4D1CF81E03B
:1000600087B986EE86B9089524B145B1942F80E012
:1000700030E0282B392BC9010895CF93DF93EC0191
:1000800090936300809362007093650060936400B6
:1000900030E041E050E02FC0E833F10569F427B3C8
:1000A000A60FB71FCA010C9002C0880F991F0A94AF
:1000B000E2F7282B27BB1EC0E533F10569F424B312
:1000C000A60FB71FCA010C9002C0880F991F0A948F
:1000D000E2F7282B24BB0EC0F29761F421B3A60FE0
:1000E000B71FCA010C9002C0880F991F0A94E2F74B
:1000F000282B21BB3F5FA32FB0E0FD01EE0FFF1FB8
:10010000EC0FFD1F0190F081E02D309729F6DF9173
:10011000CF91089590E09C01220F331FE09162007F
:10012000F0916300E20FF31FA081B181E0916400C0
:10013000F0916500E80FF91F81E090E0008002C0B7
:10014000880F991F0A94E2F72C91282B2C9308957D
:1001500090E09C01220F331FE0916200F091630058
:10016000E20FF31FA081B181E0916400F09165007E
:10017000E80FF91F81E090E0008002C0880F991F0E
:100180000A94E2F780952C9128232C93089590E00F
:100190009C01220F331FE0916200F0916300E20F97
:1001A000F31FA081B181E0916400F0916500E80F38
:1001B000F91F81E090E0008002C0880F991F0A9427
:1001C000E2F72C9128272C93089585E083BF89B707
:1001D000816089BF08951F920F920FB60F9211246C
:1001E0008F93809177008F5F809377008E3110F02E
:1001F000109277008F910F900FBE0F901F9018955F
:1002000082E390E090936B0080936A0025E0209356
:10021000660090936D0080936C0026E02093670049
:1002200090936F0080936E0087E080936800109237
:10023000710010927000109269008AE690E066E604
:1002400070E01BDF089582E7809372008DE6809353
:10025000730084E78093740082E790E0F4D20895FD
:10026000AF92BF92CF92DF92EF92FF920F931F93C4
:10027000DF93CF93CDB7DEB729970FB6F894DEBFE3
:100280000FBECDBF8FE981BF20E330E03D832C83DB
:1002900083E089833F832E8384E08A8319861886CE
:1002A0001B82AEDFCE010496BE016F5F7F4FDBD2B3
:1002B000D6DE8BDFC8DF81E04BDF80E049DF82E004
:1002C00047DF83E7809378008BE68093790084E7AB
:1002D00080937A008091750080937B0082E0809308
:1002E0007C008CE280937D0010927E007894FF2445
:1002F000F39443E7B42E3BE6C32E24E7D22E93E0DB
:10030000E92E82E0A82E7ED280917600813009F419
:100310004FC0813018F08230B1F7A9C080916000E1
:10032000813089F410928100109280001092830035
:1003300010928200809175008E7F8093750080E01E
:1003400007DF109260008091820090918300885EA8
:100350009340D0F0B0927800C0927900D0927A00A9
:10036000E0927B008091750080937C0010927D006C
:1003700010927E0010927F0088E790E068E0A7D19D
:1003800010928300109282008091820090918300ED
:100390000196909383008093820096D1882309F47C
:1003A000B2CF84E086D182FFAECFF0927600AEC0AD
:1003B00080916000813051F4109281001092800091
:1003C00010928300109282001092600074D280918B
:1003D000800090918100019690938100809380002D
:1003E0008051974230F080E0D2DE1092810010926E
:1003F000800080E0DBD2882329F080917500816045
:10040000809375008091820090918300885E934074
:10041000D0F0B0927800C0927900D0927A00E09249
:100420007B008091750080937C0010927D0010927B
:100430007E0010927F0088E790E068E048D110923B
:100440008300109282008091820090918300019637
:10045000909383008093820037D1882309F453CF8F
:1004600084E027D180FF4FCFA09276004FC08091CB
:100470006000813049F4809175008160809375003F
:1004800080E048DE10926000EFDD8C0114D280E045
:100490008DD2882329F0809175008E7F809375001E
:1004A0008091820090918300885E9340D0F0B0925A
:1004B0007800C0927900D0927A00E0927B0080911F
:1004C000750080937C0010937D0000937E00109255
:1004D0007F0088E790E068E0FAD0109283001092E5
:1004E0008200809182009091830001969093830016
:1004F00080938200E9D0882309F405CF84E0D9D025
:1005000080FD01CF81E006DE10927600F09260005F
:10051000FACE1F920F920FB60F9211242F933F9392
:100520004F935F938F939F93EF93FF934091860038
:1005300050918500842F90E00196252F30E082179E
:10054000930721F0413351F4552329F48CB181E014
:100550008093840006C01092860003C04F5F4093D2
:1005600086008CB1E0918600F0E0E757FF4F808372
:10057000FF91EF919F918F915F914F913F912F91BB
:100580000F900FBE0F901F9018951F920F920FB6ED
:100590000F9211248F939F93EF93FF939091880074
:1005A00080918700981711F455980FC0913319F472
:1005B0001092880003C09F5F90938800E0918800AC
:1005C000F0E0E554FF4F80818CB9FF91EF919F914E
:1005D0008F910F900FBE0F901F90189510BC80E365
:1005E00089B988E98AB987E880BD1BB808959091D8
:1005F0008700292F30E02F5F3F4F60918800462F02
:1006000050E024173507A9F0923319F46623C9F393
:1006100005C0913319F41092870003C09F5F909337
:100620008700E0918700F0E0E554FF4F8083559A02
:100630000895FFCF40E02091870030E02F5F3F4FCB
:100640008091880090E02817390709F041E0842F55
:1006500008950F931F93CF93DF93062FEC0110E0C3
:1006600003C08991C4DF1F5F1017D9F7DF91CF91C5
:100670001F910F910895DC01909185008091860073
:10068000981711F480E00895913319F410928500C1
:1006900003C09F5F90938500E0918500F0E0E757ED
:1006A000FF4F80818C9381E00895809184000895AC
:1006B00008951092ED00E7EFF0E0E80FF11D808162
:1006C00008958091610008958091ED000895C1DF43
:1006D0000895EF92FF920F931F9394E0E92E06E0A6
:1006E00011E083E0F82E83C08091F300833009F499
:1006F0004EC0843058F4813011F19091F000E091B7
:100700002901F0912A01823090F50AC0853009F460
:100710005DC0853008F44CC0863009F05EC059C019
:100720001092F2001092F1008081981709F057C0E2
:100730009093F7001093F2001093F30050C0909143
:10074000F000E0912901F0912A018181981709F0C8
:1007500044C08091F200E82FF0E0E950FF4F908311
:100760008F5F8093F20082E08093F30038C0828133
:10077000981799F58091F200E82FF0E0E950FF4FCB
:1007800090838F5F8093F200F092F30028C0E09294
:10079000F3008091F2009091F000E82FF0E0E95032
:1007A000FF4F90839093F1008F5F8093F20017C00A
:1007B0008091F200E82FF0E0E950FF4F9091F000B7
:1007C00090838F5F8093F200873048F00093F300AE
:1007D00006C01093EE0082E0DADC1092F300809104
:1007E000F200833320F01092F2001093EF0080EFBC
:1007F00090E041DF882309F077CF1F910F91FF90A0
:10080000EF90089566DF8091EE00882361F01092EA
:10081000F5001092F400109261001092EE0081E059
:100820008093ED0008958091F4009091F500019679
:100830009093F5008093F4008055934C19F481E077
:100840008093610008950F931F938C0180E062DC18
:1008500010932A0100932901C1DE81E08093F60004
:100860001F910F910895AC0190932E0180932D015B
:100870007093300160932F0120E011C0E633F10541
:1008800019F487B387BB0AC0E333F10519F484B3C5
:1008900084BB04C0F09711F481B381BB2F5FE22FBA
:1008A000F0E0EE0FFF1FE40FF51F0190F081E02D47
:1008B000309721F70895EF92FF920F931F93CF93F4
:1008C000DF9300912D0110912E0140912F01509145
:1008D000300120912B0130912C0160E072E0EE2478
:1008E000E394E3E0FE2E4AC0ED01CF5CDE4F888149
:1008F0008130A9F0813028F08230D9F08330E9F5D9
:1009000026C0808190E0A40FB51F0C9002C0959581
:1009100087950A94E2F780FD30C0E8822CC02F5FF3
:100920003F4F2A30310549F57883A55CBE4F8C9343
:1009300022C0808190E0A40FB51F0C9002C0959555
:1009400087950A94E2F780FF18C0F88214C02F5FE1
:100950003F4F2A30310589F4808190E0A40FB51F04
:100960000C9002C0959587950A94E2F780FF02C02B
:10097000188201C0788320E030E06F5FA62FB0E0DE
:10098000FD01EE0FFF1FE00FF11F0190F081E02D40
:10099000309709F0A9CF30932C0120932B01DF91E0
:1009A000CF911F910F91FF90EF900895E82FF0E005
:1009B000E55CFE4F8081813011F080E00895108267
:0809C00081E00895F894FFCFD7
:0209C80001012B
:00000001FF
