:1000000012C02CC02BC02AC029C028C027C026C0BF
:1000100025C083C523C07AC3CDC320C01FC01EC066
:100020001DC01CC01BC011241FBECFE5D4E0DEBF25
:10003000CDBF10E0A0E6B0E0E6EAFFE002C0059028
:100040000D92A236B107D9F711E0A2E6B0E001C0E7
:100050001D92A433B107E1F788D5A3C7D1CFDF93B1
:10006000CF9300D0CDB7DEB79A83898389819A81F7
:1000700090939B0080939A00E1D381E08093650088
:100080000F900F90CF91DF910895DF93CF9300D021
:1000900000D00F92CDB7DEB79A8389837C836B83C0
:1000A0004D830F900F900F900F900F90CF91DF9195
:1000B0000895DF93CF93CDB7DEB725D0809162004E
:1000C000882351F010929D0010929C0010926200C3
:1000D00081E08093630014C080919C0090919D000A
:1000E000019690939D0080939C0080919C0090913C
:1000F0009D0023E18838920719F481E08093600025
:10010000CF91DF910895DF93CF93CDB7DEB7CDC008
:1001100080919E00882F90E08330910509F47EC085
:100120008430910554F481309105B1F1823091050C
:100130000CF053C0009771F0A9C08530910509F407
:100140009BC0853091050CF480C08630910509F480
:1001500097C09CC010929F001092A00080919A00BE
:1001600090919B00FC0190818091A100981709F06B
:1001700090C080919F00882F90E02091A100885925
:100180009F4FFC01208380919F008F5F80939F0091
:1001900081E080939E0080C080919A0090919B00A6
:1001A0000196FC0190818091A100981799F48091AB
:1001B0009F00882F90E02091A10088599F4FFC015B
:1001C000208380919F008F5F80939F0082E08093C7
:1001D0009E0062C010929E005FC080919A00909134
:1001E0009B000296FC0190818091A100981799F4E0
:1001F00080919F00882F90E02091A10088599F4F07
:10020000FC01208380919F008F5F80939F0083E09B
:1002100080939E0041C010929E003EC084E0809377
:100220009E0080919F00882F90E02091A100885926
:100230009F4FFC0120838091A1008093A0008091BA
:100240009F008F5F80939F0027C080919F00882F21
:1002500090E02091A10088599F4FFC01208380915C
:100260009F008F5F80939F0080919F00873098F060
:1002700086E080939E0010C086E080939E000CC0B4
:1002800081E08093620010929E0006C010929E0052
:1002900003C0000001C0000080919F00833328F05C
:1002A00010929F0081E08093640081EA90E05ED329
:1002B000882309F02DCFCF91DF910895DF93CF935D
:1002C0000F92CDB7DEB78983109263008981882FA2
:1002D00090E088599F4FFC0180810F90CF91DF9172
:1002E0000895DF93CF9300D00F92CDB7DEB79A83F6
:1002F00089836B8389819A816B8115D30F900F90CD
:100300000F90CF91DF910895DF93CF930F92CDB7E8
:10031000DEB78091600089831092600089810F9020
:10032000CF91DF910895DF93CF93CDB7DEB7809162
:100330006300CF91DF910895DF93CF9300D000D079
:100340000F92CDB7DEB79B838A837D836C838A81CE
:100350009B819093A3008093A2008C819D819093B8
:10036000A5008093A400198295C02091A20030912D
:10037000A3008981882F90E0880F991F820F931F17
:10038000FC01808191818833910501F587E390E03C
:1003900027E330E0F9012081622F4091A4005091C1
:1003A000A5002981222F30E0240F351FF90120817B
:1003B000422F50E021E030E0042E02C0220F331F14
:1003C0000A94E2F7262BFC01208361C02091A20051
:1003D0003091A3008981882F90E0880F991F820FA8
:1003E000931FFC01808191818533910501F584E3A0
:1003F00090E024E330E0F9012081622F4091A400D5
:100400005091A5002981222F30E0240F351FF901DA
:100410002081422F50E021E030E0042E02C0220F64
:10042000331F0A94E2F7262BFC01208330C0209171
:10043000A2003091A3008981882F90E0880F991F36
:10044000820F931FFC018081918182339105F9F421
:1004500081E390E021E330E0F9012081622F4091B7
:10046000A4005091A5002981222F30E0240F351FD0
:10047000F9012081422F50E021E030E0042E02C03B
:10048000220F331F0A94E2F7262BFC012083898177
:100490008F5F89832091A2003091A3008981882FEA
:1004A00090E0880F991F820F931FFC01808191813A
:1004B000009709F05ACF0F900F900F900F900F9068
:1004C000CF91DF910895DF93CF930F92CDB7DEB731
:1004D00089832091A2003091A3008981882F90E028
:1004E000880F991F820F931FFC0180819181409199
:1004F000A2005091A3002981222F30E0220F331F48
:10050000240F351FF90120813181F9012081622FEB
:100510004091A4005091A5002981222F30E0240FA2
:10052000351FF9012081422F50E021E030E0042EF8
:1005300002C0220F331F0A94E2F7262BFC0120830E
:100540000F90CF91DF910895DF93CF930F92CDB7A6
:10055000DEB789832091A2003091A3008981882F82
:1005600090E0880F991F820F931FFC018081918179
:100570004091A2005091A3002981222F30E0220F48
:10058000331F240F351FF90120813181F9012081AA
:10059000622F4091A4005091A5002981222F30E0C4
:1005A000240F351FF9012081422F50E021E030E077
:1005B000042E02C0220F331F0A94E2F7209526234F
:1005C000FC0120830F90CF91DF910895DF93CF93AB
:1005D0000F92CDB7DEB789832091A2003091A3009E
:1005E0008981882F90E0880F991F820F931FFC014B
:1005F000808191814091A2005091A3002981222FF6
:1006000030E0220F331F240F351FF9012081318183
:10061000F9012081622F4091A4005091A500298109
:10062000222F30E0240F351FF9012081422F50E0A6
:1006300021E030E0042E02C0220F331F0A94E2F7BB
:100640002627FC0120830F90CF91DF910895DF933F
:10065000CF93CDB7DEB783E590E025E0FC012083A2
:1006600089E590E029E530E0F90120812160FC0175
:100670002083CF91DF910895DF93CF93CDB7DEB77D
:1006800087E390E027E330E0F90120812860FC0156
:10069000208382E490E0FC01108283E490E024E671
:1006A000FC01208385E490E02EE1FC01208383E4BB
:1006B00090E024E6FC012083CF91DF910895DF9341
:1006C000CF930F92CDB7DEB7898383E490E0298181
:1006D000FC0120830F90CF91DF910895DF93CF939A
:1006E000CDB7DEB785E490E02EE1FC012083CF9109
:1006F000DF910895DF93CF93CDB7DEB785E490E027
:1007000028E1FC012083CF91DF9108951F920F9281
:100710000FB60F9211242F933F938F939F93EF93D4
:10072000FF93DF93CF93CDB7DEB78091D900882FA9
:1007300090E09C012F5F3F4F8091D800882F90E080
:100740002817390741F08091D900813371F48091E5
:10075000D800882351F48CE290E0FC0180818093E2
:100760000E0181E080930E010CC08091D90081338D
:1007700019F41092D90005C08091D9008F5F809341
:10078000D9008091D900882F90E02CE230E0F90167
:1007900020818A559F4FFC012083CF91DF91FF91EB
:1007A000EF919F918F913F912F910F900FBE0F90DE
:1007B0001F9018951F920F920FB60F9211242F932E
:1007C0003F938F939F93EF93FF93DF93CF93CDB797
:1007D000DEB790910C0180910D01981751F48AE2D7
:1007E00090E02AE230E0F90120812F7DFC01208396
:1007F00018C080910C01813319F410920C0105C0CE
:1008000080910C018F5F80930C018CE290E020912D
:100810000C01222F30E026523F4FF9012081FC01CC
:100820002083CF91DF91FF91EF919F918F913F9125
:100830002F910F900FBE0F901F901895DF93CF93BD
:10084000CDB7DEB780E490E0FC01108289E290E051
:1008500020E3FC0120838AE290E028E9FC01208368
:1008600080E490E027E8FC0120838BE290E0FC012B
:100870001082CF91DF910895DF93CF930F92CDB780
:10088000DEB78983000080910D01882F90E09C01E4
:100890002F5F3F4F80910C01882F90E02817390778
:1008A00091F380910D01823321F480910C01882312
:1008B00051F380910D01813319F410920D0105C09F
:1008C00080910D018F5F80930D0180910D01882F24
:1008D00090E086529F4F2981FC0120838AE290E0BC
:1008E0002AE230E0F90120812062FC0120830F9090
:1008F000CF91DF910895DF93CF93CDB7DEB780918D
:100900000D01882F90E09C012F5F3F4F80910C01DB
:10091000882F90E02817390711F081E001C080E0AE
:10092000CF91DF910895DF93CF9300D000D0CDB762
:10093000DEB79B838A836C8319820DC08981882FDF
:1009400090E02A813B81820F931FFC01808194DF1C
:1009500089818F5F898399818C81981779F70F90AE
:100960000F900F900F90CF91DF910895DF93CF9369
:1009700000D0CDB7DEB79A8389839091D80080915B
:10098000D9009817D1F08091D800813319F41092D2
:10099000D80005C08091D8008F5F8093D8008091E7
:1009A000D800882F90E08A559F4FFC0120818981D3
:1009B0009A81FC01208381E001C080E00F900F90BC
:1009C000CF91DF910895DF93CF93CDB7DEB78091BC
:1009D0000E01CF91DF910895DF93CF93CDB7DEB7AE
:1009E00081E390E021E330E0F9012081FC012083E4
:1009F000CF91DF910895DF93CF93CDB7DEB780E33A
:100A000090E0FC018081882F90E0807190700097C9
:100A100019F481E080930F01CF91DF910895DF9366
:100A2000CF93CDB7DEB710920F01CF91DF9108952C
:100A3000DF93CF93CDB7DEB780910F01CF91DF91D8
:100A40000895DF93CF93CDB7DEB787E390E027E338
:100A500030E0F90120812160FC012083CF91DF91FA
:100A60000895DF93CF93CDB7DEB788E390E028E316
:100A700030E0F90120812160FC012083CF91DF91DA
:100A80000895DF93CF93CDB7DEB788E390E028E3F6
:100A900030E0F90120812E7FFC012083CF91DF918E
:100AA0000895DF93CF93CDB7DEB710921101109266
:100AB000100180E593EC9093130180931201D1DF34
:100AC000CF91DF910895DF93CF93CDB7DEB78091BB
:100AD0001201909113010097E9F08091100190911B
:100AE0001101019690931101809310012091100142
:100AF000309111018091120190911301281739074B
:100B000049F4BFDF109211011092100110921301ED
:100B100010921201CF91DF9108951F920F920FB69C
:100B20000F9211248F939F93DF93CF93CDB7DEB7AE
:100B30008091140190911501019690931501809375
:100B4000140180911401909115018E31910520F0CE
:100B50001092150110921401CF91DF919F918F9106
:100B60000F900FBE0F901F901895DF93CF9300D07A
:100B7000CDB7DEB704D131D16ADD42D12DDF61DFDF
:100B80001A821982789495DA9EDF35DF51DF882347
:100B900011F087DF44DF80913001882F90E08130B1
:100BA0009105A9F18230910509F487C0009709F0F9
:100BB000E5C080916100813069F480911E018E7FD3
:100BC00080931E0180911E018B7F80931E01BED1F8
:100BD0001092610081E077DC89819A8101969A8385
:100BE000898389819A8127E28031920720F080E011
:100BF000EDDC1A82198297DB882341F081E0809333
:100C0000300180E0A1DC81E080936100B7C0809179
:100C10006100813039F480911E01846080931E014F
:100C20001092610089819A8101969A8389838981D2
:100C30009A8127E28031920720F081E0C7DC1A8296
:100C4000198271DB882351F184E038DB882F90E032
:100C500081709070882341F082E08093300181E0C0
:100C60008093610081E02FDC82E7809316018DE69E
:100C70008093170184E78093180183E08093190122
:100C800080911E0180931A0110921B0110921C0189
:100C900010921D0186E191E068E023DB35DB8823BB
:100CA00059F080E090E00AD151D11092300181E0FA
:100CB0008093610081E007DC61C080916100813038
:100CC00049F480911E01816080931E0135D1E9DED7
:100CD0001092610089819A8101969A838983898122
:100CE0009A8127E28031920720F082E06FDC1A823D
:100CF000198219DB882399F1C1D084E0DFDA882FCB
:100D000090E081709070009761F480911E018E7F59
:100D100080931E011092300181E08093610082E097
:100D200013DC82E7809316018DE68093170184E738
:100D30008093180183E08093190180911E018093B4
:100D40001A0185E0BBDA80931B0186E0B7DA809355
:100D50001C0110921D0186E191E068E0C2DAD4DA4C
:100D6000882359F080E090E0A9D0F0D010923001B3
:100D700081E08093610082E0E7DB000004CFDF9335
:100D8000CF93CDB7DEB782E390E0909325018093B7
:100D9000240185E080932C0182E390E09093270169
:100DA0008093260186E080932D0182E390E090936A
:100DB00029018093280187E080932E0110922B0156
:100DC00010922A0110922F0184E291E02CE231E08E
:100DD000B901B2DACF91DF910895DF93CF93CDB708
:100DE000DEB783E7809321018BE68093220184E7BD
:100DF0008093230181E291E032D9CF91DF91089570
:100E0000DF93CF93CDB7DEB78FE490E020EAFC010B
:100E100020838EE490E021E1FC0120838DE490E0CA
:100E2000FC0110828CE490E0FC01108286E490E0EA
:100E300028EC30E0FC01318320838BE490E0FC015E
:100E400010828AE490E0FC01108289E490E0FC01C9
:100E5000108288E490E0FC01108287E390E022E0B9
:100E6000FC01208387E290E0FC01108286E290E0A2
:100E700026EEFC012083CF91DF9108950F931F93FD
:100E8000DF93CF93CDB7DEB785E018DA882F90E0F7
:100E9000182F002786E012DA882F90E0802B912B04
:100EA000909333018093320180913201909133010C
:100EB00005D0CF91DF911F910F9108950F931F934C
:100EC000DF93CF9300D000D000D0CDB7DEB79E83A4
:100ED0008D8380913101813021F588EC90E0A0E094
:100EE000B0E089839A83AB83BC830AE410E08D81F0
:100EF0009E81CC01A0E0B0E029813A814B815C81E8
:100F0000BC01CD012FD0DC01CB01072E7AE0B695D4
:100F1000A795979587957A95D1F7702DF8019183CC
:100F2000808326960FB6F894DEBF0FBECDBFCF915B
:100F3000DF911F910F910895DF93CF93CDB7DEB767
:100F400081E080933101CF91DF910895DF93CF93BA
:100F5000CDB7DEB780E090E0B1DF10923101CF91E4
:100F6000DF910895629FD001739FF001829FE00D91
:100F7000F11D649FE00DF11D929FF00D839FF00D18
:100F8000749FF00D659FF00D9927729FB00DE11DC4
:100F9000F91F639FB00DE11DF91FBD01CF011124A1
:060FA0000895F894FFCF54
:020FA600010147
:00000001FF
