:10000000002000209D240000B19C0000B19C000055
:10001000B19C0000B19C0000B19C0000B19C0000AC
:10002000B19C0000B19C0000B19C0000B19C00009C
:10003000B19C0000B19C0000B19C0000B19C00008C
:10004000B19C0000B19C0000B19C0000B19C00007C
:10005000B19C0000B19C0000B19C0000B19C00006C
:10006000B19C0000B19C0000B19C0000B19C00005C
:10007000B19C0000B19C0000B19C0000B19C00004C
:10008000B19C0000B19C0000B19C0000B19C00003C
:10009000B19C0000B19C0000B19C0000B19C00002C
:1000A000B19C0000B19C0000B19C0000B19C00001C
:1000B000B19C0000B19C0000B19C0000B19C00000C
:1000C000010000000020004001000000002001406D
:1000D000010000000048004001000000004801400D
:1000E0000100000001000000080002230000087663
:1000F000080003230000107608000423000028767F
:10010000080005230000307605000623000020705B
:100110000500072300003070050008230000607010
:100120000500FF230000707010000A22000010512B
:1001300010000B220000305110000C220000505122
:100140001000FF220000F05100020E22000000000B
:1001500080000F2200008004800110220000000AAD
:10016000800011220000000C800012220000800E8E
:10017000800113220000001A000214220000004037
:1001800000011522000000448000162200000047F4
:100190008000FF22000000490800182300003045BD
:1001A00020001923000070642000FF230000706508
:1001B00008001B230000005180001C2300000002E7
:1001C00080001D230000800280001E230000000428
:1001D00080001F230000000680002023000080060E
:1001E00080002123000000088000222300008008F6
:1001F000800023230000800C800024230000000ED8
:1002000080002523000000148000262300008014B5
:10021000800027230000001680002823000080169D
:10022000800029230000001880002A230000801885
:1002300080002B230000004D80002C230000804D07
:1002400080002D230000004C80002E230000804CF5
:1002500080002F23000080478000302300000046EC
:1002600080003123000080468000322300000045DA
:100270008000332300008045800034230000801B71
:100280008000352300000015800036230000801513
:1002900080003723000000198000382300008019F7
:1002A000800039230000001780003A2300008017E7
:1002B00080003B230000000980003C2300008009EF
:1002C00080003D230000000780003E2300008007DF
:1002D00080003F230000800B8000402300000005C9
:1002E0008000412300008005800042230000000DB3
:1002F000800043230000800D8000442300000003A1
:100300008000452300008003800046230000000F8A
:10031000800047230000800F8000482300008049B0
:10032000800049230000004880004A2300008048E4
:1003300080004B230000004380004C2300008043DA
:1003400080004D230000004280004E2300008042C8
:1003500010004F23000010501000FF230000005039
:1003600080B51448144B21E05C689968DD688C42C4
:100370000CD0002205E0A6180832D6E9008941E930
:1003800002898C460831AA42F5D101E004EB050C44
:100390001C696146002204E008320026002741E97A
:1003A00002670831A242F7D1143301380028DBD1AB
:1003B00009F044FC01000000F4A100004EF2486383
:1003C000C1F6FF731A780AB901201870704700BF90
:1003D0004EF20010C1F6FF7008B503682BB140F271
:1003E0000003C0F2000303B1984708BD00000000FD
:1003F00080B586B004AF62B640F62550C0F200006A
:1004000003F04CF802F0DEFF4EF26063C1F6FF73BA
:100410004FF073021A704EF26063C1F6FF734FF033
:100420006B025A704EF26063C1F6FF734FF07402B4
:100430009A704EF26060C1F6FF7001F0D5FC03F0D7
:10044000F3F849F61850C0F2000003F011FA40F634
:100450000D50C0F2000003F087F803F0D9F800F067
:10046000D1FF4FF4FA7002F0BFF800F0B3FF4FF085
:10047000FA0002F0B9F84FF000037B6000E000BF23
:100480004EF25863C1F6FF731B687B6000F0D2FF29
:1004900001F012FF01F0C0FC01F0BEF900F054FCC5
:1004A0004EF20413C1F6FF731B7803F1FF33042BE4
:1004B00000F2738301A252F823F000BFD1040000C0
:1004C000BD050000FF0600005F080000C509000030
:1004D0004EF26363C1F6FF731B78012B52D049F6CD
:1004E0002C50C0F2000003F0C3F94EF25663C1F67F
:1004F000FF731B781A4602F0FE024EF25663C1F6F5
:10050000FF731A704EF25663C1F6FF731B781A46DA
:1005100002F0FB024EF25663C1F6FF731A704FF001
:1005200001004FF002010FF29863D3E9002300F0BD
:10053000FFFF4FF000004FF000014FF000024FF0BE
:10054000000300F0F5FF4FF002004FF000014FF004
:1005500000024FF0000300F0EBFF4FF005004FF0FA
:1005600000014FF000024FF0000300F0E1FF00F047
:10057000FBFE00F0F9FE4EF26363C1F6FF734FF02D
:1005800001021A7001F080FE0346002B00F0FE828B
:100590004EF24C60C1F6FF7000F060FB4EF24C6012
:1005A000C1F6FF704FF00A0101F052FE4EF2041343
:1005B000C1F6FF734FF002021A70EEE24EF263636F
:1005C000C1F6FF731B78022B4AD049F64C50C0F29B
:1005D000000003F04DF94EF25663C1F6FF731B782D
:1005E00043F00403DAB24EF25663C1F6FF731A7099
:1005F0004FF001004FF001014FF000024FF00003F7
:1006000000F096FF4FF000004FF000014FF00002A5
:100610004FF0000300F08CFF4FF002004FF000019C
:100620004FF000024FF0000300F082FF4FF0050092
:100630004FF000014FF000024FF0000300F078FF90
:100640004EF26363C1F6FF731B78032B01D000F0F9
:100650008BFE4EF26363C1F6FF734FF002021A7015
:1006600001F012FE0346002B3BD04FF0040001F0D6
:10067000DDFD034603F00103DBB2002B06D04EF292
:100680000413C1F6FF734FF003021A7000F0A0FAD2
:1006900000F0C0FA00F0D0FA0346002B13D04EF25F
:1006A0000413C1F6FF734FF004021A704EF2566342
:1006B000C1F6FF731B7843F00203DAB24EF25663C1
:1006C000C1F6FF731A704EF24C60C1F6FF7000F075
:1006D000C5FA4EF24C60C1F6FF704FF00A0101F00E
:1006E000B7FD01F0C5FD0346002B00F051824EF22C
:1006F0000413C1F6FF734FF001021A704DE24EF27F
:100700006363C1F6FF731B78032B47D049F6705023
:10071000C0F2000003F0ACF84EF25663C1F6FF736E
:100720001B7843F00103DAB24EF25663C1F6FF7351
:100730001A704FF001004FF001014FF000024FF02E
:10074000000300F0F5FE4FF000004FF000014FF005
:1007500000024FF0000300F0EBFE4FF002004FF0FC
:1007600001014FF000024FF0000300F0E1FE4FF0F6
:1007700005004FF001014FF000024FF0000300F0C0
:10078000D7FE4FF0000000F001FE01F015FB4EF225
:100790006363C1F6FF734FF003021A7001F074FD3A
:1007A0000346002B3AD04FF0040001F03FFD034612
:1007B00003F00103002B1FD149F69450C0F2000052
:1007C00003F056F84EF25663C1F6FF731B781A46D3
:1007D00002F0FE024EF25663C1F6FF731A704FF03C
:1007E000010000F0D3FD01F0F3FA4EF20413C1F65C
:1007F000FF734FF002021A7000F0EAF900F00AFAF3
:100800004EF24C60C1F6FF7000F028FA4EF24C60D8
:10081000C1F6FF704FF00A0101F01AFD01F028FD4A
:100820000346002B00F0B6814EF25663C1F6FF730B
:100830001B781A4602F0FE024EF25663C1F6FF73B1
:100840001A7001F0C5FA4FF0010000F09FFD4EF262
:100850000413C1F6FF734FF001021A709DE14EF2CE
:100860006363C1F6FF731B78042B43D049F6BC5079
:10087000C0F2000002F0FCFF02F064FE02F0C8FECD
:1008800002F0AEFE4FF001004FF000014FF0000209
:100890004FF0000300F04CFE4FF000004FF001015C
:1008A0004FF000024FF0000300F042FE4FF0020054
:1008B0004FF000014FF000024FF0000300F038FE4F
:1008C00000F07CFD4FF005004FF000014FF00002FA
:1008D0004FF0000300F02CFE4EF26463C1F6FF738C
:1008E0004FF000021A704EF26363C1F6FF734FF0CF
:1008F00004021A704EF25C63C1F6FF731B78002B82
:100900002AD04EF25C63C1F6FF734FF000021A70FA
:100910004EF26463C1F6FF731B7803F10103DAB290
:100920004EF26463C1F6FF731A7002F00BFE02F020
:100930006FFE02F055FE4EF26463C1F6FF731B7842
:10094000022B07D94EF20413C1F6FF734FF00502D4
:100950001A7001E000F008FD01F096FC0346002B40
:1009600000F01A8100F034F900F054F900F064F955
:100970000346002B17D14FF0000000F0E5FC4EF2CB
:100980005663C1F6FF731B781A4602F0FD024EF261
:100990005663C1F6FF731A704EF20413C1F6FF736B
:1009A0004FF002021A704EF24C60C1F6FF7000F078
:1009B00055F94EF24C60C1F6FF704FF00A0101F09C
:1009C00047FCEAE04EF26363C1F6FF731A784EF219
:1009D0000413C1F6FF731B789A423FD049F6E450E6
:1009E000C0F2000002F044FF4FF0010000F0ACFC48
:1009F0004FF005004FF001014FF000024FF00003EF
:100A000000F096FD4FF003004FF002014FF000029E
:100A10004FF0804303F5D20300F08AFD4FF004004D
:100A20004FF002014FF000024FF0804303F5D20374
:100A300000F07EFD4EF25863C1F6FF731A684EF265
:100A40006863C1F6FF731A604EF20413C1F6FF73B8
:100A50001A784EF26363C1F6FF731A704EF2686340
:100A6000C1F6FF731B68184603F09EFF02460B4653
:100A70001046194654A3D3E9002303F059FE024659
:100A80000B46104619464EF25863C1F6FF731B68B9
:100A9000CDE9000102934EF2CC70C1F6FF704FF029
:100AA000C80149F61062C0F2000204F007FC4EF2E1
:100AB000CC70C1F6FF7002F0DBFE01F0E5FB0346EF
:100AC000002B30D000F084F800F0A4F800F0B4F867
:100AD0000346002B19D14FF0000000F035FC4EF218
:100AE0005663C1F6FF731B781A4602F0FD024EF200
:100AF0005663C1F6FF731A7000F0BEFD4EF2041388
:100B0000C1F6FF734FF002021A704EF24C60C1F64C
:100B1000FF7000F0A3F84EF24C60C1F6FF704FF08A
:100B20000A0101F095FB4EF26863C1F6FF731B6882
:100B3000184603F039FF02460B461046194622A319
:100B4000D3E9002303F0F4FD02460B461046194694
:100B500004F062FA02464EF25863C1F6FF731B6856
:100B60009A421AD849F64460C0F2000002F080FEB2
:100B70004FF0000000F0E8FB00F07EFD4EF20413A1
:100B8000C1F6FF734FF004021A7006E000BF04E0E4
:100B900000BF02E000BF00E000BF4EF25863C1F6A4
:100BA000FF731B687A689A427FF469AC4EF258630F
:100BB000C1F6FF731B687A689A42F7D060E400BF01
:100BC0000000000000407F400000000000408F4017
:100BD00080B500AF4FF0040001F028FB034603F09E
:100BE0000803002B09D000F065FD0346002B0ED151
:100BF00000F0EAFC00F0B8FB0AE000F05BFD034601
:100C0000012B05D100F038FD00F0AEFB00E000BF85
:100C100080BD00BF80B500AF4FF0040001F006FBBF
:100C2000034603F01003002B05D000F09DFB00F0FD
:100C3000A1FC00F0C9FC80BD80B500AF4FF00400FE
:100C400001F0F4FA034603F00203002B02D04FF048
:100C5000010301E04FF00003184680BD90B585B058
:100C600000AF78607B684FF072021A707B6803F106
:100C700001034FF06D021A707B6803F102034FF01D
:100C800074021A707B6803F103034FF003021A70B9
:100C90007B6803F104024EF25663C1F6FF731B78C2
:100CA00013707B6803F105044FF0050001F0BEFAF4
:100CB000034623707B6803F106044FF0060001F041
:100CC000B5FA0346237001F0DBFB02460B461046E3
:100CD000194604F0A1F90346FB817B6803F1070381
:100CE000FA894FEA122292B2D2B21A707B6803F1EB
:100CF0000803FA89D2B21A707B6803F109034FF036
:100D000000021A7007F11407BD4690BD80B500AF10
:100D10004EF25C63C1F6FF734FF001021A7002F0ED
:100D20006BFC80BD80B400AF4EF25863C1F6FF7318
:100D30001B6803F101024EF25863C1F6FF731A609B
:100D4000BD4680BC704700BF80B500AF4EF27163F6
:100D5000C1F6FF731B78082B00F2E98201A252F85A
:100D600023F000BF890D0000990D0000690E0000FE
:100D7000010F0000950F00000F100000B3110000DC
:100D80002D120000A11200004EF27163C1F6FF7334
:100D90004FF001021A70CAE24EF27263C1F6FF739D
:100DA0001B78012B08D001F083FE4EF27263C1F66E
:100DB000FF734FF001021A704EF26D63C1F6FF73BC
:100DC0001B78002B0ED04EF27163C1F6FF734FF00B
:100DD00005021A704EF26D63C1F6FF734FF0000208
:100DE0001A70A4E24EF26E63C1F6FF731B78002BFB
:100DF00007D04EF27163C1F6FF734FF002021A7012
:100E000095E24EF27063C1F6FF731B78002B14D08D
:100E10004EF27163C1F6FF734FF004021A704EF286
:100E20007063C1F6FF731B7803F1FF33DAB24EF241
:100E30007063C1F6FF731A7079E24EF26F63C1F608
:100E4000FF731B78002B00F065824EF27163C1F6D0
:100E5000FF734FF006021A704EF26F63C1F6FF7314
:100E60004FF000021A7062E24EF27263C1F6FF7335
:100E70001B78022B1AD001F08FFD41F2707001F047
:100E80004FFE40F6B83001F05BFE4EF27463C1F6DF
:100E9000FF731A684EF27863C1F6FF731A604EF260
:100EA0007263C1F6FF734FF002021A704EF26E6366
:100EB000C1F6FF731B78002B07D14EF27163C1F6A8
:100EC000FF734FF001021A7031E24EF27863C1F6FF
:100ED000FF731A684EF20813C1F6FF731B681A44B9
:100EE0004EF27463C1F6FF731B689A4200F21482DB
:100EF0004EF27163C1F6FF734FF003021A7016E2EF
:100F00004EF27263C1F6FF731B78032B18D041F6C3
:100F1000641001F005FE40F6B24001F011FE4EF201
:100F20007463C1F6FF731A684EF27863C1F6FF73FB
:100F30001A604EF27263C1F6FF734FF003021A702B
:100F40004EF26E63C1F6FF731B78002B07D14EF291
:100F50007163C1F6FF734FF001021A70E7E14EF2C0
:100F60007863C1F6FF731A684EF20C13C1F6FF7373
:100F70001B681A444EF27463C1F6FF731B689A42F1
:100F800000F2CC814EF27163C1F6FF734FF00202A2
:100F90001A70CCE14EF27263C1F6FF731B78042B1A
:100FA0001AD041F2707001F0BBFD40F6B83001F08C
:100FB000C7FD01F0F1FC4EF27463C1F6FF731A68CD
:100FC0004EF27863C1F6FF731A604EF27263C1F697
:100FD000FF734FF004021A704EF27863C1F6FF738C
:100FE0001A684EF21013C1F6FF731B681A444EF2D2
:100FF0007463C1F6FF731B689A4200F291814EF24E
:101000007163C1F6FF734FF001021A708FE14EF267
:101010007263C1F6FF731B78052B33D04EF27C63ED
:10102000C1F6FF734FF4FA521A804EF27C63C1F698
:10103000FF731B88184601F073FD4EF27C63C1F606
:10104000FF731B884FEA53039BB2184601F078FDEB
:1010500001F0A2FC4EF27E63C1F6FF734FF0000276
:101060001A804EF27463C1F6FF731A684EF2786309
:10107000C1F6FF731A604EF27263C1F6FF734FF050
:1010800005021A704EF27863C1F6FF731A684EF2C9
:101090001413C1F6FF731B681A444EF27463C1F651
:1010A000FF731B689A4200F23D814EF27E63C1F6E7
:1010B000FF731B8803F101039AB24EF27E63C1F6FF
:1010C000FF731A804EF27E63C1F6FF731B88092BF3
:1010D00007D94EF27163C1F6FF734FF001021A7027
:1010E00025E14EF26C63C1F6FF731B78002B21D112
:1010F0004EF27C63C1F6FF731B88184603F064FC54
:1011000002460B46104619464FF000024FF080434E
:1011100003F5D20303F00AFB02460B4610461946BC
:1011200003F07AFF03469AB24EF27C63C1F6FF7376
:101130001A8020E04EF27C63C1F6FF731B881846CC
:1011400003F042FC02460B46104619464FF00002DF
:101150004FF0804303F5D20303F0EAFA02460B4650
:101160001046194603F058FF03469AB24EF27C63CC
:10117000C1F6FF731A804EF27C63C1F6FF731B88C1
:10118000184601F0CDFC4EF27C63C1F6FF731B885C
:101190004FEA53039BB2184601F0D2FC4EF274633F
:1011A000C1F6FF731A684EF27863C1F6FF731A60D6
:1011B000BDE04EF27263C1F6FF731B78062B1AD0A6
:1011C00001F0EAFB41F2707001F0AAFC40F6B83081
:1011D00001F0B6FC4EF27463C1F6FF731A684EF26A
:1011E0007863C1F6FF731A604EF27263C1F6FF7343
:1011F0004FF006021A704EF27863C1F6FF731A6858
:101200004EF21813C1F6FF731B681A444EF2746352
:10121000C1F6FF731B689A4200F286804EF271633A
:10122000C1F6FF734FF007021A7080E04EF272634E
:10123000C1F6FF731B78072B18D041F6641001F03C
:101240006FFC4FF0000001F07BFC4EF27463C1F6BE
:10125000FF731A684EF27863C1F6FF731A604EF29C
:101260007263C1F6FF734FF007021A704EF2786393
:10127000C1F6FF731A684EF21C13C1F6FF731B68A8
:101280001A444EF27463C1F6FF731B689A424DD83C
:101290004EF27163C1F6FF734FF008021A7046E018
:1012A0004EF27263C1F6FF731B78082B18D041F21F
:1012B000707001F035FC40F6B83001F041FC4EF2A0
:1012C0007463C1F6FF731A684EF27863C1F6FF7358
:1012D0001A604EF27263C1F6FF734FF008021A7083
:1012E0004EF27863C1F6FF731A684EF22013C1F60E
:1012F000FF731B681A444EF27463C1F6FF731B68D8
:101300009A4214D84EF27163C1F6FF734FF0010296
:101310001A700CE000BF0AE000BF08E000BF06E062
:1013200000BF04E000BF02E000BF00E000BF4EF2DB
:101330007463C1F6FF731B6803F101024EF274631C
:10134000C1F6FF731A6080BD80B483B000AF03465E
:10135000FB714EF26E63C1F6FF73FA791A7007F1F2
:101360000C07BD4680BC704780B400AF4EF270637E
:10137000C1F6FF731B7803F10103DAB24EF270631A
:10138000C1F6FF731A70BD4680BC704780B483B04D
:1013900000AF0346FB714EF26C63C1F6FF73FA793E
:1013A0001A704EF26D63C1F6FF734FF001021A70AE
:1013B00007F10C07BD4680BC704700BF80B400AF8A
:1013C0004EF26F63C1F6FF734FF001021A70BD4613
:1013D00080BC704780B582B000AF4FF00003FB7156
:1013E00009E0FB7918464FF0000100F06FF9FB7936
:1013F00003F10103FB71FB79052BF2D907F1080713
:10140000BD4680BD80B582B000AF4FF00003FB71D8
:1014100009E0FB7918464FF0010100F057F9FB791C
:1014200003F10103FB71FB79052BF2D907F10807E2
:10143000BD4680BD80B582B000AF4FF00003FB70A9
:1014400063E0FA784EF69803C1F6FF739B5C002BBD
:1014500005D1FB7818464FF0000100F037F9FA7813
:101460004EF69803C1F6FF739B5C012B05D1FB7808
:1014700018464FF0010100F029F9FA784EF698036A
:10148000C1F6FF739B5C022B3BD1FA784EF6A003AA
:10149000C1F6FF734FEAC2021344D3E9002310469A
:1014A00019464FF000024FF0804303F5501303F04C
:1014B0001BFC02460B461046194603F0ADFD0346E1
:1014C0007B60FA784EF28463C1F6FF7353F82220F2
:1014D0007B681A444EF2A063C1F6FF731B689A4200
:1014E0000FD2FB78184600F039F9FA784EF2A06373
:1014F000C1F6FF7319684EF28463C1F6FF7343F8B7
:101500002210FB7803F10103FB70FB78052B98D9BF
:101510004EF2A063C1F6FF731B6803F101024EF2A5
:10152000A063C1F6FF731A6007F10807BD4680BDCE
:1015300080B485B000AFC7E900230346FB730B46B8
:10154000BB73FA7B4EF69803C1F6FF73B97B9954CF
:10155000FA7B4EF6A003C1F6FF734FEAC20202EB1C
:101560000301D7E90023C1E9002307F11407BD46B1
:1015700080BC704780B400AF4EF29C63C1F6FF732D
:101580001B78012B0BD0022B11D0002B16D14EF261
:101590009C63C1F6FF734FF001021A700EE04EF229
:1015A0009C63C1F6FF734FF002021A7006E04EF220
:1015B0009C63C1F6FF734FF000021A70BD4680BCF9
:1015C000704700BF0000000080B500AF4EF29D6381
:1015D000C1F6FF734FF001021A704EF29C63C1F620
:1015E000FF731B78012B18D0022B29D0002B39D187
:1015F0004FF003004FF001014FF000024FF00003E5
:10160000FFF796FF4FF004004FF001014FF000028A
:101610004FF00003FFF78CFF24E04FF003004FF082
:10162000020111A3D3E90023FFF782FF4FF004006A
:101630004FF002010CA3D3E90023FFF779FF11E07B
:101640004FF003004FF0020109A3D3E90023FFF795
:101650006FFF4FF004004FF0020105A3D3E9002310
:10166000FFF766FF80BD00BF0000000000408F4014
:101670000000000000407F4080B500AF4EF29D6347
:10168000C1F6FF734FF000021A704FF003004FF0E5
:1016900000014FF000024FF00003FFF749FF4FF049
:1016A00004004FF000014FF000024FF00003FFF77D
:1016B0003FFF80BD80B400AF4EF29D63C1F6FF7363
:1016C0001B781846BD4680BC704700BF80B582B00D
:1016D00000AF02460B46FA71BB71FB79052B38D877
:1016E00001A252F823F000BF0117000013170000F9
:1016F0002517000037170000411700004B170000A6
:10170000BB79002B14BF00230123184601F08CFA8B
:101710001FE0BB79002B14BF00230123184601F002
:101720004FFA16E0BB79002B14BF002301231846A3
:1017300001F016FA0DE0BB79184602F079F908E0DD
:10174000BB79184601F0A4FA03E0BB79184601F012
:10175000D3FA07F10807BD4680BD00BF80B582B04F
:1017600000AF0346FB71FB79052B50D801A252F85C
:1017700023F000BF8D170000A3170000B917000069
:10178000CF170000E5170000FB17000001F06EFA0C
:101790000346002B14BF00230123184601F044FA2E
:1017A00035E001F02FFA0346002B14BF002301237C
:1017B000184601F005FA2AE001F0F2F90346002B81
:1017C00014BF00230123184601F0CAF91FE002F0FC
:1017D00051F90346002B14BF00230123184602F0E1
:1017E00027F914E001F076FA0346002B14BF00231A
:1017F0000123184601F04CFA09E001F09FFA034674
:10180000002B14BF00230123184601F075FA07F1DD
:101810000807BD4680BD00BF98B500AF4EF2D0634B
:10182000C1F6FF731B78012B0ED0022B38D0002B92
:1018300040F0928000F0DEFF4EF2D063C1F6FF73FD
:101840004FF001021A7087E04EF2D163C1F6FF73C8
:101850001A784EF2D063C1F6FF731B789A4209D012
:101860004EF2D063C1F6FF731A784EF2D163C1F61F
:10187000FF731A704EF2A863C1F6FF731B78002B3A
:1018800069D04EF2D063C1F6FF734FF002021A70B6
:101890004EF2A863C1F6FF734FF000021A705BE0CE
:1018A0004EF2D163C1F6FF731A784EF2D063C1F6DF
:1018B000FF731B789A4209D04EF2D063C1F6FF73D2
:1018C0001A784EF2D163C1F6FF731A704FF005001B
:1018D00000F0ACFC03464FEA03239CB24FF0060035
:1018E00000F0A4FC0346224642EA03039BB29AB2EC
:1018F0004EF2D263C1F6FF731A804EF2D263C1F684
:10190000FF731B88184600F03FF84EF2B063C1F633
:10191000FF73C3E900014EF2A963C1F6FF731B78A0
:10192000002B19D04EF2B063C1F6FF734FF00000E8
:101930004FF00001C3E900014EF2D063C1F6FF731E
:101940004FF001021A704EF2A963C1F6FF734FF017
:1019500000021A7000E000BF4EF2D463C1F6FF73BC
:101960001B68184600F04CF84EF2D463C1F6FF73C2
:101970001B6803F101024EF2D463C1F6FF731A60D3
:1019800098BD00BF0000000080B586B000AF0346E0
:10199000FB804FF000024FF0804303F5B203C7E92C
:1019A0000223FB88184602F0FFFF02460B46104652
:1019B000194611A3D3E9002303F096F902460B461A
:1019C00010461946D7E9022303F064F802460B4695
:1019D000104619464FF000024FF0000302F0A8FE37
:1019E00002460B46C7E90423D7E9042310461946EB
:1019F00007F11807BD4680BD00000000E0FFEF4082
:101A0000B0B592B000AF7860786802F0CDFF4EF2CA
:101A1000B863C1F6FF73D3E9002302F087FE0246E4
:101A20000B46104619464FF000024FF0804303F575
:101A3000101303F02FF802460B4610461946D2A3A6
:101A4000D3E9002303F050F902460B46C7E902230D
:101A50004EF2B063C1F6FF73D3E900014EF2C063EA
:101A6000C1F6FF73D3E9002302F060FE02460B4685
:101A7000C7E904234EF2B063C1F6FF73D3E9000156
:101A80004EF2C063C1F6FF73D3E9002302F04EFEAD
:101A900002460B4610461946D7E9022303F024F903
:101AA00002460B46C7E906234FF000024FF0000341
:101AB000C7E908234FF000031C46D7E90601B4A389
:101AC000D3E9002303F076FA0346002B02D04FF04F
:101AD00001031C46E3B2002B17D0D7E90201ACA3E7
:101AE000D3E9002302F0D6FF02460B461046194602
:101AF0004EF2C063C1F6FF73D3E9002302F018FE73
:101B000002460B46C7E9082332E04FF000031C46AB
:101B1000D7E90601A0A3D3E9002303F02DFA034679
:101B2000002B02D04FF001031C46E3B2002B17D06C
:101B3000D7E9020198A3D3E9002302F0ABFF0246E4
:101B40000B46104619464EF2C063C1F6FF73D3E947
:101B5000002302F0EDFD02460B46C7E9082307E02B
:101B60004EF2B063C1F6FF73D3E90023C7E908233F
:101B70004EF2C863C1F6FF73D3E90023D7E906012B
:101B800002F0D4FD02460B4610461946D7E902235F
:101B900003F0AAF802460B46C7E90A234FF00002F9
:101BA0004FF00003C7E90C234FF000031C46D7E9B0
:101BB0000A017BA3D3E9002303F0FCF90346002BC1
:101BC00002D04FF001031C46E3B2002B1FD0D7E92F
:101BD000020173A3D3E9002302F05CFF02460B4627
:101BE00010461946D7E9022302F054FF02460B467D
:101BF000104619464EF2C063C1F6FF73D3E90023C5
:101C000002F096FD02460B46C7E90C233AE04FF07E
:101C100000031C46D7E90A0163A3D3E9002303F0BC
:101C2000ABF90346002B02D04FF001031C46E3B290
:101C3000002B1FD0D7E902015BA3D3E9002302F0F8
:101C400029FF02460B4610461946D7E9022302F047
:101C500021FF02460B46104619464EF2C063C1F6FC
:101C6000FF73D3E9002302F063FD02460B46C7E988
:101C70000C2307E04EF2B063C1F6FF73D3E90023F3
:101C8000C7E90C234FF000024FF00003C7E90E2311
:101C9000D7E9080103F098F9034683EAE374A4EB5B
:101CA000E3744EF2C063C1F6FF73D3E9002310461C
:101CB000194603F089F90346002BB8BF5B42C3EB1A
:101CC0000404D7E90C0103F07FF9034683EAE375C6
:101CD000A5EBE3754EF2C063C1F6FF73D3E90023B1
:101CE0001046194603F070F90346002BB8BF5B425B
:101CF000C3EB05039C4204DAD7E90823C7E90E23A6
:101D000003E0D7E90823C7E90E23D7E90E014FF016
:101D100000024FF0804303F5B20302F0E5FF0246F4
:101D20000B461046194622A3D3E9002302F0B2FE67
:101D300002460B46C7E91023D7E9100103F06CF9FE
:101D400003469BB2184600F017FE4EF2C063C1F680
:101D5000FF73D7E90E01C3E900014EF2C863C1F673
:101D6000FF73D7E90601C3E90001786802F01CFEA1
:101D70004EF2B863C1F6FF73C3E9000107F14807EB
:101D8000BD46B0BDAFF300800000000000408F40B2
:101D9000000000000080514000000000008051C0A1
:101DA000000000000070B740000000000070B7C0E5
:101DB00000000000000C914080B400AF4EF2A86318
:101DC000C1F6FF734FF001021A70BD4680BC704728
:101DD00080B400AF4EF2A963C1F6FF734FF0010269
:101DE0001A70BD4680BC704780B582B000AF786085
:101DF0004EF24473C1F6FF737A681A6000F0B0FFC8
:101E00004EF2DB63C1F6FF734FF001021A7007F167
:101E10000807BD4680BD00BF98B500AF4EF24E73B7
:101E2000C1F6FF731B78002B02D0012B0AD076E09D
:101E300000F096FF4EF24E73C1F6FF734FF00102B1
:101E40001A706CE04EF24F73C1F6FF731A784EF2BF
:101E50004E73C1F6FF731B789A4209D04EF24E734F
:101E6000C1F6FF731A784EF24F73C1F6FF731A7002
:101E700000F05AF84EF2D863C1F6FF731B78002BBE
:101E80001CD04EF24873C1F6FF734FF000021A8067
:101E90004EF2DC63C1F6FF734FF000021A704EF28F
:101EA000D863C1F6FF734FF000021A704EF2D96387
:101EB000C1F6FF734FF001021A7030E04EF2487322
:101EC000C1F6FF731B8803F101039AB24EF2487307
:101ED000C1F6FF731A804EF24873C1F6FF731B8878
:101EE000184602F071FD02460B464FF000010C4609
:101EF000104619460AA3D3E9002303F051F803461C
:101F0000002B02D04FF001031C46E3B2002B06D099
:101F10004EF2DC63C1F6FF734FF001021A7098BDF8
:101F2000000000000080414080B500AF77E100F084
:101F3000C9FF03461A464EF24A73C1F6FF731A7080
:101F40004EF24B73C1F6FF731B78062B00F23D81F6
:101F500001A252F823F000BF751F0000F71F000018
:101F60006F200000E7200000452100009D210000B7
:101F7000AD2100004EF24C73C1F6FF734FF000022A
:101F80001A704EF24D73C1F6FF734FF000021A70D3
:101F90004EF24473C1F6FF731B681A784EF24A730F
:101FA000C1F6FF731B789A4240F017814EF24C73D2
:101FB000C1F6FF731B781A464EF24A73C1F6FF73DF
:101FC00019784EF2E063C1F6FF7399544EF24C73E8
:101FD000C1F6FF731B7803F10103DAB24EF24C73C2
:101FE000C1F6FF731A704EF24B73C1F6FF734FF0D8
:101FF00001021A70F4E04EF24473C1F6FF731B68DD
:1020000003F101031A784EF24A73C1F6FF731B788D
:102010009A4224D14EF24C73C1F6FF731B781A46D4
:102020004EF24A73C1F6FF7319784EF2E063C1F6BF
:10203000FF7399544EF24C73C1F6FF731B7803F192
:102040000103DAB24EF24C73C1F6FF731A704EF20E
:102050004B73C1F6FF734FF002021A70C0E04EF2EC
:102060004B73C1F6FF734FF000021A70B8E04EF2E6
:102070004473C1F6FF731B6803F102031A784EF232
:102080004A73C1F6FF731B789A4224D14EF24C7307
:10209000C1F6FF731B781A464EF24A73C1F6FF73FE
:1020A00019784EF2E063C1F6FF7399544EF24C7307
:1020B000C1F6FF731B7803F10103DAB24EF24C73E1
:1020C000C1F6FF731A704EF24B73C1F6FF734FF0F7
:1020D00003021A7084E04EF24B73C1F6FF734FF0A7
:1020E00000021A707CE04EF24B73C1F6FF734FF0A2
:1020F00004021A704EF24C73C1F6FF731B781A4635
:102100004EF24A73C1F6FF7319784EF2E063C1F6DE
:10211000FF7399544EF24A73C1F6FF731A784EF268
:102120004D73C1F6FF731A704EF24C73C1F6FF7314
:102130001B7803F10103DAB24EF24C73C1F6FF7360
:102140001A704DE04EF24C73C1F6FF731B781A46BD
:102150004EF24A73C1F6FF7319784EF2E063C1F68E
:10216000FF7399544EF24C73C1F6FF731B7803F161
:102170000103DAB24EF24C73C1F6FF731A704EF2DD
:102180004C73C1F6FF731B78062B28D94EF24B73A4
:10219000C1F6FF734FF006021A7021E04EF24B7346
:1021A000C1F6FF734FF006021A7019E04EF2D863C1
:1021B000C1F6FF734FF001021A704EF24B73C1F675
:1021C000FF734FF000021A700AE04EF24B73C1F633
:1021D000FF734FF000021A7002E000BF00E000BF82
:1021E0004EF24C73C1F6FF731B78642B17D949F676
:1021F0006C60C0F2000001F03BFB4EF24C73C1F684
:10220000FF734FF000021A704EF2DA63C1F6FF73EB
:102210004FF001021A704FF0000000F0A1FC00F036
:10222000CDFE0346002B7FF482AE80BD80B483B028
:1022300000AF0346FB71FA794EF2E063C1F6FF731B
:102240009B5C184607F10C07BD4680BC704700BF79
:1022500080B582B000AF78600B46FB70FB78786881
:10226000194600F089FF07F10807BD4680BD00BF91
:1022700080B400AF4EF2DC63C1F6FF731B781846E2
:10228000BD4680BC704700BF80B483B000AF4EF243
:10229000D963C1F6FF731B78FB714EF2D963C1F6A7
:1022A000FF734FF000021A70FB79184607F10C0714
:1022B000BD4680BC704700BF80B584B000AF4EF211
:1022C0006173C1F6FF731B78012B0ED0022B51D026
:1022D000002B40F0BB8001F0DFFB4EF26173C1F6D2
:1022E000FF734FF001021A70B0E04EF26273C1F654
:1022F000FF731A784EF26173C1F6FF731B789A422E
:1023000009D04EF26173C1F6FF731A784EF2627310
:10231000C1F6FF731A704EF26473C1F6FF731A6848
:102320004EF22413C1F6FF731B681A444EF2687311
:10233000C1F6FF731B689A4206D84EF26173C1F66C
:10234000FF734FF002021A704EF22813C1F6FF73AA
:102350001B78002B79D04EF26173C1F6FF734FF0FA
:1023600002021A704EF22813C1F6FF734FF00002FA
:102370001A706BE04EF26273C1F6FF731A784EF278
:102380006173C1F6FF731B789A4215D001F0CAFC45
:102390004EF26873C1F6FF731A684EF26473C1F6A9
:1023A000FF731A604EF26173C1F6FF731A784EF232
:1023B0006273C1F6FF731A704FF0010001F0C6FCA2
:1023C0000346002B42D001F0E7FC03469BB2FB80A2
:1023D0004FF0000001F0BAFC01F0DEFC03469BB2B6
:1023E000FB80FB881BB2184601F048FD03469BB2F8
:1023F000FB80FB88184602F0D7FA02460B46C7E975
:102400000223D7E902011AA3D3E9002302F042FB19
:1024100002460B461046194617A3D3E9002302F0E3
:1024200085F902460B46C7E902234EF25073C1F606
:10243000FF73D7E90201C3E900014EF26173C1F6EF
:10244000FF734FF001021A7000E000BF4EF2687394
:10245000C1F6FF731B6803F101024EF26873C1F607
:10246000FF731A6007F11007BD4680BDAFF300800F
:102470000000000000C04F400000000000407F400E
:1024800080B400AF4EF25073C1F6FF73D3E900235E
:1024900010461946BD4680BC704700BF054B1C78EE
:1024A00044F001041C70044B1A78D2B2034B1A702A
:1024B000FDF756FFE8460040F8460040BC76004075
:1024C00080B582B000AF4EF60C53CEF2000340F25E
:1024D0000042C0F2FA521A604EF61453CEF20003D4
:1024E0004EF61452CEF20002126842F400721A60E4
:1024F0004FF000037B6014E07A687B684FEA830149
:1025000040F20003C0F200030B441B6819464EF270
:102510000003C1F6FF7343F822107B6803F1010347
:102520007B607B682F2BE7D947F2BC63C4F20003C2
:102530001B78DAB24EF6D003C1F6FF731A704EF66E
:102540000853CEF200034EF20002C1F6FF721A6089
:1025500001F08CFF00F004F807F10807BD4680BDCC
:1025600080B483B000AF4EF27173C1F6FF734FF0C9
:102570007F021A704EF27073C1F6FF736FF07F0224
:102580001A704FF07F03FB710FE0FB794FEAC30332
:1025900003F1804303F5F043FA7902F1FF32D2B23E
:1025A0001A70FB7903F1FF33FB71FB79002BECD13F
:1025B000FB794FEAC30303F1804303F5F0434FF087
:1025C00000021A7007F10C07BD4680BC704700BFBF
:1025D00080B483B000AF0346FB7101BE07F10C0766
:1025E000BD4680BC704700BF80B582B000AF786048
:1025F0000BE04EF23813C1F6FF731B68184602F069
:102600005BF87B68A3F500437B607B68B3F5004F04
:10261000EFD84EF23013C1F6FF731B687A6802FBE5
:1026200003F3184602F048F807F10807BD4680BDDD
:1026300080B582B000AF0346FB80FA884EF23413B7
:10264000C1F6FF731B7803FB02F3184602F034F85F
:1026500007F10807BD4680BD80B584B000AF0346D2
:102660003960FB714EF60853CEF200031B68FB6025
:10267000FB791F2B07D9FB791F2B8CBF002301236C
:102680001846FFF7A5FFFB7903F01F0303F11003C2
:102690004FEA8302FB6813441B68BB60FB7903F0BD
:1026A0001F0303F110034FEA8302FB6813443A68E7
:1026B0001A60BB68184607F11007BD4680BD00BF11
:1026C00080B582B000AF02460B46FA71BB71BB7990
:1026D000072B07D9BB79072B8CBF00230123184692
:1026E000FFF776FFFB791F2B07D9FB791F2B8CBFD8
:1026F000002301231846FFF76BFFFB7903F01F034C
:1027000003F1604303F56443BA794FEA4212D2B24F
:102710001A7007F10807BD4680BD00BF80B584B0C0
:1027200000AF0346FB71FB791F2B07D9FB791F2BE9
:102730008CBF002301231846FFF74AFF4EF2001317
:10274000CEF20003FB60FB7903F01F034FF00102A0
:1027500002FA03F31A46FB681A6007F11007BD4638
:1027600080BD00BF80B584B000AF0346FB71FB792C
:102770001F2B07D9FB791F2B8CBF00230123184681
:10278000FFF726FF4EF28013CEF20003FB60FB79C9
:1027900003F01F034FF0010202FA03F31A46FB682D
:1027A0001A6007F11007BD4680BD00BF80B584B038
:1027B00000AF0346FB71FB791F2B07D9FB791F2B59
:1027C0008CBF002301231846FFF702FF4EF280233F
:1027D000CEF20003FB60FB7903F01F034FF0010210
:1027E00002FA03F31A46FB681A6007F11007BD46A8
:1027F00080BD00BF80B500AF4EF27873C1F6FF73A5
:102800001B78002B08D100F00BF84EF27873C1F65C
:10281000FF734FF001021A7000F062F880BD00BF34
:1028200080B582B000AF46F27553C4F200031B7846
:10283000DBB223F03F03BB7146F27553C4F20003D1
:10284000BA7942F00902D2B21A7046F29453C4F235
:10285000000346F29452C4F200021278D2B242F05F
:102860000102D2B21A7046F29553C4F2000346F246
:102870009552C4F200021278D2B242F00102D2B2F2
:102880001A7040F2434000F067F840F2434000F015
:102890003DF84FF0000000F06FF846F28453C4F2A8
:1028A00000034FF000021A7001F00EFF0346FB71A7
:1028B00046F29453C4F2000346F29452C4F200026A
:1028C0001278D2B242F01002D2B21A70FB791846D6
:1028D00001F0FEFE00F02AF807F10807BD4680BDB2
:1028E00080B400AF46F27553C4F2000346F275524D
:1028F000C4F200021278D2B26FEA42626FEA526208
:10290000D2B21A70BD4680BC704700BF80B483B09D
:1029100000AF0346FB8046F20453C4F20003FA887A
:102920001A8007F10C07BD4680BC704780B400AF29
:1029300004E046F25453C4F200031B8846F2645389
:10294000C4F200031B78DBB203F01003002BF0D1BC
:10295000BD4680BC704700BF80B483B000AF034663
:10296000FB8046F24453C4F20003FA881A8007F150
:102970000C07BD4680BC704780B483B000AF0346EF
:10298000FB8046F22453C4F20003FA881A8007F150
:102990000C07BD4680BC704780B500AF4EF279731E
:1029A000C1F6FF731B78002B08D100F00BF84EF234
:1029B0007973C1F6FF734FF001021A7000F062F8EC
:1029C00080BD00BF80B582B000AF46F27E43C4F246
:1029D00000031B78DBB223F03F03BB7146F27E435A
:1029E000C4F20003BA7942F01B02D2B21A7046F266
:1029F0009D43C4F2000346F29D42C4F200021278E5
:102A0000D2B242F00102D2B21A7046F29E43C4F230
:102A1000000346F29E42C4F200021278D2B242F0A3
:102A20000102D2B21A704FF0C50000F079F84FF0F1
:102A3000C50000F04FF84FF07F0000F081F846F23B
:102A40008E43C4F200034FF000021A7001F03CFE06
:102A50000346FB7146F29E43C4F2000346F29E42D7
:102A6000C4F200021278D2B242F01002D2B21A704E
:102A7000FB79184601F02CFE00F03CF807F108073E
:102A8000BD4680BD80B400AF46F27E43C4F2000371
:102A900046F27E42C4F200021278D2B26FEA42627B
:102AA0006FEA5262D2B21A70BD4680BC704700BF56
:102AB00080B400AF46F27E43C4F2000346F27E4289
:102AC000C4F200021278D2B202F07F021A70BD4640
:102AD00080BC704780B483B000AF0346FB8046F2F1
:102AE0000D43C4F20003FA881A8007F10C07BD46B3
:102AF00080BC704780B400AF04E046F25D43C4F28E
:102B000000031B8846F26E43C4F200031B78DBB25D
:102B100003F01003002BF0D1BD4680BC704700BF0E
:102B200080B483B000AF0346FB8046F24D43C4F24D
:102B30000003FA881A8007F10C07BD4680BC704775
:102B400080B483B000AF0346FB8046F22D43C4F24D
:102B50000003FA881A8007F10C07BD4680BC704755
:102B600080B485B000AF0346FB7145F22013C4F278
:102B700000031B78DBB203F07F03FB7345F22013E5
:102B8000C4F20003FA794FEAC212D1B2FA7B41EAE9
:102B90000202D2B21A7007F11407BD4680BC70471A
:102BA00080B400AF45F22113C4F200031B78DBB2FE
:102BB0004FEAD313DBB21846BD4680BC704700BF56
:102BC00080B485B000AF0346FB7145F22013C4F218
:102BD00000031B78DBB223F04003FB7345F22013A4
:102BE000C4F20003FA794FEA8212D2B202F0400234
:102BF000F97B42EA0102D2B21A7007F11407BD460E
:102C000080BC704780B400AF45F22113C4F20003CA
:102C10001B78DBB203F040034FEA9313DBB2184694
:102C2000BD4680BC704700BF80B485B000AF03468E
:102C3000FB7145F22013C4F200031B78DBB223F0D2
:102C40002003FB7345F22013C4F20003FA794FEA24
:102C50004212D2B202F02002F97B42EA0102D2B261
:102C60001A7007F11407BD4680BC704780B400AFEE
:102C700045F22113C4F200031B78DBB203F02003FA
:102C80004FEA5313DBB21846BD4680BC704700BF05
:102C900080B485B000AF0346FB7145F20013C4F267
:102CA00000031B78DBB223F02003FB7345F2001313
:102CB000C4F20003FA794FEA4212D2B202F02002C3
:102CC000F97B42EA0102D2B21A7007F11407BD463D
:102CD00080BC704780B400AF45F20113C4F200031A
:102CE0001B78DBB203F020034FEA5313DBB2184624
:102CF000BD4680BC704700BF80B485B000AF0346BE
:102D0000FB7145F20013C4F200031B78DBB223F021
:102D10004003FB7345F20013C4F20003FA794FEA53
:102D20008212D2B202F04002F97B42EA0102D2B230
:102D30001A7007F11407BD4680BC704780B400AF1D
:102D400045F20113C4F200031B78DBB203F0400329
:102D50004FEA9313DBB21846BD4680BC704700BFF4
:102D600080B500AF4EF28073C1F6FF731B78002B65
:102D700008D100F00BF84EF28073C1F6FF734FF0EC
:102D800001021A7000F03EF880BD00BF80B500AFB0
:102D90004FF0180043F2BD11C0F20001FFF75CFCD8
:102DA0004FF018004FF00701FFF78AFC46F28753F7
:102DB000C4F200034FF020021A704FF0190043F2E2
:102DC000A921C0F20001FFF747FC4FF019004FF0B6
:102DD0000701FFF775FC46F22653C4F200034FF0DB
:102DE00007021A7046F23653C4F200034FF048024D
:102DF0001A7046F28653C4F200034FF002021A70B2
:102E000080BD00BF80B582B000AF01F05DFC03461D
:102E1000FB7146F29953C4F2000346F29952C4F290
:102E200000021278D2B242F02002D2B21A7046F2F8
:102E30009753C4F2000346F29752C4F2000212788C
:102E4000D2B242F01002D2B21A704FF01800FFF75F
:102E500065FC46F29653C4F2000346F29652C4F261
:102E600000021278D2B242F01002D2B21A704FF0C1
:102E70001900FFF753FC44F2A233C4F2000344F2FA
:102E8000A232C4F200021278D2B242F00402D2B2EC
:102E90001A70FB79184601F01BFC07F10807BD46C4
:102EA00080BD00BF80B500AF4FF01800FFF736FCC3
:102EB00080BD00BF80B500AF4FF01800FFF752FC97
:102EC00080BD00BF80B582B000AF4FF00003BB7182
:102ED000FFF7F0FF4EF27C73C1F6FF731B78DAB296
:102EE0004EF27D73C1F6FF731B78DBB29A4207D1B5
:102EF0004EF27E73C1F6FF731B78DBB2002B39D024
:102F00004EF27C73C1F6FF731B78DBB21A464EF6A5
:102F10000813C1F6FF739B5CBB714EF27C73C1F664
:102F2000FF731B78DBB203F10103DAB24EF27C735C
:102F3000C1F6FF731A704EF27C73C1F6FF731B78F3
:102F4000DBB2312B06D94EF27C73C1F6FF734FF022
:102F500000021A704EF27E73C1F6FF731B78DBB26B
:102F6000002B21D04EF27E73C1F6FF734FF00002AA
:102F70001A701AE046F26753C4F200031B78FB7123
:102F8000FB7903F02003002B0FD046F24853C4F224
:102F900000031B78BB71FB7903F01E03002B04D0E8
:102FA0004FF00003BB7100E000BFFFF77BFFBB7970
:102FB000184607F10807BD4680BD00BF80B582B046
:102FC00000AFFFF777FF4EF27C73C1F6FF731B78FB
:102FD000DAB24EF27D73C1F6FF731B78DBB29A4210
:102FE0000FD14EF27E73C1F6FF731B78DBB2002B5C
:102FF00003D04FF03203FB7133E04FF00003FB715D
:103000002FE04EF27C73C1F6FF731B78DAB24EF2FA
:103010007D73C1F6FF731B78DBB29A420FD24EF27A
:103020007D73C1F6FF731B78DAB24EF27C73C1F682
:10303000FF731B78DBB2C3EB0203FB7111E04EF2AE
:103040007D73C1F6FF731B78DAB24EF27C73C1F662
:10305000FF731B78DBB2C3EB0203DBB203F1320375
:10306000FB71FFF71FFFFB79184607F10807BD4604
:1030700080BD00BF80B500AF4FF01900FFF74EFBD9
:1030800080BD00BF80B500AF4FF01900FFF76AFBAD
:1030900080BD00BF80B582B000AF0346FB714EF229
:1030A0007B73C1F6FF731B781A464EF27A73C1F632
:1030B000FF731B78DBB203F1FF339A42EFD04EF27D
:1030C0007B73C1F6FF731A784EF27A73C1F6FF7301
:1030D0001B78DBB2C3EB0203DBB2312BDFD0FFF78F
:1030E000D1FF4EF27A73C1F6FF731B78DAB24EF25B
:1030F0007B73C1F6FF731B789A4210D146F2665378
:10310000C4F200031B78DBB203F00403002B06D1EA
:1031100046F24753C4F20003FA791A7026E04EF2E1
:103120007B73C1F6FF731B78312B06D94EF27B738C
:10313000C1F6FF734FF000021A704EF27B73C1F6B6
:10314000FF731B781A464EF6D403C1F6FF73F97964
:1031500099544EF27B73C1F6FF731B7803F10103A0
:10316000DAB24EF27B73C1F6FF731A70FFF782FF7B
:1031700007F10807BD4680BD80B582B000AF78601A
:103180000B46FB704EF28073C1F6FF731B78002B69
:1031900010D00CE07B681B787A6802F101027A603B
:1031A0001846FFF777FFFB7803F1FF33FB70FB78DE
:1031B000002BEFD107F10807BD4680BD80B483B076
:1031C00000AF4FF00003FB7146F26753C4F20003F7
:1031D0001B78BB715EE04EF27D73C1F6FF731B7806
:1031E000DBB21A4646F24853C4F200031B78D9B248
:1031F0004EF60813C1F6FF7399544FF00103FB71AB
:10320000FB79002B40D04EF27E73C1F6FF731B7822
:10321000DBB2002B06D04EF27F73C1F6FF734FF086
:1032200001021A704EF27D73C1F6FF731B78DBB298
:1032300003F10103DAB24EF27D73C1F6FF731A7027
:103240004EF27D73C1F6FF731B78DBB2312B06D9CA
:103250004EF27D73C1F6FF734FF000021A704EF20A
:103260007D73C1F6FF731B78DAB24EF27C73C1F640
:10327000FF731B78DBB29A4206D14EF27E73C1F621
:10328000FF734FF001021A7046F26753C4F2000355
:103290001B78BB71BB7903F02003002B9BD107F196
:1032A0000C07BD4680BC704780B400AF2EE04EF2E4
:1032B0007A73C1F6FF731B78DBB2312B06D94EF25D
:1032C0007A73C1F6FF734FF000021A7046F247534B
:1032D000C4F200034EF27A72C1F6FF721278D2B2D3
:1032E00011464EF6D402C1F6FF72525CD2B21A7089
:1032F0004EF27A73C1F6FF731B78DBB203F1010360
:10330000DAB24EF27A73C1F6FF731A704EF27A7324
:10331000C1F6FF731B78DAB24EF27B73C1F6FF730E
:103320001B789A4209D046F26653C4F200031B7818
:10333000DBB203F00403002BB9D0BD4680BC70475C
:1033400080B582B000AF4FF0090000F06DF84FF08B
:10335000090000F085F801F0B7F90346FB7146F269
:103360009843C4F2000346F29842C4F20002127875
:10337000D2B242F01002D2B21A70FB79184601F0B4
:10338000A7F900F07DF84FF0010000F031F807F1E7
:103390000807BD4680BD00BF80B400AF46F276533B
:1033A000C4F2000346F27652C4F200021278D2B29E
:1033B0006FEA42626FEA5262D2B21A70BD4680BCB6
:1033C000704700BF80B500AF4EF28273C1F6FF7345
:1033D0001B78002B08D1FFF7B3FF4EF28273C1F6C2
:1033E000FF734FF001021A70FFF7D6FF80BD00BFD8
:1033F00080B483B000AF0346FB7146F28843C4F249
:103400000003FA791A7007F10C07BD4680BC7047BB
:1034100080B400AF46F26843C4F200031B78DBB20D
:103420001846BD4680BC704780B483B000AF0346E9
:10343000FB7146F22843C4F20003FA791A7007F1CF
:103440000C07BD4680BC704780B400AF46F24843CD
:10345000C4F200031B78DBB21846BD4680BC70473F
:1034600080B483B000AF0346FB7146F20843C4F258
:103470000003FA791A7007F10C07BD4680BC70474B
:1034800080B500AF01E0FFF7DFFFFFF7C1FF0346A4
:1034900003F00803002BF6D180BD00BF80B582B0D9
:1034A00000AF786000F042F8786800F00BF84FF059
:1034B000070000F01BF800F02DF807F10807BD46E3
:1034C00080BD00BF80B485B000AF78604EF6085371
:1034D000CEF200031B68FB60FB6803F194037A687B
:1034E0001A6007F11407BD4680BC704780B483B0F2
:1034F00000AF0346FB714EF21543CEF20003FA799A
:103500004FEA4212D2B21A7007F10C07BD4680BCD6
:10351000704700BF80B400AF4EF20013CEF200033C
:103520004FF400121A60BD4680BC704780B400AFF3
:103530004EF28013CEF200034FF400121A60BD4623
:1035400080BC704780B400AF44F28653C4F20003DD
:103550001B78DBB203F002034FEA5303DBB21846D9
:10356000BD4680BC704700BF80B582B000AF7860B8
:1035700000F042F8786800F00BF84FF0070000F018
:103580001BF800F02DF807F10807BD4680BD00BF0D
:1035900080B485B000AF78604EF60853CEF20003D9
:1035A0001B68FB60FB6803F168037A681A6007F127
:1035B0001407BD4680BC704780B483B000AF03469B
:1035C000FB714EF20A43CEF20003FA794FEA42123F
:1035D000D2B21A7007F10C07BD4680BC704700BF1D
:1035E00080B400AF4EF20013CEF200034FF48062BD
:1035F0001A60BD4680BC704780B400AF4EF28013A5
:10360000CEF200034FF480621A60BD4680BC704762
:1036100080B400AF4EF28023CEF200034FF48062FC
:103620001A60BD4680BC704780B500AF4EF289730A
:10363000C1F6FF731B78002B08D100F00BF84EF297
:103640008973C1F6FF734FF001021A7000F03EF863
:1036500080BD00BF80B500AF4FF0120043F6AD0152
:10366000C0F20001FEF7F8FF4FF012004FF0070123
:10367000FFF726F846F28743C4F200034FF020021A
:103680001A704FF0130043F69911C0F20001FEF7D3
:10369000E3FF4FF013004FF00701FFF711F846F278
:1036A0002743C4F200034FF007021A7046F2374373
:1036B000C4F200034FF048021A7046F28643C4F287
:1036C00000034FF002021A7080BD00BF80B582B0C7
:1036D00000AF00F0F9FF0346FB7146F29343C4F2DA
:1036E000000346F29342C4F200021278D2B242F0D2
:1036F0002002D2B21A7046F29743C4F2000346F297
:103700009742C4F200021278D2B242F01002D2B252
:103710001A704FF01200FFF701F846F29643C4F218
:10372000000346F29642C4F200021278D2B242F08E
:103730001002D2B21A704FF01300FEF7EFFF44F2FE
:10374000A233C4F2000344F2A232C4F2000212789F
:10375000D2B242F00202D2B21A70FB79184600F0DF
:10376000B7FF07F10807BD4680BD00BF80B500AFB9
:103770004FF01300FEF7D2FF80BD00BF80B500AF51
:103780004FF01300FEF7EEFF80BD00BF80B582B0A2
:1037900000AF0346FB714EF28473C1F6FF731B78D2
:1037A0001A464EF28373C1F6FF731B78DBB203F146
:1037B000FF339A42EFD04EF28473C1F6FF731A784A
:1037C0004EF28373C1F6FF731B78DBB2C3EB0203C7
:1037D000DBB2312BDFD0FFF7D1FF4EF28373C1F69E
:1037E000FF731B78DAB24EF28473C1F6FF731B7855
:1037F0009A4210D146F26643C4F200031B78DBB252
:1038000003F00403002B06D146F24643C4F2000342
:10381000FA791A7026E04EF28473C1F6FF731B78B2
:10382000312B06D94EF28473C1F6FF734FF00002BC
:103830001A704EF28473C1F6FF731B781A464EF667
:103840003C13C1F6FF73F97999544EF28473C1F6B3
:10385000FF731B7803F10103DAB24EF28473C1F6F1
:10386000FF731A70FFF782FF07F10807BD4680BD9E
:1038700080B582B000AF78604EF28973C1F6FF73F5
:103880001B78002B0DD008E07B681B787A6802F16A
:1038900001027A601846FFF779FF7B681B78002BDE
:1038A000F2D107F10807BD4680BD00BF80B483B0E8
:1038B00000AF4FF00003FB7146F26743C4F2000310
:1038C0001B78BB715EE04EF28673C1F6FF731B7806
:1038D000DBB21A4646F24343C4F200031B78D9B266
:1038E0004EF67013C1F6FF7399544FF00103FB714C
:1038F000FB79002B40D04EF28773C1F6FF731B7823
:10390000DBB2002B06D04EF28873C1F6FF734FF086
:1039100001021A704EF28673C1F6FF731B78DBB298
:1039200003F10103DAB24EF28673C1F6FF731A7027
:103930004EF28673C1F6FF731B78DBB2312B06D9CA
:103940004EF28673C1F6FF734FF000021A704EF20A
:103950008673C1F6FF731B78DAB24EF28573C1F637
:10396000FF731B78DBB29A4206D14EF28773C1F621
:10397000FF734FF001021A7046F26743C4F200036E
:103980001B78BB71BB7903F02003002B9BD107F19F
:103990000C07BD4680BC704780B400AF2EE04EF2ED
:1039A0008373C1F6FF731B78DBB2312B06D94EF25D
:1039B0008373C1F6FF734FF000021A7046F246435C
:1039C000C4F200034EF28372C1F6FF721278D2B2D3
:1039D00011464EF63C12C1F6FF72525CD2B21A701A
:1039E0004EF28373C1F6FF731B78DBB203F1010360
:1039F000DAB24EF28373C1F6FF731A704EF283731C
:103A0000C1F6FF731B78DAB24EF28473C1F6FF730E
:103A10001B789A4209D046F26643C4F200031B7831
:103A2000DBB203F00403002BB9D0BD4680BC704765
:103A300080B485B000AF0346FB7145F20013C4F2B9
:103A400000031B78DBB223F01003FB7345F2001375
:103A5000C4F20003FA794FEA0212D2B202F0100265
:103A6000F97B42EA0102D2B21A7007F11407BD468F
:103A700080BC704780B400AF45F20113C4F200036C
:103A80001B78DBB203F010034FEA1313DBB21846C6
:103A9000BD4680BC704700BF80B500AF4EF28B734F
:103AA000C1F6FF731B78002B08D100F00BF84EF223
:103AB0008B73C1F6FF734FF001021A7000F030F8FB
:103AC00080BD00BF80B500AF4FF0100000F006FAD7
:103AD0004FF00C004FF00701FEF7F2FD4FF00C0025
:103AE00043F6D161C0F20001FEF7B6FD45F60113C1
:103AF000C4F2000345F60112C4F200021278D2B2F9
:103B000042F00602D2B21A704FF00C0000F0D6F864
:103B10004EF6A413C1F6FF734FF000021A8080BD69
:103B200080B582B000AF00F0CFFD0346FB7144F2D8
:103B3000AB33C4F2000344F2AB32C4F20002127899
:103B4000D2B242F00102D2B21A7044F2BB33C4F2D4
:103B5000000344F2BB32C4F200021278D2B242F047
:103B60000102D2B21A7044F2A133C4F2000344F24B
:103B7000A132C4F200021278D2B242F00102D2B2F3
:103B80001A7044F2B133C4F2000344F2B132C4F209
:103B900000021278D2B242F00102D2B21A7045F697
:103BA0000313C4F200034FF040021A704FF00100FB
:103BB00000F046F86FF03F03BB71BB7943F0080398
:103BC000BB7145F60013C4F20003BA791A7045F6CA
:103BD0002733C4F2000345F62732C4F200021278FC
:103BE000D2B242F00802D2B21A7045F60013C4F203
:103BF000000345F60012C4F200021278D2B242F07D
:103C00002002D2B21A704FF00200FEF711FD45F605
:103C10000013C4F2000345F60012C4F20002127849
:103C2000D2B202F0DF021A704FF00C00FEF7BEFDB8
:103C3000FB79184600F04CFD07F10807BD4680BD32
:103C400080B485B000AF0346FB7197F90730012BB4
:103C500011D14FF01803FB7345F60313C4F20003B0
:103C600045F60312C4F200021278D2B242F0010209
:103C7000D2B21A7010E04FF01803FB7345F603132D
:103C8000C4F2000345F60312C4F200021278D2B265
:103C900042F00102D2B21A7045F60613C4F20003D4
:103CA000FA7B1A7045F60713C4F200034FF00002C6
:103CB0001A7007F11407BD4680BC704780B584B008
:103CC00000AF0346FB714EF6A613C1F6FF73FA79F7
:103CD0001A70FB790A2B08D00C2B02D0082B08D0C5
:103CE0000BE06FF03F03FB730AE06FF03F03FB73E1
:103CF00006E06FF03F03FB7302E06FF03F03FB73DE
:103D0000FB7B43F00503FB7345F60213C4F200038B
:103D1000FA7B1A70FB79184600F074F807F1100767
:103D2000BD4680BD80B400AF45F60013C4F2000369
:103D300045F60012C4F200021278D2B242F001023B
:103D4000D2B21A70BD4680BC704700BF80B584B047
:103D500000AF0346FB7145F60113C4F200031B7864
:103D6000DBB203F00103FB73FB7B012B02D0FB7979
:103D7000002BF0D0FB7B012B08D14FF00100FEF7A8
:103D800057FC45F60113C4F200031B78FB7B184671
:103D900007F11007BD4680BD80B483B000AF45F683
:103DA000A033C4F200031B889AB24EF6A813C1F6E2
:103DB000FF731B889BB29BB2C3EB02039BB2FB80D9
:103DC0004EF6A613C1F6FF731B780A2B05D1B7F97F
:103DD00006304FEAA303FB800BE04EF6A613C1F6B4
:103DE000FF731B78082B04D1B7F906304FEA231371
:103DF000FB80FB881BB2184607F10C07BD4680BC50
:103E0000704700BF80B485B000AF0346FB7140F639
:103E1000FF73BB604FF40063FB81FB790A2B03D176
:103E2000BB684FEA9303BB60FB79082B03D1BB68E7
:103E30004FEA1313BB60BB684FF47A7202FB03F3C3
:103E4000BB60BB684FEA930240F29F03C0F6EE13DB
:103E5000A3FB02134FEA53139AB24EF6A213C1F614
:103E6000FF731A804EF6A813C1F6FF734FF00002DD
:103E70001A8007F11407BD4680BC704780B485B036
:103E800000AF0346FB80FA884EF6A413C1F6FF7319
:103E90001B889BB29BB2C3EB02039BB2FB80B7F9BA
:103EA00006304FF47A7202FB03F24EF6A213C1F60B
:103EB000FF731B889BB21BB292FBF3F3FB81FB8960
:103EC0001BB2184607F11407BD4680BC704700BFFF
:103ED00080B400AFBD4680BC704700BF80B483B0E3
:103EE00000AF0346FB7144F20213C4F2000344F234
:103EF0000212C4F200021278D1B2FA7902F0F8028A
:103F000041EA0202D2B21A7007F10C07BD4680BC2A
:103F1000704700BF80B485B000AF786039607B68BF
:103F2000FB6007E0FB684FF000021A70FB6803F1CA
:103F30000103FB603B68002B0CBF00230123DBB2B5
:103F40003A6802F1FF323A60002BEBD107F1140717
:103F5000BD4680BC704700BF80B487B000AFF8603A
:103F6000B9607A60FB683B61BB687B610BE07B6991
:103F70001A783B691A703B6903F101033B617B6965
:103F800003F101037B617B68002B0CBF002301233D
:103F9000DBB27A6802F1FF327A60002BE7D107F1D9
:103FA0001C07BD4680BC704780B483B000AF4EF2A2
:103FB0009073C1F6FF734FF000021A6047F200637E
:103FC000C4F200034FF010021A7047F21003C4F25B
:103FD00000034FF001021A7047F21003C4F200030D
:103FE0004FF000025A7247F60003C4F200034FF08C
:103FF00001029A7047F60003C4F200034FF0030277
:10400000DA7047F60003C4F200034FF41E721A8000
:1040100047F60403C4F2000340F2E802C0F20002D3
:1040200092B21A8047F60603C4F2000347F608026C
:104030001A8047F20463C4F200034FF000021A80B2
:1040400047F20663C4F200034FF480421A8047F23D
:104050002003C4F200034FF009025A7247F2300302
:10406000C4F200034FF00D025A7247F26003C4F22B
:1040700000034FF017025A7247F27003C4F20003B4
:104080004FF01A025A7247F21003C4F200034FF0C5
:1040900001021A7147F60003C4F200031B889BB2A9
:1040A000002BF7D14FF000033B6018E03B684FEA6C
:1040B000C30247F60803C4F20003134403F10403E8
:1040C0007B607A68396849F6AC63C0F2000353F844
:1040D00021309BB213803B6803F101033B603B68D6
:1040E0004E2BE3DD47F21003C4F200034FF0010250
:1040F0001A7147F21803C4F200031B78DBB203F015
:104100000103DBB2002BF4D147F22803C4F2000311
:104110001B78DBB203F00103DBB2002BF4D147F2D2
:104120003803C4F200031B78DBB203F00103DBB2F7
:10413000002BF4D147F26803C4F200031B78DBB212
:1041400003F00103DBB2002BF4D147F27803C4F291
:1041500000031B78DBB203F00103DBB2002BF4D1C8
:1041600047F21003C4F200034FF000021A7047F246
:104170002003C4F200034FF000021A7047F230032C
:10418000C4F200034FF000021A7047F26003C4F259
:1041900000034FF000021A7047F27003C4F20003EC
:1041A0004FF000021A7007F10C07BD4680BC704743
:1041B00080B584B000AF07F10803FB6044F28000D3
:1041C000C4F200004FF4B00100F086FA44F284001B
:1041D000C4F2000040F23301C0F2190100F07CFA91
:1041E00044F28800C4F2000040F23811C0F2190114
:1041F00000F072FA44F20010C4F2000041F63821D7
:10420000C4F600014FF0040200F026FF44F2003330
:10421000C4F200034FF002021A7044F20003C4F229
:1042200000034FF008021A7044F21223C4F2000394
:104230004FF019021A7044F21023C4F200034FF039
:1042400007021A704CF6C050C0F2170000F034FAA2
:1042500044F22223C4F200034FF4E1621A8044F2D4
:104260000003C4F200034FF009021A7044F2202345
:10427000C4F2000341F251021A804FF00003FB71B7
:104280004FF01903BB601AE0FB79DBB24FEA43033E
:10429000DAB244F22523C4F200031B78DBB203F048
:1042A000010342EA0303DBB203F00303FB714FF0A7
:1042B000780000F001FABB6803F1FF33BB60FB68D4
:1042C0001B68002B03D0FB79DBB2032BDCD144F25B
:1042D0000403C4F2000340F203121A8044F2040300
:1042E000C4F200034FF000021A7044F20003C4F25B
:1042F00000034FF049021A7044F20023C4F2000395
:104300004FF020021A7044F20403C4F200034FF08D
:1043100007021A7044F20603C4F200034FF00002D1
:104320001A7044F20803C4F200034FF048021A70F6
:1043300044F20403C4F200034FF000021A7044F286
:104340000103C4F200034FF002021A7044F20B039F
:10435000C4F200034FF004021A7044F2A233C4F214
:10436000000344F2A232C4F200021278D2B242F048
:104370000702D2B21A7044F2A133C4F2000344F22D
:10438000A132C4F200021278D2B242F00102D2B2DB
:104390001A7007F11007BD4680BD00BF80B400AFA2
:1043A00044F2AA33C4F200034FF444721A8045F277
:1043B0000D13C4F200034FF004021A7045F62003F7
:1043C000C4F200034FF01E021A7045F62403C4F233
:1043D00000034FF01E021A7045F62803C4F20003D2
:1043E0004FF01E021A7045F62C03C4F200034FF082
:1043F0001E021A7045F66C03C4F200034FF0080267
:104400001A7045F60013C4F2000344F2C0021A8089
:1044100045F60313C4F200034FF00C021A7045F680
:104420000813C4F200036FF03F021A7045F60B1335
:10443000C4F200034FF00C021A7045F62033C4F2A8
:1044400000034FF040021A7045F62333C4F2000314
:104450004FF020021A7045F67603C4F200034FF0C5
:1044600046021A70BD4680BC704700BF80B500AFE1
:1044700072B644F60003C4F200034FF040021A7013
:1044800047F21003C4F200034FF000021A7047F223
:104490002003C4F200034FF000021A7045F67C03BB
:1044A000C4F200034FF001021A7044F2E863C4F250
:1044B000000344F2E862C4F200021278D2B242F081
:1044C0000102D2B21A70FFF76FFD45F20020C4F26C
:1044D00000004FF00701FFF71DFD45F20820C4F270
:1044E00000004FF00701FFF715FD45F21020C4F260
:1044F000000041F62021C4F600014FF00702FFF74B
:104500002BFD45F21820C4F200004FF00701FFF721
:1045100001FD45F22020C4F2000041F62821C4F636
:1045200000014FF00702FFF717FD45F22820C4F203
:1045300000004FF00701FFF7EDFC45F23020C4F218
:10454000000041F63021C4F600014FF00702FFF7EA
:1045500003FD45F26020C4F200004FF00601FFF7B2
:10456000D9FC45F27820C4F200004FF00701FFF7B4
:10457000D1FC45F20303C4F2010345F20302C4F285
:1045800001021278D2B242F00202D2B21A7045F29F
:104590001303C4F2010345F21302C4F201021278BC
:1045A000D2B242F00202D2B21A7044F2A033C4F284
:1045B000000344F2A032C4F200021278D2B242F0F8
:1045C0004002D2B21A7044F2C233C4F2000344F281
:1045D000C232C4F200021278D2B242F01002D2B259
:1045E0001A7045F20210C4F2000041F6F011C4F650
:1045F00000014FF0080200F02FFD45F2C210C4F296
:10460000000041F6F811C4F600014FF00802FFF770
:10461000A3FC45F22010C4F2000041F60021C4F6CC
:1046200000014FF00A0200F017FD45F24210C4F2FB
:10463000000041F60C21C4F600014FF0080200F022
:104640000BFD45F26010C4F2000041F61421C4F6DF
:1046500000014FF00A0200F0FFFC44F60003C4F230
:1046600000034FF000021A70FFF7A2FD44F60003AA
:10467000C4F200036FF07F021A70FFF78FFE44F25E
:10468000B030C4F2000044F2A031C4F200014FF097
:104690000C0200F0E1FC44F2B033C4F2000344F237
:1046A000B032C4F200021278D2B202F0FD021A70E7
:1046B00080BD00BF000000000230800803D000BFB2
:1046C00001380046FCD17047EFF3108072B6704796
:1046D00080F31088704700BF80B483B000AF78606B
:1046E00039603B68DAB27B681A707B6803F10103BA
:1046F0007B603B684FEA13233B603B68DAB27B6820
:104700001A707B6803F101037B603B684FEA132357
:104710003B603B68DAB27B681A7007F10C07BD4654
:1047200080BC704781F0004102E000BF83F000438D
:1047300030B54FEA41044FEA430594EA050F08BF3C
:1047400090EA020F1FBF54EA000C55EA020C7FEA00
:10475000645C7FEA655C00F0E2804FEA5454D4EB7D
:104760005555B8BF6D420CDD2C4480EA020281EA47
:10477000030382EA000083EA010180EA020281EA7F
:104780000303362D88BF30BD11F0004F4FEA0131D1
:104790004FF4801C4CEA113102D0404261EB4101E0
:1047A00013F0004F4FEA03334CEA133302D0524266
:1047B00063EB430394EA050F00F0A780A4F1010422
:1047C000D5F1200E0DDB02FA0EFC22FA05F280185C
:1047D00041F1000103FA0EF2801843FA05F3594142
:1047E0000EE0A5F120050EF1200E012A03FA0EFCC1
:1047F00028BF4CF0020C43FA05F3C01851EBE371EB
:1048000001F0004507D54FF0000EDCF1000C7EEB07
:1048100000006EEB0101B1F5801F1BD3B1F5001F45
:104820000CD349085FEA30004FEA3C0C04F1010464
:104830004FEA445212F5800F80F09A80BCF1004F8D
:1048400008BF5FEA500C50F1000041EB045141EA0F
:10485000050130BD5FEA4C0C404141EB010111F410
:10486000801FA4F10104E9D191F0000F04BF0146BB
:104870000020B1FA81F308BF2033A3F10B03B3F199
:1048800020020CDA0C3208DD02F1140CC2F10C0229
:1048900001FA0CF021FA02F10CE002F11402D8BF87
:1048A000C2F1200C01FA02F120FA0CFCDCBF41EA53
:1048B0000C019040E41AA2BF01EB0451294330BD22
:1048C0006FEA04041F3C1CDA0C340EDC04F11404FF
:1048D000C4F1200220FA04F001FA02F340EA0300D6
:1048E00021FA04F345EA030130BDC4F10C04C4F11C
:1048F000200220FA02F001FA04F340EA03002946FC
:1049000030BD21FA04F0294630BD94F0000F83F445
:10491000801306BF81F480110134013D4EE77FEA28
:10492000645C18BF7FEA655C29D094EA050F08BF74
:1049300090EA020F05D054EA000C04BF1946104655
:1049400030BD91EA030F1EBF0021002030BD5FEA99
:10495000545C05D14000494128BF41F0004130BDC1
:1049600014F580043CBF01F5801130BD01F0004515
:1049700045F0FE4141F470014FF0000030BD7FEA88
:10498000645C1ABF194610467FEA655C1CBF0B4683
:10499000024650EA013406BF52EA033591EA030F9A
:1049A00041F4002130BD00BF90F0000F04BF002192
:1049B000704730B54FF4806404F132044FF00005C5
:1049C0004FF0000150E700BF90F0000F04BF00213E
:1049D000704730B54FF4806404F1320410F00045A4
:1049E00048BF40424FF000013EE700BF42004FEA9F
:1049F000E2014FEA31014FEA02701FBF12F07F431C
:104A000093F07F4F81F06051704792F0000F14BF18
:104A100093F07F4F704730B54FF4607401F000455C
:104A200021F0004120E700BF50EA010208BF7047B3
:104A300030B54FF000050AE050EA010208BF7047A8
:104A400030B511F0004502D5404261EB41014FF411
:104A5000806404F132045FEA915C3FF4DCAE4FF015
:104A600003025FEADC0C18BF03325FEADC0C18BFFC
:104A7000033202EBDC02C2F1200300FA03FC20FA4D
:104A800002F001FA03FE40EA0E0021FA02F114449A
:104A9000C1E600BF70B54FF0FF0C4CF4E06C1CEAAF
:104AA00011541DBF1CEA135594EA0C0F95EA0C0F24
:104AB00000F0DEF82C4481EA030621EA4C5123EA97
:104AC0004C5350EA013518BF52EA033541F48011C6
:104AD00043F4801338D0A0FB02CE4FF00005E1FB79
:104AE00002E506F00042E0FB03E54FF00006E1FBC3
:104AF00003569CF0000F18BF4EF0010EA4F1FF0406
:104B0000B6F5007F64F5407404D25FEA4E0E6D4145
:104B100046EB060642EAC62141EA55514FEAC52056
:104B200040EA5E504FEACE2EB4F1FD0C88BFBCF5D2
:104B3000E06F1ED8BEF1004F08BF5FEA500E50F183
:104B4000000041EB045170BD06F0004646EA010149
:104B500040EA020081EA0301B4EB5C04C2BFD4EB7B
:104B60000C0541EA045170BD41F480114FF0000E74
:104B7000013C00F3AB8014F1360FDEBF002001F0E2
:104B8000004170BDC4F10004203C35DA0C341BDC5C
:104B900004F11404C4F1200500FA05F320FA04F02E
:104BA00001FA05F240EA020001F0004221F0004162
:104BB00010EBD37021FA04F642EB06015EEA430ED5
:104BC00008BF20EAD37070BDC4F10C04C4F1200505
:104BD00000FA04F320FA05F001FA04F240EA0200B8
:104BE00001F0004110EBD37041F100015EEA430E89
:104BF00008BF20EAD37070BDC4F1200500FA05F2A9
:104C00004EEA020E20FA04F301FA05F243EA020327
:104C100021FA04F001F0004121FA04F220EA020036
:104C200000EBD3705EEA430E08BF20EAD37070BD7C
:104C300094F0000F0FD101F00046400041EB01015C
:104C400011F4801F08BF013CF7D041EA060195F03E
:104C5000000F18BF704703F00046520043EB0303F8
:104C600013F4801F08BF013DF7D043EA06037047E5
:104C700094EA0C0F0CEA135518BF95EA0C0F0CD0F0
:104C800050EA410618BF52EA4306D1D181EA030136
:104C900001F000414FF0000070BD50EA410606BF30
:104CA0001046194652EA430619D094EA0C0F02D175
:104CB00050EA013613D195EA0C0F05D152EA0336BA
:104CC0001CBF104619460AD181EA030101F00041D8
:104CD00041F0FE4141F470014FF0000070BD41F021
:104CE000FE4141F4780170BD70B54FF0FF0C4CF4FB
:104CF000E06C1CEA11541DBF1CEA135594EA0C0F1A
:104D000095EA0C0F00F0A7F8A4EB050481EA030E66
:104D100052EA03354FEA013100F088804FEA03334D
:104D20004FF0805545EA131343EA12634FEA02221B
:104D300045EA111545EA10654FEA00260EF00041DC
:104D40009D4208BF964244F1FD0404F5407402D22E
:104D50005B084FEA3202B61A65EB03055B084FEABF
:104D600032024FF480104FF4002CB6EB020E75EBBC
:104D7000030E22BFB61A754640EA0C005B084FEAE4
:104D80003202B6EB020E75EB030E22BFB61A754661
:104D900040EA5C005B084FEA3202B6EB020E75EBAC
:104DA000030E22BFB61A754640EA9C005B084FEA24
:104DB0003202B6EB020E75EB030E22BFB61A754631
:104DC00040EADC0055EA060E18D04FEA051545EA20
:104DD00016754FEA06164FEAC30343EA52734FEAC9
:104DE000C2025FEA1C1CC0D111F4801F0BD141EA42
:104DF00000014FF000004FF0004CB6E711F4801FA7
:104E000004BF01430020B4F1FD0C88BFBCF5E06F86
:104E10003FF6AFAEB5EB030C04BFB6EB020C5FEA96
:104E2000500C50F1000041EB045170BD0EF0004EEB
:104E30004EEA113114EB5C04C2BFD4EB0C0541EA1D
:104E4000045170BD41F480114FF0000E013C90E61A
:104E500045EA060E8DE60CEA135594EA0C0F08BFDE
:104E600095EA0C0F3FF43BAF94EA0C0F0AD150EADD
:104E700001347FF434AF95EA0C0F7FF425AF104670
:104E800019462CE795EA0C0F06D152EA03353FF498
:104E9000FDAE1046194622E750EA410618BF52EA15
:104EA00043067FF4C5AE50EA41047FF40DAF52EAE9
:104EB00043057FF4EBAE12E74FF0FF3C06E000BF86
:104EC0004FF0010C02E000BF4FF0010C4DF804CD93
:104ED0004FEA410C7FEA6C5C4FEA430C18BF7FEA53
:104EE0006C5C1BD001B050EA410C0CBF52EA430C81
:104EF00091EA030F02BF90EA020F0020704710F101
:104F0000000F91EA030F58BF994208BF90422CBF8F
:104F1000D8176FEAE37040F0010070474FEA410C88
:104F20007FEA6C5C02D150EA013C07D14FEA430CA6
:104F30007FEA6C5CD6D152EA033CD3D05DF8040B17
:104F4000704700BF8446104662468C461946634649
:104F500000E000BF01B5FFF7B7FF002848BF10F120
:104F6000000F01BD4DF808EDFFF7F4FF0CBF012065
:104F700000205DF808FB00BF4DF808EDFFF7EAFFE1
:104F800034BF012000205DF808FB00BF4DF808ED9C
:104F9000FFF7E0FF94BF012000205DF808FB00BF91
:104FA0004DF808EDFFF7CEFF94BF012000205DF81B
:104FB00008FB00BF4DF808EDFFF7C4FF34BF012028
:104FC00000205DF808FB00BF4FEA410212F5001215
:104FD00015D211D56FF47873B3EB625212D94FEA40
:104FE000C12343F0004343EA505311F0004F23FA2A
:104FF00002F018BF404270474FF00000704750EA7F
:10500000013005D111F0004008BF6FF0004070473B
:105010004FF00000704700BF4A0011D212F5001295
:1050200011D20DD56FF47873B3EB62520ED44FEA00
:10503000C12343F0004343EA505323FA02F0704780
:105040004FF00000704750EA013002D14FF0FF30BE
:1050500070474FF000007047032A2DE9F0070BD886
:105060003AB1002311F803C000F803C001339342A2
:10507000F8D1BDE8F007704782180C46034603E0FC
:1050800014F8011C03F8011C03F003061946A4469A
:1050900001330134002EF3D11CF00304634608BF32
:1050A000C1EB020C68D06542C4F1040A0CEB0507A1
:1050B00033464FEACA0A5CF805604FEAC408551A3D
:1050C00008E057F8044F264604FA0AF449EA0404B3
:1050D000CC5004335C18032D26FA08F9A5F1040519
:1050E0000CEB0306EDDC002302E0F15CE15401333C
:1050F00019199142F9D3BCE753F8404C41F8404CA0
:1051000053F83C4C41F83C4C53F8384C41F8384C7F
:1051100053F8344C41F8344C53F8304C41F8304C8F
:1051200053F82C4C41F82C4C53F8284C41F8284C9F
:1051300053F8244C41F8244C53F8204C41F8204CAF
:1051400053F81C4C41F81C4C53F8184C41F8184CBF
:1051500053F8144C41F8144C53F8104C41F8104CCF
:1051600053F80C4C41F80C4C53F8084C41F8084CDF
:1051700053F8044C41F8044C1C460D464033403172
:10518000BCF13F0FACF1400CB6DC21462B46541B62
:105190000FE051F8105C43F8105C51F80C5C43F8D8
:1051A0000C5C51F8085C43F8085C51F8045C43F867
:1051B000045C0F2C0D469C4601F1100103F1100315
:1051C000A4F11004E5DCCCEB0201002303E0EC5871
:1051D0004CF8034004335E19032903EB0C04A1F1DE
:1051E0000401F4DC7FE700BF032AC9B230B407D85A
:1051F00022B10023C15401339342FBD130BC70472C
:1052000000EB020C034601E003F8011C03F0030469
:105210001A460133002CF7D14FF00133C2EB0C04D6
:1052200003FB01F31FE042F8403C42F83C3C42F8EB
:10523000383C42F8343C42F8303C42F82C3C42F8CE
:10524000283C42F8243C42F8203C42F81C3C42F8FE
:10525000183C42F8143C42F8103C42F80C3C42F82E
:10526000083C42F8043C154640323F2CA4F140046F
:10527000D9DC2A46C5EB0C0407E042F8103C42F8A2
:105280000C3C42F8083C42F8043C154610320F2C06
:10529000A4F11004F1DC2A46C5EB0C0501E042F84C
:1052A000043C14460432032DA5F10405F7DC01E0AB
:1052B00004F8011B6445FBD3A0E700BF0CB44EF219
:1052C0003C13F0B5C1F6FF730C1E9DB005461E6879
:1052D00028DB23AF229A3B46304601A90CBFA446E7
:1052E00004F1FF3C4FF4027E0595ADF810E04FF05D
:1052F000FF3ECDF818C00195ADF812E0CDF80CC016
:105300001B9700F0D7F8B0F1FF3F08DB14B1019B09
:1053100000221A701DB0BDE8F04002B070478B2328
:105320003360F3E78B234FF0FF303360F2E700BFC9
:1053300008B4F0B5141E9CB006460D4627DB22AF1C
:10534000219A3B4601A90CBFA44604F1FF3C4FF44F
:10535000027E0595ADF810E04FF0FF3ECDF818C085
:105360000195ADF812E0CDF80CC01B9700F0A2F843
:10537000B0F1FF3F08DB14B1019B00221A701CB092
:10538000BDE8F04001B070478B233360F3E78B2317
:1053900003604FF0FF30F2E72DE9F04F85B0924601
:1053A0000C46039090681768002800F081804FF049
:1053B00000090B684D46002D54D0A668B542B04692
:1053C0003EBF18462E46A8463CD3A08910F4906FE5
:1053D00008BF184636D06269216902EB420B5B1A9E
:1053E00003F1010C0BEBDB7BAC444FEA6B0BE345A9
:1053F0005A463CBFE3465A4610F4806F37D01146F8
:105400000398019302F0F6FB019B00283BD01A465B
:10541000216901930290FFF71FFEA289019BDDF82D
:1054200008C022F4906242F08002A2812E46A84673
:10543000C3EB0B020CEB0300A260C4F810C02060A9
:10544000C4F814B04246494602F0E0FEA268236860
:10545000961BA660DAF8082043442360551BCAF85F
:105460000850FDB1D7F800907D680837A3E703988E
:10547000019303F0D7FB019B84460028D6D1039803
:10548000216902F08DFA039A0C234FF0FF3013606C
:105490000023A289CAF8043042F04002CAF808305A
:1054A000A28102E02846CAF8045005B0BDE8F08F9A
:1054B0005060FAE72DE9F04FC5B00E469A46154602
:1054C000099002F053FBB38913F0800F00681B9022
:1054D00003D03369002B01F08C800DF17409B346C1
:1054E0004C46002210920023189217921A920D92A5
:1054F0002DAA199328320DF1F70316920793002372
:10550000CDF8DC90389339932B78B3F1250218BF8E
:105510000122002B0CBF002202F0010202B32E4632
:1055200016F8013F1A1E18BF0122252B0CBF0022BE
:1055300002F00102002AF3D1771B08BF35460FD0D5
:105540006760389B399A01332560D219072B39924D
:10555000389379DC08340D983546C0190D903378AE
:10556000002B00F0378700214FF00002CDF828A073
:105570006B1C0C914FF0FF388DF80F218A466A782A
:105580002B204FF0200C5D1CA2F12003582B00F2C1
:105590001982DFE813F029021702170235021702F9
:1055A000170217021702170217023C0248021702DD
:1055B000C802CF021702EF02F602F602F602F60266
:1055C000F602F602F602F602F602170217021702B8
:1055D00017021702170217021702170217024F02CB
:1055E0008802170288021702170217021702C10267
:1055F00017021702EE03170217021702170217020B
:10560000930317021702AD031702170217021702BE
:10561000170217021702170217021702C703D8034F
:105620008802880288020B03D803170217020F03AF
:105630001702190329033E038C03170259031702AB
:10564000840317021702EA000998594637AAFFF7A0
:10565000A3FE00287CD14C467DE71899012940F330
:105660005284119A01236360389B2260399A013376
:1056700038930132072B399200F3968508340123C1
:105680006360389B399A01331B980132072B39929A
:105690002060389300F37D850834109800220023A1
:1056A0001999FFF75FFC002840F003851899119BBA
:1056B0004A1E6260591C389B216039990133389326
:1056C0008A18072B399200F32F8408341A9A1A98F3
:1056D00062603EAA389B2260399A013338931218CF
:1056E000072B399200F34F8104F108031AF0040FDD
:1056F00000F056810C990B9A8E1A002E40F35081BF
:10570000102E49F6E877D8BFC0F2000740F3DE83D9
:105710001024C0F200070DF1DC08DDF824A003E03E
:10572000103E102E40F3D2835C60389A39990132D2
:105730001F601031072A399103F108033892EFDD19
:10574000504659464246FFF727FE4B460028E7D011
:105750005E46B3890D9813F0400F18BF4FF0FF302D
:105760000D900D9845B0BDE8F08F1AF0200F4AF269
:105770002C00C0F200001492179000F0C3820A9926
:10578000CB1D23F0070303F108020A92D3E9006757
:1057900056EA07010CBF002201221AEA020F40F06C
:1057A000BC8402234FF000018DF80F11B8F1000FF7
:1057B000A8BF2AF0800AB8F1000F18BF42F001021A
:1057C000002A00F06081012B00F03484022B00F0ED
:1057D00017841699CDF82C8011914FEAD6084FEA1C
:1057E000D70C48EA477806F007006746464630304F
:1057F00056EA070201F8010DEFD11AF0010FDDF8AA
:105800002C80119140F0DB84169B5B1A0E930E9B4B
:10581000CDF854804345B8BF43460B939DF80F31F4
:1058200013B10B9901310B911AF00202139202D0BD
:105830000B9B02330B931AF08400129038D10C9911
:105840000B9A8E1A002E33DD102E49F6E877D8BF5A
:10585000C0F2000720DD4FF01008C0F2000702E0A0
:10586000103E102E18DDC4F80480389B399A01339D
:1058700027601032072B399204F108043893EFDDCA
:105880000998594637AA4C46FFF786FD00287FF451
:105890005FAF103E102EE6DC6660389B27605A1C16
:1058A000399B38929B19072A399300F3F783083400
:1058B0009DF80F3173B101236360389B43AA033213
:1058C0002260399A013338930132072B399200F361
:1058D00040830834139B6BB102236360389B43AA57
:1058E0002260399A013338930232072B399200F340
:1058F0003A8308341298802800F0B28215980E9BE3
:10590000C61A002E2EDD102EA74FC8BF4FF010086C
:1059100003DC1BE0103E102E18DDC4F80480389B19
:10592000399A013327601032072B399204F10804A9
:105930003893EFDD0998594637AA4C46FFF72CFDFE
:1059400000287FF405AF103E102EE6DC6660389B21
:1059500027605A1C399B38929B19072A399300F308
:10596000EE8208341AF4807F40F019820E99119A61
:105970006160389B2260399A013338935218072BA3
:1059800039927FF7B1AE0998594637AAFFF704FD5F
:1059900000287FF4DDAE1AF0040F4B467FF4AAAE68
:1059A000399B0D980B9A0C998A42ACBF801840180D
:1059B0000D90002B40F09E820023DDF828A0389344
:1059C0004C46A1E51492002A00F0048501208DF8D0
:1059D000B4204FF000012DAA0B908DF80F111192F9
:1059E0000E90002115911FE79DF80F31002B40F01C
:1059F0000C840A992B468DF80FC12A780A91C2E5CA
:105A00000A994AF0010A2A782B460A91BBE50A9BBB
:105A10000A9A1B68111D002B0C93C0F2B2852A78DC
:105A20002B460A91AFE50A992B468DF80F012A788B
:105A30000A91A8E54AF0100A14921AF0200F00F01B
:105A400087810A98C31D23F0070303F108010A9117
:105A5000D3E90067002E77F10000C0F2768356EAA2
:105A600007014FF001030CBF00220122B8F1000F23
:105A7000A8BF2AF0800AB8F1000F18BF42F0010257
:105A8000002A7FF4A0AE002B40F0E5811AF0010F50
:105A900000F0E18130238DF8DB302DAB012027337E
:105AA0000E901193B3E61AF0080F149200F0BF8322
:105AB0000A98C31D23F0070303F108010A915E68E9
:105AC0001F68199610973846314603F085FA034649
:105AD000002800F093843846002200233146FFF767
